:04000000D5EF00F048
:100008005F82FACF62F0FBCF63F0E9CF64F0EACF0A
:1000180065F0E1CF66F0E2CF67F0D9CF68F0DACFCC
:1000280069F0F3CF6AF0F4CF6BF0F6CF6CF0F7CF4E
:100038006DF0F8CF6EF0F5CF6FF09EBA2CD032D0BD
:10004800000E0001E025D96E050E0001E121DA6EEF
:10005800AECFDFFF010E0001E0250001606F000E4A
:100068000001E1210001616F000E00016025D96ED9
:10007800050E00016121DA6E000EDF6E0001E24B11
:10008800E32BFF0E0001E2150001E06F010E0001F5
:10009800E3150001E16F9EBAD3D79E9A010E0001C5
:1000A800E76F60D0A4BA0ED014D00001E851010D5A
:1000B800000EF324D96E040EF420DA6E74CFDFFF3D
:1000C8000001E82BA4BAF1D7A49A010E0101D26F5E
:1000D80049D0F2A218D0190E0001EC6F939E939CA0
:1000E8009492949493988A9E8A9C010E0001EF6FD3
:1000F8005D50D8A404D0010EBDEC5BF002D0020E16
:100108005D6EF2922FD09EA020D09E90F28E3C0E73
:10011800CF6EB00ECE6E939E939C949294949398C7
:100128008A9E8A9C0001EC51D8A40CD08A8CEDC020
:10013800ECF0010E136E000E146E0001EB516FEC23
:100148001EF010D00001EC070DD0000E9E6E000EC0
:10015800A16E000EA46E000E7B6E000E7E6EF294F1
:10016800F292F290F28E6FC0F5FF6EC0F8FF6DC08C
:10017800F7FF6CC0F6FF6BC0F4FF6AC0F3FF69C0FD
:10018800DAFF68C0D9FF67C0E2FF66C0E1FF65C05B
:10019800EAFF64C0E9FF63C0FBFF62C0FAFF5F9239
:1001A8001100BEEF5CF0720ED36E53EC70F0949AAF
:1001B8008B9A000EE8CF00F7020EEFEC61F0000E0C
:1001C8000301316FB7EF0AF0D0B603D0010EA6ECE9
:1001D80066F0010EDED39BEC4FF0000ED2EC53F02C
:1001E80004EC6AF00001EE6F010E8AEC72F0AAECE2
:1001F8006FF0B7EF0AF0F70E0001756FFC0E000103
:10020800766FBBEC64F09BEC65F0FC0E00017E5D44
:10021800080E00017F59D8B013D0DFEC72F0020E3F
:100228000001826F000E0001836F0F0EECEC0AF0E4
:10023800000E0001716FFA0E706FE7EC6EF0EFD7E9
:10024800000E03011B6F0F0E03011B6501D00DD0BB
:10025800010E0001826F010E0001836F03011B5123
:10026800ECEC0AF003011B2BEED7010E0001EF6F37
:10027800000E0001DF6F0A0EDE6F0C0ED4EC67F083
:100288006AEC5CF0ECEC48F064EC72F0FF0AD8A47D
:1002980003D0FF0E20EC6FF0F3EC71F0000E0101BB
:1002A800006F000E016F000E026F000E036FB80E94
:1002B8000101046FFF0E0101056F78EC35F0000EA7
:1002C8000001736F000E746F000E756F000E766F6D
:1002D8004BEC6CF0740AD8B447D0100E30EC6AF0CE
:1002E800010E0001736F000E746F000E756F000E23
:1002F800766F4BEC6CF0650AD8B436D0100E30EC43
:100308006AF0020E0001736F000E746F000E756FB5
:10031800000E766F4BEC6CF0730AD8B425D0100E33
:1003280030EC6AF0030E0001736F000E746F000E5C
:10033800756F000E766F4BEC6CF0740AD8B414D05D
:10034800100E30EC6AF0040E0001736F000E746F2B
:10035800000E756F000E766F4BEC6CF0FF0AD8B488
:1003680003D0100E30EC6AF0ECEC48F0000E0001FF
:100378007E6F000E7F6F000E806F000E816F0BEC9A
:1003880072F04F0E01013F6FFD0E0101406F5BECF3
:100398006AF0D3EC72F0000E0001D66F0C0ED56F28
:1003A800010E0001D76F000ED86F000ED96F000E36
:1003B800DA6F83EC5FF0000E0001D66F750ED56F13
:1003C800000E0001D76F000ED86F000ED96F000E17
:1003D800DA6F83EC5FF03FEC67F00009D8A404D033
:1003E800020E30EC6AF006D0020E20EC6FF0010E1F
:1003F8008AEC72F0CBEC72F0C0EC71F00009D8A472
:1004080004D0040E30EC6AF003D0040E20EC6FF038
:10041800640E0301316F09D0000E0001716F320EB6
:10042800706FE7EC6EF00301310780A205D003017D
:1004380031510301D8A4F0D7ADEC6EF00009D8A46F
:1004480004D0080E30EC6AF003D0080E20EC6FF0F0
:10045800040E0001EE6F270E0001C66F020E0001A8
:10046800C76F510E0001C86FFE0E0001C96F64EC22
:1004780072F00101A46F0101A4510001CA6FCB6B96
:100488001FEC12F0270E0001756F020E0001766F47
:10049800BBEC64F0B7EF0AF0CBEC72F0050E030189
:1004A800316F07D051EC69F00009D8A407D00301D7
:1004B8003107030131510301D8A4F4D703013151A5
:1004C8000301D8A403D0040E30EC6AF062EC3AF0D1
:1004D8000301106F030E03011019D8A402D0050EF2
:1004E80058D203011005D8A402D0080E52D20C0E1F
:1004F80050D2D9EC66F00009D8B404D0080E3CEC10
:1005080070F0F3D7080E3CEC6FF00E0E0001EE6FA2
:100518000A0E0001826F010E0001836F0F0EECECD2
:100528000AF00A0E0001826F010E0001836F0F0EA0
:10053800ECEC0AF0B7EF0AF09BEC65F0FD0E000159
:100548007E5D080E00017F59D8A08CD0DCEC72F0DB
:100558000009D8A4A0D090EC6EF0000E3CEC54F04A
:10056800000E0001716F050E706FE7EC6EF0E4ECA1
:100578006CF0000E0001716F050E706FE7EC6EF005
:10058800000E0001DF6F020EDE6F040ED4EC67F080
:10059800A5EC54F00009D8B40CD0EEEC72F0000EC3
:1005A8000001DF6F0A0EDE6F080ED4EC67F0080E4C
:1005B8004CD084EC6BF0EEEC72F0E7EC71F0070EC7
:1005C8003CEC6FF084EC6BF07EEC69F0030AD8A485
:1005D8003FD00A0E0001826F010E0001836F0A0EE0
:1005E800ECEC0AF0010E0301136FF40E126F12D037
:1005F800340E0101A46FF20EE82EFED7A42FFCD70B
:100608000301125103011311D8B404D003011207D6
:10061800D8A013070101CF51D8A406D00301125165
:1006280003011311D8A4E4D77EEC69F0030AD8A417
:1006380002D0020E0AD00A0E0001826F010E0001DC
:10064800836F0C0EECEC0AF026D00001EE6F25D07B
:100658000A0E0001826F010E0001836F0C0EECEC94
:100668000AF019D00A0E0001826F010E0001836F93
:100678000C0EECEC0AF0000E0001716F640E706F46
:10068800E7EC6EF00A0E0001826F010E0001836F25
:100698000C0EECEC0AF00B0ED8D7000E0001CE6F52
:1006A800320ECD6F010E0001CF6F15EC71F0B7EF70
:1006B8000AF0000E0001736F720E726F98EC72F000
:1006C8000009D8A494D0000E0001BE6F720EBD6F51
:1006D800030E0001BF6FB7EC6DF0100E30EC6AF03E
:1006E800000E0001736F730E726F98EC72F00101C7
:1006F800A46F0101A4050301186F000E0001BE6F6D
:10070800730EBD6F18C3BFF0B7EC6DF0000E00019B
:10071800736F730E726F98EC72F00009D8A438D01A
:10072800000E0001BE6F730EBD6F050E0001BF6F96
:10073800B7EC6DF0000E0001756F020E746FD4EC0B
:100748006BF074C07EF075C07FF0000E0001816F01
:10075800780E806F74EC6FF000017EC00CF300011E
:100768007FC00DF303010E6B0F6B0CC3DBF00DC3E1
:10077800DCF00EC3DDF00FC3DEF073EC66F0D50ECF
:100788000001756FFF0E0001766FBBEC64F02DD091
:10079800000E0001756F020E746FD4EC6BF074C01C
:1007A8007EF075C07FF0000E0001816F3C0E806FF7
:1007B80074EC6FF000017EC00CF300017FC00DF3F4
:1007C80003010E6B0F6B0CC3DBF00DC3DCF00EC323
:1007D800DDF00FC3DEF073EC66F0D10E0001756F2B
:1007E800FF0E0001766FBBEC64F00A0ED2D0000E4B
:1007F8000001736F720E726F98EC72F00101A46FB2
:100808000101A4050301186F000E0001BE6F720EEE
:10081800BD6F18C3BFF0B7EC6DF06AEC5CF074EC18
:1008280072F00301256F6CEC72F00301306F000168
:10083800EF05D8A413D0030125A305D00301305137
:100848000301D8A40BD0000E0001DF6F0A0EDE6F83
:100858000C0ED4EC67F0020E0001EF6F140E0301CA
:10086800316F28D0C90E0001756FFD0E0001766F3B
:10087800BBEC64F00001EF05D8A413D0030125A355
:1008880005D0030130510301D8A40BD0000E00019C
:10089800DF6F0A0EDE6F0C0ED4EC67F0020E00015B
:1008A800EF6F000E0001716FFA0E706FE7EC6EF0DB
:1008B80003013107030131510301D8A480A405D0F5
:1008C800030E0101CF19D8A4CDD780B42BD0030EC5
:1008D8000101CF19D8B426D0E10E0001756FFE0EC4
:1008E8000001766FBBEC64F00001EF51D8B413D06F
:1008F800030125A308D0030125A505D00301305124
:100908000301D8A408D0000E0001DF6F0A0EDE6FC5
:10091800080ED4EC67F0020E3CEC70F060EC60F06E
:10092800090E37D01A0E0001756FFF0E0001766FA1
:10093800BBEC64F0E7EC71F0070E3CEC6FF0300EA6
:1009480030EC6AF00001EF51D8B416D0030125A3AA
:1009580005D0030130510301D8A40ED0030E0101C4
:10096800CF19D8B409D0320E0001826F010E0001F0
:10097800836F0C0EECEC0AF084EC6BF0000E0001B7
:10098800CE6F320ECD6F010E0001CF6F15EC71F0F6
:100998002CD70001EE6FB7EF0AF009EC66F0000EF5
:1009A8000001756F080E746FF7EC52F074C02AF3EB
:1009B80075C02BF376C02CF377C02DF3000E000121
:1009C800756FC00E746FD4EC6BF0380E000174258F
:1009D8000301196FFF0E0001752103011A6F000E44
:1009E8000001756F750E746FF7EC52F074C01CF34C
:1009F80075C01DF376C01EF377C01FF3000E00010B
:100A0800756F0C0E746FF7EC52F074C020F375C05C
:100A180021F376C022F377C023F3000E0301266F7B
:100A2800000E276F000E286F000E296F030120515A
:100A380003011C192DE10301215103011D1928E1AE
:100A48000301225103011E1923E10301235103016C
:100A58001F19D8A41DD019C3A4F11AC3A5F1000EFB
:100A68000101A5BFFF0EA66FA76FFF0E0101A42508
:100A78000301266FFF0E0101A5210301276F070E51
:100A88000101A6210301286F000E0101A721C1D091
:100A980003011C510301205D03011D51030121596C
:100AA80003011E510301225903012351800A010148
:100AB800A46F03011F51800A0101A459D8B05FD067
:100AC8001CC3A4F11DC3A5F11EC3A6F11FC3A7F142
:100AD8000101A41FA51FA61FA71FA42B000EA52355
:100AE800A623A72319C3A8F11AC3A9F1000E01016F
:100AF800A9BFFF0EAA6FAB6F0101A4510101A82580
:100B08000101AC6F0101A5510101A9210101AD6FDE
:100B18000101A6510101AA210101AE6F0101A751EE
:100B28000101AB210101AF6F030120510101AC2587
:100B38000101B06F030121510101AD210101B16F24
:100B4800030122510101AE210101B26F03012351BA
:100B58000101AF210101B36FFF0E0101B0250301AF
:100B6800266FFF0E0101B1210301276F070E010156
:100B7800B2210301286F000E0101B3214AD01CC322
:100B8800A4F11DC3A5F11EC3A6F11FC3A7F101015E
:100B9800A41FA51FA61FA71FA42B000EA523A623CD
:100BA800A72319C3A8F11AC3A9F1000E0101A9BF0F
:100BB800FF0EAA6FAB6F0101A4510101A825010125
:100BC800AC6F0101A5510101A9210101AD6F01011E
:100BD800A6510101AA210101AE6F0101A75101012E
:100BE800AB210101AF6F030120510101AC250301C5
:100BF800266F030121510101AD210301276F030174
:100C080022510101AE210301286F03012351010183
:100C1800AF210301296F000E0001736F710E726F0F
:100C280098EC72F00301146F000E0301086F200E98
:100C3800096F000E0A6F000E0B6F000E0001736F34
:100C4800720E726F98EC72F0020AD8A409D0000EE6
:100C58000301086F800E096F000E0A6F000E0B6FFC
:100C680074EC72F00301256F60D2090E0001EE19D1
:100C7800D8A47DD249EC72F00301085103012A255A
:100C88000101A46F0301095103012B210101A56F83
:100C980003010A5103012C210101A66F03010B5125
:100CA80003012D210101A76F0101A4510301265D54
:100CB8000101A551030127590101A6510301285932
:100CC80003012951800A0101A86F0101A751800A77
:100CD8000101A859D8A016D02AC319F12BC31AF1BB
:100CE8002CC31BF12DC31CF108C31DF109C31EF150
:100CF8000AC31FF10BC320F1000E0101216FCEECD6
:100D080038F0BFD0030129BFA5D003012951030141
:100D180028110301271104E103012605D8A09AD060
:100D28002AC319F12BC31AF12CC31BF12DC31CF1D3
:100D38002AC3A4F12BC3A5F12CC3A6F12DC3A7F197
:100D48000101A41FA51FA61FA71FA42B000EA523E2
:100D5800A623A723030126510101A4250101A86F99
:100D6800030127510101A5210101A96F03012851A0
:100D78000101A6210101AA6F030129510101A7213F
:100D88000101AB6F0F0E0101A8150101AC6F000E38
:100D98000101A9150101AD6F000E0101AA1501019C
:100DA800AE6F000E0101AB150101AF6F03012A51AF
:100DB8000101AC250101B06F03012B510101AD21E7
:100DC8000101B16F03012C510101AE210101B26F84
:100DD80003012D510101AF210101B36F0101B01FC2
:100DE800B11FB21FB31FB02B000EB123B223B32320
:100DF800030126510101B0250101B46F03012751F8
:100E08000101B1210101B56F030128510101B2218E
:100E18000101B66F030129510101B3210101B76F27
:100E2800100E0101B42501011D6F000E0101B5214D
:100E380001011E6F000E0101B62101011F6F000E96
:100E48000101B7210101206F010E0101216FCEECD4
:100E580038F017D0000E0101196F000E1A6F000E3E
:100E68001B6F000E1C6F000E01011D6F000E1E6F20
:100E7800000E1F6F000E206F010E0101216FCEECD6
:100E880038F00301246F020E03012419D8A41BD1E2
:100E9800370E0001756FFE0E0001766FBBEC64F033
:100EA800000E0001756F080E746FF7EC52F074C0F5
:100EB8002AF375C02BF376C02CF377C02DF3DDC170
:100EC80014F3100E20EC6FF0EEEC72F0E7EC71F01A
:100ED8000001EF51D8B426D0030125A505D00301A0
:100EE80030510301D8A41ED0000E0001EF6F0A0E86
:100EF8000001826F010E0001836F040EECEC0AF012
:100F08000A0E0001826F010E0001836F040EECECE3
:100F18000AF00A0E0001826F010E0001836F040EB1
:100F2800ECEC0AF0050E3CEC70F0030126510301CD
:100F38002A5D0301275103012B590301285103019D
:100F48002C5903012D51800A0101A46F0301295175
:100F5800800A0101A459D8A099D0350E20EC6FF071
:100F6800000E0301156F040E0301156501D010D0A2
:100F78004FEC18F00009D8A404D0400E0301246FE8
:100F880004D0020E0301246F03D00301152BEBD705
:100F98000A0E0301056F39D0040E3CEC6FF0000E09
:100FA8000101196F000E1A6F000E1B6F000E1C6FE7
:100FB800000E01011D6F000E1E6F000E1F6F000E48
:100FC800206F010E0101216FCEEC38F00301246F70
:100FD80003010507000E0301166F040E03011665D1
:100FE80001D013D0000E0001716FC80E706FE7ECCE
:100FF8006EF04FEC18F00009D8B404D0040E3CECA5
:1010080070F003D00301162BE8D7400E0301241912
:10101800D8A405D0030105510301D8A4BDD7000EFB
:101028000301176F090E0301176501D00FD077EC84
:101038004DF0E806D8B40AD0000E0001716FC80E52
:10104800706FE7EC6EF00301172BECD73EEC42F023
:101058009DC006F39EC007F3030107BF10D003012C
:10106800075104E103010605D8A009D006C3C1F061
:1010780007C3C2F021EC72F0D5EC55F078D0000E21
:101088000001C26FC16921EC72F071D00400B00E8A
:101098000001756FFC0E0001766FBBEC64F049EC43
:1010A80072F0000E0001716F640E706FE7EC6EF065
:1010B80049EC72F0020E0001756FFE0E0001766FAA
:1010C800BBEC64F032D0030E03012419D8A416D067
:1010D8003B0E0001756FFF0E0001766FBBEC64F0EC
:1010E800DEC170F00001716BE7EC6EF003011407CC
:1010F800200E30EC6AF005EC68F017D0040E0301FE
:101108002419D8A410D0B90E0001756FFD0E000186
:10111800766FBBEC64F003011407100E30EC6AF034
:1011280005EC68F002D00301140703012A510301FA
:10113800265D03012B510301275903012C5103019B
:10114800285903012951800A0101A46F03012D5177
:10115800800A0101A459D8A00AD00301145103013F
:10116800D8B405D0030E0101CF19D8A47ED584ECDC
:101178006BF0000E0001CE6F320ECD6F010E000134
:10118800CF6F15EC71F0F9EF03F000F064EC72F03A
:101198000301116F030111B950D0030111BB4DD0E8
:1011A80015EC5CF0CDC13FF1CEC140F149EC64F0E3
:1011B800DFEC58F0BEEC3EF0000E0001756F020E39
:1011C800746FD4EC6BF0000174C079F0000175C045
:1011D8007AF000017B6B7C6B3C0E00017D6F000E8A
:1011E8007E6F000E7F6F000E806F98EC63F079C001
:1011F80000F37AC001F37BC002F37CC003F300C3A1
:10120800DBF001C3DCF002C3DDF003C3DEF073ECF6
:1012180066F0F7EC6DF06CEC72F0020AD8A47BEF84
:1012280002F0000E0001BE6F010EBD6F000E00013E
:10123800BF6FB7EC6DF07BEF02F0DFEC58F0150EE6
:101248000001756FFC0E0001766FBBEC64F0040EB4
:101258003CEC6FF0270E0001C66F020E0001C76F4D
:101268004C0E0001C86FFC0E0001C96F000E000192
:10127800736F710E726F98EC72F00101A46F010127
:10128800A4510001CA6FCB6B000E0001CD6F0A0E8E
:10129800CC6F000E0001736F720E726F98EC72F0D3
:1012A8000101A56F0101A5510001CE6FCF6B000EA2
:1012B8000001D16F030ED06F000E0001736F730E23
:1012C800726F98EC72F00101A66F0101A65100013E
:1012D800D26FD36B000E0001D56F050ED46F1FECD3
:1012E80012F0270E0001756F020E0001766FBBEC3D
:1012F80064F07BEF02F000F07EEC69F00301046F0C
:10130800030E03010419D8B473EF02F00B0ECDEFEE
:1013180004F000F06CEC72F00301306F03013051FF
:101328000301D8A402D00E0E01D00D0E0001EE6FFD
:10133800020E03013019D8A416D1000E0001736FF4
:10134800010E726F98EC72F0E806D8A40CD1000E6A
:101358000001BE6F010EBD6F020E0001BF6FB7EC3A
:101368006DF001D100F08BAA0CD0949A8B9A000EE4
:101378000001716F320E706FE7EC6EF057EC5AF0A7
:1013880002D0949A8B9A03012E692F69B8C1A4F1EF
:101398000F0E0101A417D8B42CD0000E0001756FF0
:1013A800120E746FD4EC6BF074C02EF375C02FF36B
:1013B80003012E2904E103012F29D8B408D0030121
:1013C8002F5142E10A0E03012E5DD8B03DD0000E28
:1013D80003012F6F1E0E2E6F000E0001C76F120E35
:1013E800C66F000E0001C96F1E0EC86F8FEC6FF03C
:1013F8002BD0000E0001756F100E746FD4EC6BF0DB
:1014080074C02EF375C02FF303012E2904E10301E4
:101418002F29D8B408D003012F5116E10A0E030171
:101428002E5DD8B011D0000E03012F6FB40E2E6FB1
:10143800000E0001C76F100EC66F000E0001C96FC5
:10144800B40EC86F8FEC6FF02EC3CDF02FC3CEF063
:10145800000E0001CF6F15EC71F00A0E0301316F19
:1014680020D0030131073FEC67F00009D8A408D069
:10147800F40E0001756FFD0E0001766FBBEC64F091
:10148800760E0001756FFD0E0001766FBBEC64F0FF
:101498002EC3CDF02FC3CEF0000E0001CF6F15EC98
:1014A80071F0090EF5EC6FF00009D8A42DD00301F6
:1014B80031510301D8B428D0D4D700F00A0E030163
:1014C800316F17D0030131073FEC67F00009D8A44A
:1014D80008D0F40E0001756FFD0E0001766FBBECAD
:1014E80064F0760E0001756FFD0E0001766FBBEC9F
:1014F80064F0010EF5EC6FF00009D8A405D00301E3
:1015080031510301D8A4DED70F0ECDEF04F064ECFF
:1015180072F00101A46F0101A4A303D0020E20EC14
:101528006FF0030E0001716FE80E706FE7EC6EF05C
:10153800980E0001756FFC0E0001766FBBEC64F02D
:101548003FEC67F00009D8A408D0F40E0001756FCD
:10155800FD0E0001766FBBEC64F0020E30EC6AF011
:10156800000ECDEF04F00001EE51000AD8B4E8EF08
:1015780000F0010AD8B4EFEF00F0030AD8B4FFEF87
:1015880000F0010AD8B450EF02F0070AD8B47DEF92
:1015980002F0010AD8B4A0EF02F00D0AD8B45DEF4A
:1015A80003F0010AD8B4D1EF04F0030AD8B4EDD59A
:1015B800010AD8B4AED6070AD8B49DD6010AD8B461
:1015C800D1D6030AD8B479D7010AD8B4A0D7C8D7D6
:1015D8000001866F000183510001D8B4D0EF11F0EB
:1015E8009BEC65F0800E00017E5D0C0E00017F59BA
:1015F800D8B0D0EF11F0949A8B8A000E0001716F69
:10160800320E706FE7EC6EF0D0EF11F0000E0001B3
:10161800756F000E746F000E0001776F000E766F05
:10162800000E0001796F000E786F000E00017A6FCE
:1016380038EC5FF00AEF12F0000E0001946F000E14
:10164800936F040E0001945DD8B02AD0000E0001FB
:10165800756F000E746F000E0001776F000E766FC5
:1016680093C078F094C079F0020E00017A6F38ECDC
:101678005FF0000182510001846F856B0001D890F2
:10168800843785370001D8908437853784C070F057
:1016980085C071F00DEC70F00001934B942BD1D7FD
:1016A800030E0001966F956900019551000196118E
:1016B800D8B40AEF12F0000E0001756F000E746FB7
:1016C800000E0001776F000E766F95C078F096C017
:1016D80079F0020E00017A6F38EC5FF00001825158
:1016E8000001846F856B0001D8908437853700012D
:1016F800D8908437853784C070F085C071F00DECC0
:1017080070F000019507D8A09607CED7000E00010B
:10171800986F000E976F040E0001985DD8B02AD01C
:10172800000E0001756F000E746F97C076F098C0B8
:1017380077F0000E0001796F000E786F020E00013D
:101748007A6F38EC5FF0000182510001846F856B7D
:101758000001D890843785370001D89084378537C1
:1017680084C070F085C071F00DEC70F00001974BEB
:10177800982BD1D7030E00019A6F996900019951EE
:1017880000019A11D8B40AEF12F0000E0001756F2B
:10179800000E746F99C076F09AC077F0000E0001C1
:1017A800796F000E786F020E00017A6F38EC5FF0E7
:1017B800000182510001846F856B0001D890843745
:1017C80085370001D8908437853784C070F085C08C
:1017D80071F00DEC70F000019907D8A09A07CED7E8
:1017E800000E0001886F000E876F040E0001885DEF
:1017F800D8B02BD0000E0001756F010E746F000E6B
:101808000001776F000E766F000E0001796F000EF1
:10181800786F020E00017A6F38EC5FF00001825198
:101828000001846F856B0001D890843785370001EB
:10183800D8908437853784C070F085C071F00DEC7E
:1018480070F00001874B882BD0D7030E00018A6FF8
:1018580089690001895100018A11D8B40AEF12F090
:10186800000E0001756F010E746F000E0001776F96
:10187800000E766F000E0001796F000E786F020E71
:1018880000017A6F38EC5FF0000182510001846F2B
:10189800856B0001D890843785370001D89084374C
:1018A800853784C070F085C071F00DEC70F00001D0
:1018B8008907D8A08A07CDD7000E00019C6F000EBB
:1018C8009B6F040E00019C5DD8B02AD0000E000169
:1018D800756F000E746F000E0001776F000E766F43
:1018E8009BC078F09CC079F0010E00017A6F38EC4B
:1018F8005FF0000182510001846F856B0001D89070
:10190800843785370001D8908437853784C070F0D4
:1019180085C071F00DEC70F000019B4B9C2BD1D76A
:10192800030E00019E6F9D6900019D5100019E11EB
:10193800D8B40AEF12F0000E0001756F000E746F34
:10194800000E0001776F000E766F9DC078F09EC084
:1019580079F0010E00017A6F38EC5FF000018251D6
:101968000001846F856B0001D890843785370001AA
:10197800D8908437853784C070F085C071F00DEC3D
:1019880070F000019D07D8A09E07CED7000E000179
:10199800A06F000E9F6F040E0001A05DD8B02AD082
:1019A800000E0001756F000E746F000E0001776F56
:1019B800000E766F9FC078F0A0C079F0030E00018A
:1019C8007A6F38EC5FF0000182510001846F856BFB
:1019D8000001D890843785370001D890843785373F
:1019E80084C070F085C071F00DEC70F000019F4B61
:1019F800A02BD1D7030E0001A26FA1690001A1514C
:101A08000001A211D8B40AEF12F0000E0001756FA0
:101A1800000E746F000E0001776F000E766FA1C084
:101A280078F0A2C079F0030E00017A6F38EC5FF00D
:101A3800000182510001846F856B0001D8908437C2
:101A480085370001D8908437853784C070F085C009
:101A580071F00DEC70F00001A107D8A0A207CED755
:101A6800000E0001BC6F000EBB6F040E0001BC5DD0
:101A7800D8B036D0000E0001756F000E746F000EDE
:101A88000001776F000E766FBBC078F0BCC079F0AC
:101A9800010E00017A6F38EC5FF082C070F000012F
:101AA800716B0DEC70F0000E0001756F000E746F15
:101AB800BBC076F0BCC077F0000E0001796F000E55
:101AC800786F020E00017A6F38EC5FF082C070F018
:101AD8000001716B0DEC70F00001BB4BBC2BC5D73E
:101AE800030E0001BE6FBD690001BD510001BE11AA
:101AF800D8B40AEF12F0000E0001756F000E746F73
:101B0800000E0001776F000E766FBDC078F0BEC082
:101B180079F0010E00017A6F38EC5FF082C070F046
:101B28000001716B0DEC70F0000E0001756F000E76
:101B3800746FBDC076F0BEC077F0000E0001796FFB
:101B4800000E786F020E00017A6F38EC5FF082C0E9
:101B580070F00001716B0DEC70F00001BD07D8A0AA
:101B6800BE07C2D7000E0001A46F000EA36F040EBB
:101B78000001A45DD8B037D0000E0001756F000ECB
:101B8800746F000E0001776F000E766FA3C078F0B7
:101B9800A4C079F0010E00017A6F38EC5FF082C0C2
:101BA80070F00001716B0DEC70F0000E0001756FA4
:101BB800010E746F000E0001776F000E766F000E35
:101BC8000001796F000E786F020E00017A6F38EC11
:101BD8005FF082C070F00001716B0DEC70F00001D5
:101BE800A34BA42BC4D7030E0001A66FA56900015F
:101BF800A5510001A611D8B40AEF12F0000E000199
:101C0800756F000E746F000E0001776F000E766F0F
:101C1800A5C078F0A6C079F0010E00017A6F38EC03
:101C28005FF082C070F00001716B0DEC70F0000E77
:101C38000001756F010E746F000E0001776F000EC2
:101C4800766F000E0001796F000E786F020E0001AA
:101C58007A6F38EC5FF082C070F00001716B0DECA8
:101C680070F00001A507D8A0A607C1D7000E000193
:101C7800A86F000EA76F040E0001A85DD8B02AD087
:101C8800000E0001756F000E746FA7C076F0A8C033
:101C980077F0000E0001796F000E786F010E0001D9
:101CA8007A6F38EC5FF0000182510001846F856B18
:101CB8000001D890843785370001D890843785375C
:101CC80084C070F085C071F00DEC70F00001A74B76
:101CD800A82BD1D7030E0001AA6FA9690001A95149
:101CE8000001AA11D8B492D3000E0001756F000E3E
:101CF800746FA9C076F0AAC077F0000E0001796F62
:101D0800000E786F010E00017A6F38EC5FF0000169
:101D180082510001846F856B0001D8908437853724
:101D28000001D8908437853784C070F085C071F081
:101D38000DEC70F00001A907D8A0AA07CFD7000EB4
:101D48000001C06F000EBF6F040E0001C05DD8B067
:101D580036D0000E0001756F000E746FBFC076F0AC
:101D6800C0C077F0000E0001796F000E786F010E89
:101D780000017A6F38EC5FF082C070F00001716B7F
:101D88000DEC70F0000E0001756F000E746F000E00
:101D98000001776F000E766FBFC078F0C0C079F091
:101DA800020E00017A6F38EC5FF082C070F000011B
:101DB800716B0DEC70F00001BF4BC02BC5D7030E43
:101DC8000001C26FC1690001C1510001C211D8B43C
:101DD8001DD3000E0001756F000E746FC1C076F040
:101DE800C2C077F0000E0001796F000E786F010E07
:101DF80000017A6F38EC5FF082C070F00001716BFF
:101E08000DEC70F0000E0001756F000E746F000E7F
:101E18000001776F000E766FC1C078F0C2C079F00C
:101E2800020E00017A6F38EC5FF082C070F000019A
:101E3800716B0DEC70F00001C107D8A0C207C3D7C1
:101E4800000E0001AC6F000EAB6F040E0001AC5D1C
:101E5800D8B02AD0000E0001756F000E746FABC0A9
:101E680076F0ACC077F0000E0001796F000E786F45
:101E7800030E00017A6F38EC5FF000018251000117
:101E8800846F856B0001D890843785370001D8901E
:101E98008437853784C070F085C071F00DEC70F020
:101EA8000001AB4BAC2BD1D7030E0001AE6FAD696F
:101EB8000001AD510001AE11D8B4A8D2000E000146
:101EC800756F000E746FADC076F0AEC077F0000E7F
:101ED8000001796F000E786F030E00017A6F38ECFD
:101EE8005FF0000182510001846F856B0001D8907A
:101EF800843785370001D8908437853784C070F0DF
:101F080085C071F00DEC70F00001AD07D8A0AE07E8
:101F1800CFD7000E0001B06F000EAF6F040E0001A6
:101F2800B05DD8B037D0000E0001756F000E746F29
:101F3800AFC076F0B0C077F0000E0001796F000EE8
:101F4800786F010E00017A6F38EC5FF082C070F094
:101F58000001716B0DEC70F0000E0001756F010E41
:101F6800746F000E0001776F000E766F000E00018F
:101F7800796F000E786F020E00017A6F38EC5FF00F
:101F880082C070F00001716B0DEC70F00001AF4B76
:101F9800B02BC4D7030E0001B26FB1690001B15173
:101FA8000001B211D8B432D2000E0001756F000ED4
:101FB800746FB1C076F0B2C077F0000E0001796F8F
:101FC800000E786F010E00017A6F38EC5FF082C066
:101FD80070F00001716B0DEC70F0000E0001756F70
:101FE800010E746F000E0001776F000E766F000E01
:101FF8000001796F000E786F020E00017A6F38ECDD
:102008005FF082C070F00001716B0DEC70F00001A0
:10201800B107D8A0B207C2D7000E00018C6F000E1E
:102028008B6F040E00018C5DD8B02BD0000E000120
:10203800756F010E746F000E0001776F000E766FDA
:10204800000E0001796F000E786F010E00017A6FA3
:1020580038EC5FF0000182510001846F856B00014C
:10206800D890843785370001D8908437853784C065
:1020780070F085C071F00DEC70F000018B4B8C2B6B
:10208800D0D7000E00018E6F000E8D6F040E000178
:102098008E5DD8B0BBD1000E0001756F010E746F54
:1020A800000E0001776F000E766F000E0001796F49
:1020B800000E786F010E00017A6F38EC5FF00001B6
:1020C80082510001846F856B0001D8908437853771
:1020D8000001D8908437853784C070F085C071F0CE
:1020E8000DEC70F000018D4B8E2BD0D7000E000147
:1020F800B46F000EB36F040E0001B45DD8B037D0D2
:10210800000E0001756F010E746F000E0001776FED
:10211800000E766F000E0001796F000E786F010EC9
:1021280000017A6F38EC5FF082C070F00001716BCB
:102138000DEC70F0000E0001756F000E746F000E4C
:102148000001776F000E766FB3C078F0B4C079F0F5
:10215800020E00017A6F38EC5FF082C070F0000167
:10216800716B0DEC70F00001B34BB42BC4D7030EA8
:102178000001B66FB5690001B5510001B611D8B4B8
:1021880045D1000E0001756F010E746F000E00013D
:10219800776F000E766F000E0001796F000E786F72
:1021A800010E00017A6F38EC5FF082C070F0000118
:1021B800716B0DEC70F0000E0001756F000E746FFE
:1021C800000E0001776F000E766FB5C078F0B6C0CC
:1021D80079F0020E00017A6F38EC5FF082C070F07F
:1021E8000001716B0DEC70F00001B507D8A0B607BF
:1021F800C2D7000E0001B86F000EB76F040E0001C1
:10220800B85DD8B037D0000E0001756F010E746F3D
:10221800000E0001776F000E766F000E0001796FD7
:10222800000E786F010E00017A6F38EC5FF082C003
:1022380070F00001716B0DEC70F0000E0001756F0D
:10224800000E746FB7C076F0B8C077F0000E0001CA
:10225800796F000E786F020E00017A6F38EC5FF02C
:1022680082C070F00001716B0DEC70F00001B74B8B
:10227800B82BC4D7030E0001BA6FB9690001B95170
:102288000001BA11D8B4C2D0000E0001756F010E5A
:10229800746F000E0001776F000E766F000E00015C
:1022A800796F000E786F010E00017A6F38EC5FF0DD
:1022B80082C070F00001716B0DEC70F0000E00012F
:1022C800756F000E746FB9C076F0BAC077F0000E63
:1022D8000001796F000E786F020E00017A6F38ECFA
:1022E8005FF082C070F00001716B0DEC70F00001BE
:1022F800B907D8A0BA07C2D7000E0001906F000E28
:102308008F6F040E0001905DD8B01ED0000E000142
:10231800756F010E746F000E0001776F000E766FF7
:10232800000E0001796F000E786F030E00017A6FBE
:1023380038EC5FF082C070F00001716B0DEC70F04A
:1023480000018F4B902BDDD7000E0001926F000E1D
:10235800916F040E0001925DD8B058D0000E0001B4
:10236800756F010E746F000E0001776F000E766FA7
:10237800000E0001796F000E786F030E00017A6F6E
:1023880038EC5FF082C070F00001716B0DEC70F0FA
:102398000001914B922BDDD700018651000AD8B479
:1023A8000AEF0BF0010AD8B420EF0BF0030AD8B4F7
:1023B8008AEF0BF0010AD8B4F4EF0BF0070AD8B48F
:1023C80060EF0CF0010AD8B4CAEF0CF0030AD8B4D5
:1023D80034EF0DF0010AD8B4B6EF0DF00F0AD8B4F7
:1023E80045D4010AD8B4ABD4030AD8B429D5010A14
:1023F800D8B48FD5070AD8B40FD6010AD8B476D680
:10240800030AD8B4F6D6010AD8B476D7000E00016C
:10241800756F000E746F000E0001776F000E766FF7
:10242800000E0001796F000E786F000E00017A6FC0
:1024380038EC5FF01200CA0E0101036F000E0101B3
:10244800046F38EF18F0250E01011819D8B40BD015
:10245800C6C0D9FFC7C0DAFF18C1DFFF0001C64BED
:10246800C72B38EF18F0000E0101066F000E056F3C
:10247800000E01010C6F000E0B6FC8C0F6FFC9C03B
:10248800F7FFF86A0800F550C1EC70F0D8A042D008
:10249800000E0101066F000E056F05C17EF006C132
:1024A8007FF0000E0001816F0A0E806F74EC6FF0F0
:1024B8007EC005F17FC006F1D00E0001D86FFF0E77
:1024C8000001D96FC8C0F6FFC9C0F7FFF86A080055
:1024D800F5500001DA6FDB6B0001D8510001DA27F3
:1024E8000001D9510001DB230001DA510101052760
:1024F8000001DB51010106230001C84BC92BC8C0EC
:10250800F6FFC9C0F7FFF86A0800F550C1EC70F093
:10251800D8B0C3D7C8C0F6FFC9C0F7FFF86A08002B
:10252800F5502E0AD8A43BD001010C8D0001C84BF0
:10253800C92B000E0101176F000E166F24D016C1AB
:102548007EF017C17FF0000E0001816F0A0E806FC8
:1025580074EC6FF0C8C0F6FFC9C0F7FFF86A08004E
:10256800F55000017E27000E00017F23D00E0001E8
:102578007E250101166FFF0E00017F210101176FF3
:102588000001C84BC92BC8C0F6FFC9C0F7FFF86ADD
:102598000800F550C1EC70F0D8A012D0D0D7000ECA
:1025A8000101176F000E166F01010C8909D0010196
:1025B8000B8906D001010C8525D001010B8D22D095
:1025C800C8C0F6FFC9C0F7FF0001C84BC92BF86A9D
:1025D8000800F5CF18F101011851000AD8B448EFE6
:1025E80018F0640AD8B40ED0020AD8B4E3D70F0A98
:1025F800D8B408D0050AD8B4DAD7190AD8B4DDD7C0
:1026080038EF18F0070E01010C15D8B485D3010175
:102618000CA905D0000E0101176F060E166F03C135
:10262800D9FF04C1DAFFDECF13F1DECF14F1DDCF1D
:1026380015F1030E01010327000E0423010115AF54
:1026480011D013C170F014C171F015C172F0DDEC36
:102658006FF070C013F171C014F172C015F1030E60
:1026680001010B13000E01010E6F000E0D6F010129
:1026780013510101141101011511D8B49BD0820E18
:102688000001D86FFF0E0001D96F13C1DAF014C131
:10269800DBF015C1DCF016C1DDF0100E06D000012C
:1026A800D890DD33DC33DB33DA33E82EF8D700019A
:1026B800DA510001D82501010D6F000E0001D92162
:1026C80001010E6F01010D07D8A00E070DC17EF0A4
:1026D8000EC17FF0000E0001816F030E806F74EC55
:1026E8006FF07EC00DF17FC00EF10DC176F00EC106
:1026F80077F0000E0001796F0A0E786F3FEC59F001
:1027080076C00DF177C00EF101010EAF04D00101C2
:102718000D07D8A00E0701010D51000872EC2EF02C
:1027280093C007F194C008F195C009F107C184F07E
:1027380008C185F009C186F013C187F014C188F07B
:1027480015C189F05AEC4AF084C007F185C008F138
:1027580086C009F107C170F008C171F009C172F0B3
:10276800000E0001736F800E0001746F3F0E0001B0
:10277800756F71EC55F00001D8B005D001010D0757
:10278800D8A00E0717D007C170F008C171F009C1B1
:1027980072F0000E0001736F200E0001746F410E7D
:1027A8000001756F71EC55F00001D8A003D001014C
:1027B8000D4B0E2B010117BF08D0010117511DE168
:1027C8000D0E0101165DD8B018D013C1A2F014C1C6
:1027D800A3F015C1A4F00101165156EC3DF093C0C9
:1027E800A5F094C0A6F095C0A7F0FFEC3FF0A2C0FA
:1027F80013F1A3C014F1A4C015F101010EBF08D054
:1028080001010E512AE10A0E01010D5DD8B025D053
:10281800010113510101141101011511D8B463D03C
:1028280013C1AEF014C1AFF015C1B0F0AFEC4BF06E
:102838000001AE510001AF110001B0110001B1114A
:10284800D8A451D001010EBF4ED001010E5105E1AF
:10285800020E01010D5DD8A046D007C170F008C175
:1028680071F009C172F0700E0001736F890E0001DA
:10287800746F400E0001756F71EC55F00001D8B00F
:1028880003D00101F70E02D00101F80E0D27FF0E4B
:102898000E2301010D5172EC2EF093C007F194C084
:1028A80008F195C009F113C170F014C171F015C198
:1028B80072F007C173F008C174F009C175F08CECAF
:1028C80046F070C00FF171C010F172C011F173C001
:1028D80012F1000E0101136F000E0101146F000EBA
:1028E8000101156F33D013C1AEF014C1AFF015C19B
:1028F800B0F0AFEC4BF0AEC00FF1AFC010F1B0C00C
:1029080011F1B1C012F113C1AEF014C1AFF015C18D
:10291800B0F00FC178F010C179F011C17AF012C18E
:102928007BF02EEC62F078C0B1F079C0B2F07AC0DA
:10293800B3F072EC6CF0AEC013F1AFC014F1B0C0DC
:1029480015F1000E01010E6F000E0D6F010E010151
:10295800186F0A0E01011819D8B421D001011851B5
:10296800040D650EF324F66EF70EF420F76EF86A80
:10297800000EF8220900F55001010F5D0900F5501D
:10298800010110590900F550010111590900F550CC
:1029980001011259D8A003D00101182BDAD718C1A8
:1029A800D8F00001D96BD8BFD90701011651000131
:1029B800D827010117510001D92301010D51000148
:1029C800D82701010E510001D9230001D851010176
:1029D800055F0001D9510101065B01011651010192
:1029E8001711D8B404D001010507D8A00607030EB3
:1029F80001010B150001D86F000E01010C15000133
:102A0800D96F0001D8510001D911D8B40ED009D01E
:102A1800C6C0D9FFC7C0DAFF200EDF6E0001C64B63
:102A2800C72B01010507D8A00607010106BF07D07B
:102A380001010651EDE101010505D8B0E9D7030E02
:102A480001010B150001D86F000E01010C150001E2
:102A5800D96F0001D8510001D911D8B458D0C6C0D7
:102A6800D9FFC7C0DAFF2D0E50D00001C64BC72BC7
:102A78004ED00FC185F010C186F011C187F012C188
:102A880088F001011851040D650EF324F66EF70E57
:102A9800F420F76EF86A000EF8220900F5CF89F0E5
:102AA8000900F5CF8AF00900F5CF8BF00A00F5CFC1
:102AB8008CF09EEC59F085C007F186C008F187C0FC
:102AC80009F188C00AF107C192F008C193F009C161
:102AD80094F00AC195F00A0E0001966F000E976FE8
:102AE800000E986F000E996F05EC5EF092C007F12A
:102AF80093C008F194C009F195C00AF1010107518A
:102B0800300FC6C0D9FFC7C0DAFFDF6EAED70101EC
:102B1800180701011829D8B40ED0ABD7C6C0D9FF01
:102B2800C7C0DAFF300EDF6E0001C64BC72B0101AC
:102B38000D07D8A00E0701010EBF07D001010E51E5
:102B4800EDE101010D05D8B0E9D7010117BF0CD09F
:102B58000101175105E1090E0101165DD8A004D045
:102B6800080E0101186F02D016C118F101011851A1
:102B78000101165F000E010118BFFF0E0101175B6E
:102B8800010118510101D8B409D0C6C0D9FFC7C086
:102B9800DAFF2E0EDF6E0001C64BC72B010118515C
:102BA80072EC2EF093C000F194C001F195C002F1CF
:102BB80013C187F014C188F015C189F000C184F0F1
:102BC80001C185F002C186F05AEC4AF084C0AEF02B
:102BD80085C0AFF086C0B0F0AFEC4BF0AEC00FF1DF
:102BE800AFC010F1B0C011F1B1C012F17AD00FC16D
:102BF80085F010C186F011C187F012C188F001017B
:102C08001851040D650EF324F66EF70EF420F76ED6
:102C1800F86A000EF8220900F5CF89F00900F5CF0F
:102C28008AF00900F5CF8BF00A00F5CF8CF09EEC06
:102C380059F085C007F186C008F187C009F188C03E
:102C48000AF107C192F008C193F009C194F00AC1D2
:102C580095F00A0E0001966F000E976F000E986FA0
:102C6800000E996F05EC5EF092C007F193C008F171
:102C780094C009F195C00AF101010751300FC6C08F
:102C8800D9FFC7C0DAFFDF6E0001C64BC72B0FC1E3
:102C980092F010C193F011C194F012C195F00101A6
:102CA8001851040D650EF324F66EF70EF420F76E36
:102CB800F86A000EF8220900F5CF96F00900F5CF62
:102CC80097F00900F5CF98F00A00F5CF99F005ECD8
:102CD8005EF092C00FF193C010F194C011F195C04D
:102CE80012F10101180701011829D8B40ED07FD7B5
:102CF800C6C0D9FFC7C0DAFF300EDF6E0001C64B71
:102D0800C72B01011607D8A01707010116510101A9
:102D18001711D8B4A9D1ECD701010BBD34D00101EA
:102D28000BA90ED003C1D9FF04C1DAFFDECF0FF122
:102D3800DECF10F1DECF11F1DECF12F1040E0FD08D
:102D480003C1D9FF04C1DAFFDECF0FF1DDCF10F1E7
:102D58000101000E10BFFF0E116F126F020E01016C
:102D68000327000E0423010112AF32D0030E010124
:102D78000B130101121F111F101F0F6D000E1023DE
:102D88001123122325D001010BA90ED003C1D9FFAD
:102D980004C1DAFFDECF0FF1DECF10F1DECF11F183
:102DA800DECF12F1040E10D003C1D9FF04C1DAFF3F
:102DB800DECFD8F0DDCFD9F0D8C00FF1D9C010F1EF
:102DC8000101116B126B020E01010327000E04238F
:102DD8000101165101011711D8A40DD001010F519D
:102DE800010110110101111101011211D8A403D020
:102DF8000101164B172B010E0101186F0A0E010174
:102E08001819D8B421D001011851040D650EF32406
:102E1800F66EF70EF420F76EF86A000EF822090035
:102E2800F55001010F5D0900F55001011059090025
:102E3800F550010111590900F55001011259D8A0A6
:102E480003D00101182BDAD7800E010118BF7F0EBD
:102E58000001D86F010116510101185D01011751D8
:102E6800800A0001D859D8B003D016C118F118D07B
:102E780001011751800A0001D86F010118510101A1
:102E8800165D800E010118BF7F0E0001D859D8B019
:102E980007D0010118510101166F176B16BF1707EC
:102EA8000101055101010611D8B414D0030E010126
:102EB8000B150001D86F000E01010C150001D96F28
:102EC8000001D8510001D911D8B404D00101050777
:102ED800D8A0060701010CAD1ED001010551010162
:102EE800165D01011751800A0001D86F01010651D2
:102EF800800A0001D859D8B009D001011651010142
:102F0800055F010117510101065B05D0000E0101A3
:102F1800066F000E056F800E010118BF7F0E0001BD
:102F2800D86F010105510101185D01010651800AA0
:102F38000001D859D8B00BD0010118510101055F23
:102F4800000E010118BFFF0E0101065B05D0000E3F
:102F58000101066F000E056F0101055101010611FF
:102F6800D8B413D0C6C0D9FFC7C0DAFF200EDF6EB1
:102F78000001C64BC72B01010507D8A006070101B0
:102F8800055101010611D8A4EDD7030E01010B1557
:102F98000001D86F000E01010C150001D96F000166
:102FA800D8510001D911D8B454D0C6C0D9FFC7C070
:102FB800DAFF2D0EDF6E4AD016C1D8F017C1D9F04E
:102FC8000001D890D837D9370001D890D837D937E9
:102FD800650E0001D825F66EF70ED921F76EF86A4E
:102FE800000EF8220900F5CF89F00900F5CF8AF024
:102FF8000900F5CF8BF00A00F5CF8CF00FC185F0F2
:1030080010C186F011C187F012C188F09EEC59F00A
:1030180085C092F086C093F087C094F088C095F080
:103028000A0E0001966F000E976F000E986F000E43
:10303800996F05EC5EF000019251300F0101186F95
:10304800C6C0D9FFC7C0DAFF18C1DFFF0001C64BF1
:10305800C72B01011607D8A0170701011629ACE1F3
:1030680001011729D8A4A8D7C8C0F6FFC9C0F7FF1F
:103078000001C84BC92BF86A0800F5CF18F1010107
:103088001851D8A427EF12F0C6C0D9FFC7C0DAFF7D
:10309800000EDF6E1200000E0101236F000E010109
:1030A800286F630E0101286501D00ED00101285157
:1030B800010D270EF324D96E020EF420DA6E000EED
:1030C800DF6E0101282BEDD7000E0001826F050E7F
:1030D8000001836F530E0001846FF90E0001856FA4
:1030E800000184518511D8A4000E866F11EC5DF0A3
:1030F80082C02BF183C02CF1000E0101296F3F0E15
:103108000101296501D015D02BC1D9FF2CC1DAFFE7
:1031180001012951010D270EF324E16E020EF4205E
:10312800E26EDFCFE7FF01012B4B2C2B0101292B8E
:10313800E6D7000E0201676F270E0001826F020EAC
:103148000001836FEC0E0001846FFF0E0001856F94
:10315800000184518511D8A4000E866F11EC5DF032
:10316800010E00018225D96E000E00018321DA6E5E
:10317800DF500101236F270E0001826F020E00014C
:10318800836FEC0E0001846FFF0E0001856F000154
:1031980084518511D8A4000E866F11EC5DF00001F2
:1031A800825100018311D8A40AD09F0E0001756FC7
:1031B800FF0E0001766FBBEC64F0000E1200270EC4
:1031C8000001756F020E0001766F7C0E0001776FAB
:1031D80038EC56F00101226F010123510101221937
:1031E800D8B420D0010E0001C66F070E0001C76FCA
:1031F800C00E0001C86FFE0E0001C96F22C1CAF0DF
:103208000001CB6B23C1CCF00001CD6B1FEC12F099
:10321800010E0001756F070E0001766FBBEC64F0BC
:10322800000E1200000E0101246F000E256F000E23
:10323800266F000E276F000E01012D6F000E010191
:103248002E6F000E01012F6F000E01012A6F270E4D
:1032580001012B6F020E01012C6F2BC1D9FF2CC16C
:10326800DAFF01012B4B2C2B3A0EDE18D8B448D0CC
:10327800F4D724C179F025C17AF026C17BF027C1A3
:103288007CF00A0E00017D6F000E7E6F000E7F6FCE
:10329800000E806F98EC63F079C024F17AC025F1B4
:1032A8007BC026F17CC027F12BC1D9FF2CC1DAFFE6
:1032B800DF500101196FD00E0101192501011A6FA4
:1032C80001011B6BFF0E1B2301011C6B01011BBFBE
:1032D8001C0701011C5101011D6F01011A51010157
:1032E800242701011B510101252301011C51010162
:1032F800262301011D510101272301012B4B2C2BF2
:103308002BC1D9FF2CC1DAFF3B0EDE18D8A4B1D7E8
:1033180054EC6EF0CDC01EF1CEC01FF1CFC020F12D
:10332800D0C021F11EC119F11FC11AF10101191FE5
:103338001A1F194B1A2B01012451010119250101EA
:10334800CD6F0101255101011A210101CE6F24C160
:10335800CDF025C1CEF026C1CFF027C1D0F06AEC60
:1033680070F049D02BC1D9FF2CC1DAFF2D0EDE1821
:10337800D8A404D0010E01012A6F3DD02DC184F0DC
:103388002EC185F02FC186F0000E0001876F200E38
:103398000001886F410E0001896F5AEC4AF084C021
:1033A8002DF185C02EF186C02FF12DC1A2F02EC1BE
:1033B800A3F02FC1A4F02BC1D9FF2CC1DAFFDF5035
:1033C8000101196FD00E010119250001786F000164
:1033D800796BFF0E792351EC6DF078C0A5F079C0B8
:1033E800A6F07AC0A7F0FFEC3FF0A2C02DF1A3C071
:1033F8002EF1A4C02FF101012B4B2C2B2BC1D9FF8F
:103408002CC1DAFF2C0EDE18D8A4ACD701012A5142
:103418000101D8B412D02DC193F02EC194F02FC160
:1034280095F0000E0001966F200E0001976FC10EF7
:103438000001986F09EC4BF011D02DC193F02EC10B
:1034480094F02FC195F0000E0001966F200E000138
:10345800976F410E0001986F09EC4BF093C02DF166
:1034680094C02EF195C02FF1000E01012A6F2DC1D5
:10347800BDF02EC1BEF02FC1BFF08CEC51F0BDC025
:10348800C2F1BEC0C3F1000E01012D6F000E010193
:103498002E6F000E01012F6F49D02BC1D9FF2CC10F
:1034A800DAFF2D0EDE18D8A404D0010E01012A6F10
:1034B8003DD02DC184F02EC185F02FC186F0000EBD
:1034C8000001876F200E0001886F410E0001896F8F
:1034D8005AEC4AF084C02DF185C02EF186C02FF138
:1034E8002DC1A2F02EC1A3F02FC1A4F02BC1D9FF8A
:1034F8002CC1DAFFDF500101196FD00E0101192527
:103508000001786F0001796BFF0E792351EC6DF0A3
:1035180078C0A5F079C0A6F07AC0A7F0FFEC3FF01C
:10352800A2C02DF1A3C02EF1A4C02FF101012B4B95
:103538002C2B2BC1D9FF2CC1DAFF2C0EDE18D8A4F6
:10354800ACD701012A510101D8B412D02DC193F092
:103558002EC194F02FC195F0000E0001966F200E39
:103568000001976FC10E0001986F09EC4BF011D064
:103578002DC193F02EC194F02FC195F0000E0001DB
:10358800966F200E0001976F410E0001986F09ECAD
:103598004BF093C02DF194C02EF195C02FF1000E81
:1035A80001012A6F2DC1BDF02EC1BEF02FC1BFF0A1
:1035B8008CEC51F0BDC0C4F1BEC0C5F1000E0101D4
:1035C8002D6F000E01012E6F000E01012F6F49D0E3
:1035D8002BC1D9FF2CC1DAFF2D0EDE18D8A404D0D8
:1035E800010E01012A6F3DD02DC184F02EC185F056
:1035F8002FC186F0000E0001876F200E0001886F32
:10360800410E0001896F5AEC4AF084C02DF185C043
:103618002EF186C02FF12DC1A2F02EC1A3F02FC12B
:10362800A4F02BC1D9FF2CC1DAFFDF500101196FBB
:10363800D00E010119250001786F0001796BFF0E8A
:10364800792351EC6DF078C0A5F079C0A6F07AC066
:10365800A7F0FFEC3FF0A2C02DF1A3C02EF1A4C04B
:103668002FF101012B4B2C2B2BC1D9FF2CC1DAFFD9
:103678002C0EDE18D8A4ACD701012A510101D8B408
:1036880012D02DC193F02EC194F02FC195F0000EE9
:103698000001966F200E0001976FC10E0001986F10
:1036A80009EC4BF011D02DC193F02EC194F02FC12D
:1036B80095F0000E0001966F200E0001976F410EE5
:1036C8000001986F09EC4BF093C02DF194C02EF1D6
:1036D80095C02FF1000E01012A6F2DC1BDF02EC13A
:1036E800BEF02FC1BFF08CEC51F0BDC0C6F1BEC01A
:1036F800C7F1000E01012D6F000E01012E6F000EA3
:1037080001012F6F49D02BC1D9FF2CC1DAFF2D0E33
:10371800DE18D8A404D0010E01012A6F3DD02DC1B6
:1037280084F02EC185F02FC186F0000E0001876F4E
:10373800200E0001886F410E0001896F5AEC4AF093
:1037480084C02DF185C02EF186C02FF12DC1A2F0C5
:103758002EC1A3F02FC1A4F02BC1D9FF2CC1DAFFD1
:10376800DF500101196FD00E010119250001786F92
:103778000001796BFF0E792351EC6DF078C0A5F04C
:1037880079C0A6F07AC0A7F0FFEC3FF0A2C02DF1F7
:10379800A3C02EF1A4C02FF101012B4B2C2B2BC160
:1037A800D9FF2CC1DAFF2C0EDE18D8A4ACD7010142
:1037B8002A510101D8B412D02DC193F02EC194F032
:1037C8002FC195F0000E0001966F200E0001976F33
:1037D800C10E0001986F09EC4BF011D02DC193F088
:1037E8002EC194F02FC195F0000E0001966F200EA7
:1037F8000001976F410E0001986F09EC4BF093C0E0
:103808002DF194C02EF195C02FF1000E01012A6F01
:103818002DC1BDF02EC1BEF02FC1BFF08CEC51F010
:10382800BDC0C8F1BEC0C9F1000E01012D6F000E68
:1038380001012E6F000E01012F6F3DD02DC184F0C4
:103848002EC185F02FC186F0000E0001876F200E73
:103858000001886F410E0001896F5AEC4AF084C05C
:103868002DF185C02EF186C02FF12DC1A2F02EC1F9
:10387800A3F02FC1A4F02BC1D9FF2CC1DAFFDF5070
:103888000101196FD00E010119250001786F00019F
:10389800796BFF0E792351EC6DF078C0A5F079C0F3
:1038A800A6F07AC0A7F0FFEC3FF0A2C02DF1A3C0AC
:1038B8002EF1A4C02FF101012B4B2C2B2BC1D9FFCA
:1038C8002CC1DAFF2C0EDE18D8A4B8D7000E0001E0
:1038D800C76F100EC66F2DC1AEF02EC1AFF02FC14D
:1038E800B0F0AFEC4BF0AEC0C8F0AFC0C9F08FEC91
:1038F8006FF0000E01012D6F000E01012E6F000EFA
:1039080001012F6F3DD02DC184F02EC185F02FC14C
:1039180086F0000E0001876F200E0001886F410EAF
:103928000001896F5AEC4AF084C02DF185C02EF150
:1039380086C02FF12DC1A2F02EC1A3F02FC1A4F093
:103948002BC1D9FF2CC1DAFFDF500101196FD00E4E
:10395800010119250001786F0001796BFF0E7923A9
:1039680051EC6DF078C0A5F079C0A6F07AC0A7F048
:10397800FFEC3FF0A2C02DF1A3C02EF1A4C02FF19F
:1039880001012B4B2C2B2BC1D9FF2CC1DAFF2C0E9C
:10399800DE18D8A4B8D7000E0001C76F120EC66F84
:1039A8002DC1AEF02EC1AFF02FC1B0F0AFEC4BF08F
:1039B800AEC0C8F0AFC0C9F08FEC6FF0000E0101C7
:1039C8002D6F000E01012E6F000E01012F6F3DD0EB
:1039D8002DC184F02EC185F02FC186F0000E0001A4
:1039E800876F200E0001886F410E0001896F5AEC25
:1039F8004AF084C02DF185C02EF186C02FF12DC16B
:103A0800A2F02EC1A3F02FC1A4F02BC1D9FF2CC165
:103A1800DAFFDF500101196FD00E010119250001ED
:103A2800786F0001796BFF0E792351EC6DF078C047
:103A3800A5F079C0A6F07AC0A7F0FFEC3FF0A2C0CD
:103A48002DF1A3C02EF1A4C02FF101012B4B2C2B7B
:103A58002BC1D9FF2CC1DAFF2C0EDE18D8A4B8D799
:103A6800000E0001C76F020EC66F2DC1AEF02EC149
:103A7800AFF02FC1B0F0AFEC4BF0AEC0C8F0AFC0A4
:103A8800C9F08FEC6FF0000E01012D6F000E0101DF
:103A98002E6F000E01012F6F3DD02DC184F02EC175
:103AA80085F02FC186F0000E0001876F200E0001FF
:103AB800886F410E0001896F5AEC4AF084C02DF1DD
:103AC80085C02EF186C02FF12DC1A2F02EC1A3F022
:103AD8002FC1A4F02BC1D9FF2CC1DAFFDF5001019F
:103AE800196FD00E010119250001786F0001796B5B
:103AF800FF0E792351EC6DF078C0A5F079C0A6F0DF
:103B08007AC0A7F0FFEC3FF0A2C02DF1A3C02EF1C0
:103B1800A4C02FF101012B4B2C2B2BC1D9FF2CC199
:103B2800DAFF2C0EDE18D8A4B8D7000E0001BE6F3D
:103B3800140EBD6F2DC1AEF02EC1AFF02FC1B0F085
:103B4800AFEC4BF00001AE510001BF6FB7EC6DF068
:103B5800000E01012D6F000E01012E6F000E0101F4
:103B68002F6F01012B4B2C2BFF0E04EC6FF02BC198
:103B7800D9FF2CC1DAFFDF50D00F25EC70F0270EEB
:103B88000001C66F020E0001C76F310E0001C86F39
:103B9800FC0E0001C96FC2C1AEF0C3C1AFF0B5ECF5
:103BA8005DF0AEC0CAF0AFC0CBF0B0C0CCF0C4C1BD
:103BB800AEF0C5C1AFF0B5EC5DF0AEC0CDF0AFC0B2
:103BC800CEF0B0C0CFF0C6C1AEF0C7C1AFF0B5EC13
:103BD8005DF0AEC0D0F0AFC0D1F0B0C0D2F0C8C177
:103BE800AEF0C9C1AFF0B5EC5DF0AEC0D3F0AFC078
:103BF800D4F0B0C0D5F01FEC12F0270E0001756F9D
:103C0800020E0001766FBBEC64F0270E0001C66F50
:103C1800020E0001C76F4A0E0001C86FFF0E0001B7
:103C2800C96F6CEC72F00101196F010119510001A3
:103C3800CA6FCB6B1FEC12F0270E0001756F020ED6
:103C48000001766FBBEC64F0270E0001C66F020E10
:103C58000001C76F670E0001C86FFC0E0001C96F35
:103C6800000E0001756F100E746FD4EC6BF074C009
:103C7800CAF075C0CBF0000E0001756F120E746F9C
:103C8800D4EC6BF074C0CCF075C0CDF0000E000120
:103C9800756F020E746FD4EC6BF074C0CEF075C003
:103CA800CFF0000E0001736F140E726F98EC72F073
:103CB8000101196F010119510001D06FD16B1FEC7F
:103CC80012F0270E0001756F020E0001766FBBEC33
:103CD80064F0010E1200176E1450D8B4FAEF23F0F6
:103CE80071EC67F0800E0F5C0C0E1058D8B0FAEF2C
:103CF80023F0949A8B8A000E026E320E016E96ECB7
:103D080070F0FAEF23F0000E066E000E056E000E3E
:103D1800086E000E076E000E0A6E000E096E000E89
:103D28000B6E6EEC61F031EF24F0000E256E000E84
:103D3800246E040E255CD8B022D0000E066E000E4C
:103D4800056E000E086E000E076E24C009F025C02F
:103D58000AF0020E0B6E6EEC61F01350156E166AC7
:103D6800D89015361636D8901536163615C001F087
:103D780016C002F029EC71F0244A252ADAD7030E7E
:103D8800276E266826502710D8B431EF24F0000E8D
:103D9800066E000E056E000E086E000E076E26C039
:103DA80009F027C00AF0020E0B6E6EEC61F013509A
:103DB800156E166AD89015361636D89015361636FA
:103DC80015C001F016C002F029EC71F02606D8A043
:103DD8002706D8D7000E296E000E286E040E295C1F
:103DE800D8B022D0000E066E000E056E28C007F06F
:103DF80029C008F0000E0A6E000E096E020E0B6E46
:103E08006EEC61F01350156E166AD890153616369A
:103E1800D8901536163615C001F016C002F029ECF8
:103E280071F0284A292ADAD7030E2B6E2A682A50FD
:103E38002B10D8B431EF24F0000E066E000E056E7C
:103E48002AC007F02BC008F0000E0A6E000E096E9B
:103E5800020E0B6E6EEC61F01350156E166AD89058
:103E680015361636D8901536163615C001F016C018
:103E780002F029EC71F02A06D8A02B06D8D7000E3C
:103E8800196E000E186E040E195CD8B022D0000E00
:103E9800066E010E056E000E086E000E076E000E0F
:103EA8000A6E000E096E020E0B6E6EEC61F0135076
:103EB800156E166AD89015361636D89015361636F9
:103EC80015C001F016C002F029EC71F0184A192A41
:103ED800DAD7030E1B6E1A681A501B10D8B431EFCC
:103EE80024F0000E066E010E056E000E086E000E20
:103EF800076E000E0A6E000E096E020E0B6E6EEC57
:103F080061F01350156E166AD89015361636D8908B
:103F18001536163615C001F016C002F029EC71F0FE
:103F28001A06D8A01B06D8D7000E2D6E000E2C6ED0
:103F3800040E2D5CD8B022D0000E066E000E056E61
:103F4800000E086E000E076E2CC009F02DC00AF096
:103F5800010E0B6E6EEC61F01350156E166AD89058
:103F680015361636D8901536163615C001F016C017
:103F780002F029EC71F02C4A2D2ADAD7030E2F6EA5
:103F88002E682E502F10D8B431EF24F0000E066E94
:103F9800000E056E000E086E000E076E2EC009F0AA
:103FA8002FC00AF0010E0B6E6EEC61F01350156E07
:103FB800166AD89015361636D8901536163615C0A6
:103FC80001F016C002F029EC71F02E06D8A02F06D9
:103FD800D8D7000E316E000E306E040E315CD8B0AA
:103FE80022D0000E066E000E056E000E086E000E42
:103FF800076E30C009F031C00AF0030E0B6E6EEC8C
:1040080061F01350156E166AD89015361636D8908A
:104018001536163615C001F016C002F029EC71F0FD
:10402800304A312ADAD7030E336E326832503310F1
:10403800D8B431EF24F0000E066E000E056E000EA7
:10404800086E000E076E32C009F033C00AF0030E86
:104058000B6E6EEC61F01350156E166AD89015361B
:104068001636D8901536163615C001F016C002F06F
:1040780029EC71F03206D8A03306D8D7000E4D6E61
:10408800000E4C6E040E4D5CD8B02DD0000E066E9E
:10409800000E056E000E086E000E076E4CC009F08B
:1040A8004DC00AF0010E0B6E6EEC61F013C001F00A
:1040B800026A29EC71F0000E066E000E056E4CC007
:1040C80007F04DC008F0000E0A6E000E096E020ED1
:1040D8000B6E6EEC61F013C001F0026A29EC71F00E
:1040E8004C4A4D2ACFD7030E4F6E4E684E504F1094
:1040F800D8B4B3D3000E066E000E056E000E086E1F
:10410800000E076E4EC009F04FC00AF0010E0B6E8C
:104118006EEC61F013C001F0026A29EC71F0000E38
:10412800066E000E056E4EC007F04FC008F0000E78
:104138000A6E000E096E020E0B6E6EEC61F013C073
:1041480001F0026A29EC71F04E06D8A04F06CED7CE
:10415800000E356E000E346E040E355CD8B02DD0CE
:10416800000E066E000E056E000E086E000E076E3D
:1041780034C009F035C00AF0010E0B6E6EEC61F028
:1041880013C001F0026A29EC71F0000E066E010EF0
:10419800056E000E086E000E076E000E0A6E000E09
:1041A800096E020E0B6E6EEC61F013C001F0026A2C
:1041B80029EC71F0344A352ACFD7030E376E3668AA
:1041C80036503710D8B449D3000E066E000E056E6F
:1041D800000E086E000E076E36C009F037C00AF0F0
:1041E800010E0B6E6EEC61F013C001F0026A29EC4F
:1041F80071F0000E066E010E056E000E086E000EC0
:10420800076E000E0A6E000E096E020E0B6E6EEC43
:1042180061F013C001F0026A29EC71F03606D8A0EB
:104228003706CED7000E396E000E386E040E395C94
:10423800D8B022D0000E066E000E056E38C007F00A
:1042480039C008F0000E0A6E000E096E010E0B6EE2
:104258006EEC61F01350156E166AD8901536163646
:10426800D8901536163615C001F016C002F029ECA4
:1042780071F0384A392ADAD7030E3B6E3A683A5059
:104288003B10D8B4EAD2000E066E000E056E3AC096
:1042980007F03BC008F0000E0A6E000E096E010E12
:1042A8000B6E6EEC61F01350156E166AD8901536C9
:1042B8001636D8901536163615C001F016C002F01D
:1042C80029EC71F03A06D8A03B06D9D7000E516EFA
:1042D800000E506E040E515CD8B02DD0000E066E44
:1042E800000E056E50C007F051C008F0000E0A6EAF
:1042F800000E096E010E0B6E6EEC61F013C001F03A
:10430800026A29EC71F0000E066E000E056E000EB2
:10431800086E000E076E50C009F051C00AF0020E78
:104328000B6E6EEC61F013C001F0026A29EC71F0BB
:10433800504A512ACFD7030E536E52685250531029
:10434800D8B48BD2000E066E000E056E52C007F070
:1043580053C008F0000E0A6E000E096E010E0B6EB7
:104368006EEC61F013C001F0026A29EC71F0000EE6
:10437800066E000E056E000E086E000E076E52C027
:1043880009F053C00AF0020E0B6E6EEC61F013C018
:1043980001F0026A29EC71F05206D8A05306CED774
:1043A800000E3D6E000E3C6E040E3D5CD8B022D06F
:1043B800000E066E000E056E3CC007F03DC008F00A
:1043C800000E0A6E000E096E030E0B6E6EEC61F0A5
:1043D8001350156E166AD89015361636D8901536BD
:1043E800163615C001F016C002F029EC71F03C4AEF
:1043F8003D2ADAD7030E3F6E3E683E503F10D8B4D0
:104408002CD2000E066E000E056E3EC007F03FC0AF
:1044180008F0000E0A6E000E096E030E0B6E6EECAD
:1044280061F01350156E166AD89015361636D89066
:104438001536163615C001F016C002F029EC71F0D9
:104448003E06D8A03F06D9D7000E416E000E406E3A
:10445800040E415CD8B02DD0000E066E000E056E1D
:1044680040C007F041C008F0000E0A6E000E096E49
:10447800010E0B6E6EEC61F013C001F0026A29ECBC
:1044880071F0000E066E010E056E000E086E000E2D
:10449800076E000E0A6E000E096E020E0B6E6EECB1
:1044A80061F013C001F0026A29EC71F0404A412A18
:1044B800CFD7030E436E426842504310D8B4CDD1D3
:1044C800000E066E000E056E42C007F043C008F0ED
:1044D800000E0A6E000E096E010E0B6E6EEC61F096
:1044E80013C001F0026A29EC71F0000E066E010E8D
:1044F800056E000E086E000E076E000E0A6E000EA6
:10450800096E020E0B6E6EEC61F013C001F0026AC8
:1045180029EC71F04206D8A04306CED7000E1D6ED6
:10452800000E1C6E040E1D5CD8B022D0000E066E64
:10453800010E056E000E086E000E076E000E0A6E64
:10454800000E096E010E0B6E6EEC61F01350156EC5
:10455800166AD89015361636D8901536163615C000
:1045680001F016C002F029EC71F01C4A1D2ADAD7B6
:10457800000E1F6E000E1E6E040E1F5CD8B06DD1AB
:10458800000E066E010E056E000E086E000E076E18
:10459800000E0A6E000E096E010E0B6E6EEC61F0D5
:1045A8001350156E166AD89015361636D8901536EB
:1045B800163615C001F016C002F029EC71F01E4A3B
:1045C8001F2ADAD7000E456E000E446E040E455CB5
:1045D800D8B02DD0000E066E010E056E000E086EC6
:1045E800000E076E000E0A6E000E096E010E0B6EAD
:1045F8006EEC61F013C001F0026A29EC71F0000E54
:10460800066E000E056E000E086E000E076E44C0A2
:1046180009F045C00AF0020E0B6E6EEC61F013C093
:1046280001F0026A29EC71F0444A452ACFD7030EFB
:10463800476E466846504710D8B40FD1000E066E34
:10464800010E056E000E086E000E076E000E0A6E53
:10465800000E096E010E0B6E6EEC61F013C001F0D6
:10466800026A29EC71F0000E066E000E056E000E4F
:10467800086E000E076E46C009F047C00AF0020E29
:104688000B6E6EEC61F013C001F0026A29EC71F058
:104698004606D8A04706CED7000E496E000E486ED3
:1046A800040E495CD8B02DD0000E066E010E056EC2
:1046B800000E086E000E076E000E0A6E000E096EE0
:1046C800010E0B6E6EEC61F013C001F0026A29EC6A
:1046D80071F0000E066E000E056E48C007F049C066
:1046E80008F0000E0A6E000E096E020E0B6E6EECDC
:1046F80061F013C001F0026A29EC71F0484A492AB6
:10470800CFD7030E4B6E4A684A504B10D8B4A5D089
:10471800000E066E010E056E000E086E000E076E86
:10472800000E0A6E000E096E010E0B6E6EEC61F043
:1047380013C001F0026A29EC71F0000E066E000E3B
:10474800056E4AC007F04BC008F0000E0A6E000E56
:10475800096E020E0B6E6EEC61F013C001F0026A76
:1047680029EC71F04A06D8A04B06CED7000E216E70
:10477800000E206E040E215CD8B018D0000E066E14
:10478800010E056E000E086E000E076E000E0A6E12
:10479800000E096E030E0B6E6EEC61F013C001F093
:1047A800026A29EC71F0204A212AE4D7000E236E10
:1047B800000E226E040E235CD8B04FD0000E066E99
:1047C800010E056E000E086E000E076E000E0A6ED2
:1047D800000E096E030E0B6E6EEC61F013C001F053
:1047E800026A29EC71F0224A232AE4D71750000AFA
:1047F800D8B487EF1EF0010AD8B499EF1EF0030A67
:10480800D8B4EEEF1EF0010AD8B443EF1FF0070A40
:10481800D8B498EF1FF0010AD8B4EDEF1FF0030ADF
:10482800D8B42CD4010AD8B493D40F0AD8B4FAD483
:10483800010AD8B44BD5030AD8B4B2D5010AD8B402
:1048480003D6070AD8B46AD6010AD8B4BBD6030A75
:10485800D8B422D7010AD8B489D7000E066E000E44
:10486800056E000E086E000E076E000E0A6E000E32
:10487800096E000E0B6E6EEC61F01200000186BF2F
:1048880077D30001865104E100018505D8A070D3D3
:10489800000186BF08D0100E0001855D270E0001BB
:1048A8008659D8B065D3000188BF62D3000188510A
:1048B80004E100018705D8A05BD3000188BF08D0B8
:1048C8000001885104E10D0E0001875DD8B050D376
:1048D80085C076F086C077F052EC5EF0E806D8A482
:1048E8001CD100018ABF44D300018A5104E10001B0
:1048F8008905D8A03DD3D89000018735F66E000110
:104908008835F76EF50EF626F70EF722F86A000ED0
:10491800F8220900F5CF8BF00900F5CF8CF0FE0ED8
:1049280000018D6FFF0E00018E6F87C08FF088C069
:1049380090F0D89000018F37903700018D51000119
:104948008F2700018E5100019023F50E00018F255D
:10495800F66EF70E9021F76EF86A000EF82209003D
:10496800F5CF91F00900F5CF92F00001911F921F49
:10497800914B922B00018B510001912700018C5122
:1049880000019223000189510001915D00019251BB
:10499800800A0001936F00018A51800A000193592F
:1049A800D8A0E6D2FF0E000185250001A06FFF0EFA
:1049B800000186210001A16FA0C07EF0A1C07FF098
:1049C800010E0001816F6D0E806F74EC6FF07EC078
:1049D8008BF07FC08CF0A0C076F0A1C077F0000EFD
:1049E8000001796F040E786F3FEC59F000017651A1
:1049F80000018B270001775100018C23A0C076F0BD
:104A0800A1C077F0010E0001796F900E786F3FEC2E
:104A180059F00001765100018B2700017751000100
:104A28008C23A0C076F0A1C077F0000E0001796F4A
:104A3800640E786F3FEC59F00001761F0001771F74
:104A48000001764B772B0001765100018B25000180
:104A5800946F0001775100018C210001956FFE0EC3
:104A680000018B6FFF0E00018C6F87C08DF088C02E
:104A78008EF0D89000018D378E3700018B510001E0
:104A88008D2700018C5100018E23F50E00018D2524
:104A9800F66EF70E8E21F76EF86A000EF8220900FE
:104AA800F5CF8FF00900F5CF90F000019451000187
:104AB8008F270001955100019023000189510001C1
:104AC8008F2700018A5100019023FF0E00018F25D6
:104AD8000001966FFF0E000190210001976F96C0AC
:104AE80079F097C07AF00001000E7ABFFF0E7B6F55
:104AF8007C6F800E00017D6F510E7E6F010E7F6FFF
:104B0800000E806F98EC63F079C085F07AC086F06B
:104B18007BC087F07CC088F0120085C076F086C024
:104B280077F052EC5EF0020AD8A40ED100018ABFD9
:104B38001FD200018A5104E100018905D8A018D2CA
:104B4800D89000018735F66E00018835F76EDB0EC8
:104B5800F626F70EF722F86A000EF8220900F5CFBC
:104B68008BF00900F5CF8CF0FE0E00018D6FFF0E63
:104B780000018E6F87C08FF088C090F0D890000138
:104B88008F37903700018D5100018F2700018E511A
:104B980000019023DB0E00018F25F66EF70E9021A1
:104BA800F76EF86A000EF8220900F5CF91F00900B7
:104BB800F5CF92F00001911F921F914B922B0001AB
:104BC8008B510001912700018C51000192230001B3
:104BD80089510001915D00019251800A0001936F93
:104BE80000018A51800A00019359D8A0C1D1FF0E53
:104BF800000185250001A26FFF0E0001862100013A
:104C0800A36FA2C07EF0A3C07FF0010E0001816FE8
:104C18006D0E806F74EC6FF07EC08BF07FC08CF0EF
:104C2800A2C076F0A3C077F0000E0001796F040EE1
:104C3800786F3FEC59F00001765100018B27000195
:104C4800775100018C23A2C076F0A3C077F0010E43
:104C58000001796F900E786F3FEC59F000017651A2
:104C680000018B270001775100018C23A2C076F048
:104C7800A3C077F0000E0001796F640E786F3FECE7
:104C880059F00001761F0001771F0001764B772B42
:104C98000001765100018B250001986F00017751C2
:104CA80000018C210001996FFE0E00018B6FFF0E31
:104CB80000018C6F87C08DF088C08EF0D8900001FD
:104CC8008D378E3700018B5100018D2700018C51E3
:104CD80000018E23DB0E00018D25F66EF70E8E2166
:104CE800F76EF86A000EF8220900F5CF8FF0090078
:104CF800F5CF90F00001985100018F2700019951DC
:104D0800000190230001895100018F2500019A6F4D
:104D180000018A510001902100019B6F9AC079F02F
:104D28009BC07AF00001000E7ABFFF0E7B6F7C6F8C
:104D3800800E00017D6F510E7E6F010E7F6F000E99
:104D4800806F98EC63F0E0D600018ABF11D10001B2
:104D58008A5104E100018905D8A00AD1D890000140
:104D68008735F66E00018835F76EDB0EF626F70EEE
:104D7800F722F86A000EF8220900F5CF8BF0090037
:104D8800F5CF8CF0FE0E00018D6FFF0E00018E6FC7
:104D980087C08FF088C090F0D89000018F37903787
:104DA80000018D5100018F2700018E5100019023D1
:104DB800DB0E00018F25F66EF70E9021F76EF86A6C
:104DC800000EF8220900F5CF91F00900F5CF92F016
:104DD8000001911F921F914B922B00018B510001F2
:104DE800912700018C510001922300018951000193
:104DF800915D00019251800A0001936F00018A5170
:104E0800800A00019359D8A0B3D0FF0E0001852570
:104E18000001A46FFF0E000186210001A56FA4C048
:104E28007EF0A5C07FF0010E0001816F6D0E806FCE
:104E380074EC6FF07EC08BF07FC08CF0A4C076F06D
:104E4800A5C077F0000E0001796F040E786F3FEC73
:104E580059F00001765100018B27000177510001BC
:104E68008C23A4C076F0A5C077F0010E0001796FFD
:104E7800900E786F3FEC59F00001765100018B27B6
:104E88000001775100018C23A4C076F0A5C077F00B
:104E9800000E0001796F640E786F3FEC59F0000145
:104EA800761F0001771F0001764B772B00017651A2
:104EB80000018B2500019C6F0001775100018C21B6
:104EC80000019D6FFE0E00018B6FFF0E00018C6FBD
:104ED80087C08DF088C08EF0D89000018D378E374E
:104EE80000018B5100018D2700018C5100018E2398
:104EF800DB0E00018D25F66EF70E8E21F76EF86A2F
:104F0800000EF8220900F5CF8FF00900F5CF90F0D8
:104F180000019C5100018F2700019D510001902341
:104F28000001895100018F2700018A510001902357
:104F3800FF0E00018F2500019E6FFF0E00019021DA
:104F480000019F6F9EC079F09FC07AF00001000EAB
:104F58007ABFFF0E7B6F7C6F800E00017D6F510E54
:104F68007E6F010E7F6F000E806F98EC63F0CCD5DA
:104F7800000E0001856F000E866F000E876F000E11
:104F8800886F12000001B8BF03D00001B4AF0AD087
:104F9800000E0001B16F000EB26F000EB36F000E6D
:104FA800B46F1200000E0001756F0C0E746FF7ECF1
:104FB80052F074C0D2F075C0D3F076C0D4F077C088
:104FC800D5F0000E0001756F750E746FF7EC52F096
:104FD80074C0C4F075C0C5F076C0C6F077C0C7F01D
:104FE8000001C4510001B1270001C5510001B223DD
:104FF8000001C6510001B3230001C7510001B423C9
:10500800000E0001CD6F0001C4510001D25D000106
:10501800C5510001D3590001C6510001D4590001FE
:10502800D551800A0001BA6F0001C751800A0001FA
:10503800BA59D8B009D0FF0E0001D227FF0ED323EA
:10504800070ED423000ED5230001B5510001B12568
:105058000001BA6F0001B6510001B2210001BB6F17
:105068000001B7510001B3210001BC6F0001B85124
:105078000001B4210001BD6F0001BA510001D25DE9
:105088000001BB510001D3590001BC510001D459A2
:105098000001D551800A0001BE6F0001BD51800A90
:1050A8000001BE59D8A02DD0F3EC71F0B1C08FF03B
:1050B800B2C090F0B3C091F0B4C092F0B5C093F014
:1050C800B6C094F0B7C095F0B8C096F0000E0001D5
:1050D800976F270E0001986F020E0001996F2FEC51
:1050E80043F000018F510001CD6FD3EC72F0000E38
:1050F8000001B56F000EB66F000EB76F000EB86FE7
:10510800BBD20001D2510001B15D0001D3510001B1
:10511800B2590001D4510001B3590001B451800AB9
:105128000001BA6F0001D551800A0001BA59D8B000
:1051380095D2B1C0BAF0B2C0BBF0B3C0BCF0B4C035
:10514800BDF00001BA1FBB1FBC1FBD1FBA2B000E4C
:10515800BB23BC23BD230001D2510001BA250001A5
:10516800CE6F0001D3510001BB210001CF6F0001B8
:10517800D4510001BC210001D06F0001D5510001BC
:10518800BD210001D16F0F0E0001CE150001D66FB1
:105198000001D76BF3EC71F00001D1BF4FD00001D3
:1051A800D1510001D0110001CF1105E1100E00010D
:1051B800CE5DD8A043D0B1C08FF0B2C090F0B3C0DC
:1051C80091F0B4C092F0D6C0BAF0D7C0BBF0000ED0
:1051D8000001BBBFFF0EBC6FBD6F0001BA1FBB1F34
:1051E800BC1FBD1FBA2B000EBB23BC23BD2300016F
:1051F800CE510001BA250001936F0001CF51000183
:10520800BB210001946F0001D0510001BC210001B5
:10521800956F0001D1510001BD210001966F000E6C
:105228000001976F270E0001986F020E0001996F19
:105238002FEC43F000018F510001CD6F000E0001EB
:10524800B16F000EB26F000EB36F000EB46F0001A5
:10525800D7BF1FD10001D75104E10001D605D8A05E
:1052680018D1D6C0BAF0D7C0BBF0000E0001BBBF42
:10527800FF0EBC6FBD6F0001BA1FBB1FBC1FBD1F57
:10528800BA2B000EBB23BC23BD230001D251000161
:10529800BA2500018F6F0001D3510001BB21000125
:1052A800906F0001D4510001BC210001916F0001F1
:1052B800D5510001BD210001926FD6C093F0D7C02F
:1052C80094F00001000E94BFFF0E956F966F010ECB
:1052D8000001976F270E0001986F020E0001996F69
:1052E8002FEC43F0D3EC72F0C80E0001B125000199
:1052F800746F000E0001B2210001756FD6C0BAF0BC
:10530800D7C0BBF00001BA1FBB1FBA4BBB2B100E96
:105318000001BA250001766F000E0001BB210001D3
:10532800776F010E0001786F070E0001796F12EC9C
:1053380051F0000174510001CD6F0001CD51000101
:10534800D8A406D00001D6510008100F0001CD6F77
:10535800D6C0BAF0D7C0BBF00001BA1FBB1FBA4B0A
:10536800BB2B100E0001BA250001BC6F000E000116
:10537800BB210001BD6F0001BE6B0001BDBFBE07B0
:105388000001BE510001BF6F0001BC510001B127EF
:105398000001BD510001B2230001BE510001B32339
:1053A8000001BF510001B423270E0001706F020EE7
:1053B8000001716F010E0001726F070E0001736F1B
:1053C80067EC68F00001B9510001D8B408D0270E85
:1053D80000018D6F020E00018E6F5CEC71F0000E03
:1053E8000001CA6F0F0E0001CA6501D00FD000017D
:1053F800CA51010D270EF324D96E020EF420DA6E7D
:10540800DF507CEC72F00001CA2BECD7D6C0BAF0A2
:10541800D7C0BBF00001BA1FBB1FBA4BBB2B100E85
:105428000001BA250001BC6F000E0001BB2100017C
:10543800BD6F0001BE6B0001BDBFBE070001BE51BC
:105448000001BF6F0001CE510001BC250001C06FF3
:105458000001CF510001BD210001C16F0001D051F1
:105468000001BE210001C26F0001D1510001BF211E
:105478000001C36F0001C0510001B55F0001C151B7
:105488000001B65B0001C2510001B75B0001C351C6
:1054980010D0D3EC72F00001CE510001B55F0001CD
:1054A800CF510001B65B0001D0510001B75B00018C
:1054B800D1510001B85B59D0C80E0001B1250001D7
:1054C800746F000E0001B2210001756F000E00011B
:1054D800776F100E766F270E0001786F020E0001AD
:1054E800796F12EC51F0000174510001C86F00018E
:1054F800C8510001D8A404D0100E0001CD2702D055
:10550800C8C0CDF00001B905D8A408D0270E000105
:105518008D6F020E00018E6F5CEC71F0000E0001C1
:10552800CB6F0F0E0001CB6501D00FD00001CB511E
:10553800010D270EF324D96E020EF420DA6EDF5027
:105548007CEC72F00001CB2BECD7100E0001B127D8
:10555800000EB223B323B423F00E0001B527FF0ECB
:10556800B623FF0EB723FF0EB8230001B8BF84D0BF
:105578000001B8510001B7110001B6119DE1000109
:10558800B505D8A079D098D7D2C0BAF0D3C0BBF0AF
:105598000001BA1FBB1FBA4BBB2B0001B151000160
:1055A800BA270001B2510001BB23C80E0001BA2579
:1055B8000001746F000E0001BB210001756F000E21
:1055C8000001776F100E766F270E0001786F020EBC
:1055D8000001796F12EC51F0000174510001C96F9C
:1055E8000001C9510001D8A404D0100E0001CD2734
:1055F80002D0C9C0CDF00001B905D8A408D0270E43
:1056080000018D6F020E00018E6F5CEC71F0000ED0
:105618000001CC6F0F0E0001CC6501D00FD0000146
:10562800CC51010D270EF324D96E020EF420DA6E48
:10563800DF507CEC72F00001CC2BECD7100E00018F
:10564800B127000EB223B323B423F00E0001B5270F
:10565800FF0EB623FF0EB723FF0EB8230001B8BF15
:105668000BD00001B8510001B7110001B6118CE14F
:105678000001B505D8B088D70001CD510001B16F40
:10568800B26BB36BB46B12009BC092F09CC093F0EA
:105698009DC094F09EC095F03C0E0001966F000EE0
:1056A800976F000E986F000E996F05EC5EF0000181
:1056B80092510201026F9BC085F09CC086F09DC08C
:1056C80087F09EC088F03C0E0001896F000E8A6F3B
:1056D800000E8B6F000E8C6F9EEC59F085C09BF00E
:1056E80086C09CF087C09DF088C09EF09BC092F059
:1056F8009CC093F09DC094F09EC095F03C0E0001B4
:10570800966F000E976F000E986F000E996F05EC5C
:105718005EF0000192510201016F9BC085F09CC0B0
:1057280086F09DC087F09EC088F03C0E0001896F0E
:10573800000E8A6F000E8B6F000E8C6F9EEC59F076
:1057480085C09BF086C09CF087C09DF088C09EF005
:105758009BC092F09CC093F09DC094F09EC095F0C1
:10576800180E0001966F000E976F000E986F000ECE
:10577800996F05EC5EF0000192510201006F9BC029
:1057880085F09CC086F09DC087F09EC088F0180EFA
:105798000001896F000E8A6F000E8B6F000E8C6FF0
:1057A8009EEC59F085C09BF086C09CF087C09DF0A8
:1057B80088C09EF08B0E00019B2500019B6FFA0E9E
:1057C80000019C2100019C6F0A0E00019D2100012F
:1057D8009D6F000E00019E2100019E6FB10E020117
:1057E800036F070E046F000E056F000E066F07D0DB
:1057F800010E02010327000E042305230623010ED0
:105808000201032500019F6F000E0201042100011F
:10581800A06F000E020105210001A16F000E020118
:1058280006210001A26F030E06D00001D890A23312
:10583800A133A0339F33E82EF8D7010E02010325C8
:105848000001796F000E0201042100017A6F000E39
:105858000201052100017B6F000E020106210001F3
:105868007C6F6D0E00017D6F010E7E6F000E7F6FE5
:10587800000E806F98EC63F000019F5100017925BC
:105888000001A36F0001A05100017A210001A46F5B
:105898000001A15100017B210001A56F0001A25167
:1058A80000017C210001A66F010E02010325000101
:1058B800856F000E020104210001866F000E0201AF
:1058C80005210001876F000E020106210001886F83
:1058D800900E0001896F010E8A6F000E8B6F000E0B
:1058E8008C6F9EEC59F0000185510001A325000141
:1058F800A76F000186510001A4210001A86F0001D3
:1059080087510001A5210001A96F000188510001FC
:10591800A6210001AA6F010E020103250001856F6F
:10592800000E020104210001866F000E020105210C
:105938000001876F000E020106210001886F640EC6
:105948000001896F000E8A6F000E8B6F000E8C6F3E
:105958009EEC59F00001851F0001861F0001871F7A
:105968000001881F0001852B000E0001862300011D
:10597800872300018823000185510001A725000124
:10598800AB6F000186510001A8210001AC6F000136
:1059980087510001A9210001AD6F00018851000164
:1059A800AA210001AE6F1E0E0001AB250001AF6FEA
:1059B800000E0001AC210001B06F000E0001AD2106
:1059C8000001B16F000E0001AE210001B26F0001AD
:1059D8009B510001AF5D00019C510001B0590001CD
:1059E8009D510001B15900019E510001B259D8A042
:1059F800FFD603C29FF004C2A0F005C2A1F006C200
:105A0800A2F0030E06D00001D890A233A133A03330
:105A18009F33E82EF8D703C279F004C27AF005C2A2
:105A28007BF006C27CF06D0E00017D6F010E7E6F6B
:105A3800000E7F6F000E806F98EC63F000019F519D
:105A4800000179250001A36F0001A05100017A210E
:105A58000001A46F0001A15100017B210001A56F85
:105A68000001A25100017C210001A66F03C285F04C
:105A780004C286F005C287F006C288F0900E0001C5
:105A8800896F010E8A6F000E8B6F000E8C6F9EEC73
:105A980059F0000185510001A3250001A76F0001FD
:105AA80086510001A4210001A86F0001875100015F
:105AB800A5210001A96F000188510001A62100015C
:105AC800AA6F03C285F004C286F005C287F006C239
:105AD80088F0640E0001896F000E8A6F000E8B6FCC
:105AE800000E8C6F9EEC59F00001851F0001861F87
:105AF8000001871F0001881F0001852B000E00018F
:105B080086230001872300018823000185510001B5
:105B1800A7250001AB6F000186510001A8210001F3
:105B2800AC6F000187510001A9210001AD6F000190
:105B380088510001AA210001AE6F0001AB5100019C
:105B48009B5F0001AC5100019C5B0001AD5100015D
:105B58009D5B0001AE5100019E5B010E0201076FC3
:105B6800000E086F000E096F000E0A6F07D0010EB5
:105B780002010727000E082309230A2302010A51FC
:105B8800020109110201081149E10C0E0201075D29
:105B9800D8B044D0010E020107250001796F000E2C
:105BA8000201082100017A6F000E0201092100019B
:105BB8007B6F000E02010A2100017C6F6F0E00014D
:105BC8007D6F010E7E6F000E7F6F000E806F98EC68
:105BD80063F079C085F07AC086F07BC087F07CC01E
:105BE80088F00C0E0001896F000E8A6F000E8B6F13
:105BF800000E8C6F9EEC59F000019B510001855DF1
:105C080000019C510001865900019D5100018759EE
:105C180000019E5100018859D8A0A9D707C279F080
:105C280008C27AF009C27BF00AC27CF06F0E00014C
:105C38007D6F010E7E6F000E7F6F000E806F98ECF7
:105C480063F079C085F07AC086F07BC087F07CC0AD
:105C580088F00C0E0001896F000E8A6F000E8B6FA2
:105C6800000E8C6F9EEC59F00001855100019B5F7E
:105C78000001865100019C5B0001875100019D5B7A
:105C88000001885100019E5B020E02010727000EE9
:105C9800082309230A2302010A51020109110201FA
:105CA800081105E10D0E0201075DD8A00ED00C0EFB
:105CB8000201075F000E085B095B0A5B010E020127
:105CC8000327000E0423052306239BC00BF29CC068
:105CD8000CF29DC00DF29EC00EF212000001996FE9
:105CE800000199AF3CD10001996D00019951800ADA
:105CF800120FD8A0B5D0000E0001816F030E806F7F
:105D0800000E0001796F0A0E786F000E0001736FA4
:105D1800640E726F000199510001706F716B70BF52
:105D2800710764EC5DF070C076F071C077F03FECFD
:105D380059F0090E0001762500017E6F000E000162
:105D4800772100017F6F74EC6FF08D0E00017E25C6
:105D5800F66EF70E00017F21F76EF86A000EF82242
:105D68000900F5CF87F00900F5CF88F00A00F5CFD4
:105D780089F0000E0001796F640E786F0001995167
:105D88000001766F776B76BF77073FEC59F0120EFC
:105D98000001762500017E6F000E000177210001C9
:105DA8007F6F000E0001816F030E806F74EC6FF03F
:105DB8008D0E00017E25F66EF70E00017F21F76E2D
:105DC800F86A000EF8220900F5CF84F00900F5CF33
:105DD80085F00A00F5CF86F05AEC4AF084C096F0B8
:105DE80085C097F086C098F096C084F097C085F07B
:105DF80098C086F0000E0001816F030E806F000EC0
:105E08000001736F0A0E726F000199510001706FE3
:105E1800716B70BF710764EC5DF070C07EF071C08B
:105E28007FF074EC6FF08D0E00017E25F66EF70E94
:105E380000017F21F76EF86A000EF8220900F5CFFD
:105E480087F00900F5CF88F00A00F5CF89F05AEC01
:105E58004AF084C093F085C094F086C095F0120093
:105E680000019951800A750FD8A063D0000E000177
:105E7800796F0A0E786F000199510001766F776B80
:105E880076BF77073FEC59F0090E0001762500012F
:105E98007E6F000E0001772100017F6F000E000168
:105EA800816F030E806F74EC6FF08D0E00017E25FC
:105EB800F66EF70E00017F21F76EF86A000EF822E1
:105EC8000900F5CF84F00900F5CF85F00A00F5CF79
:105ED80086F0000E0001816F030E806F000E000136
:105EE800736F0A0E726F000199510001706F716B28
:105EF80070BF710764EC5DF070C07EF071C07FF018
:105F080074EC6FF08D0E00017E25F66EF70E000121
:105F18007F21F76EF86A000EF8220900F5CF87F0A6
:105F28000900F5CF88F00A00F5CF89F05AEC4AF05D
:105F380090D700019951030D8D0EF324F66EF70EDC
:105F4800F420F76EF86A000EF8220900F5CF93F0F6
:105F58000900F5CF94F00A00F5CF95F01200000182
:105F68009951800A120FD8A0B5D0000E0001816F98
:105F7800030E806F000E0001796F0A0E786F000E15
:105F88000001736F640E726F000199510001706F08
:105F9800716B70BF710764EC5DF070C076F071C012
:105FA80077F03FEC59F0090E0001762500017E6F6D
:105FB800000E0001772100017F6F74EC6FF0B40EC2
:105FC80000017E25F66EF70E00017F21F76EF86A54
:105FD800000EF8220900F5CF87F00900F5CF88F008
:105FE8000A00F5CF89F0000E0001796F640E786F12
:105FF800000199510001766F776B76BF77073FEC08
:1060080059F0120E0001762500017E6F000E000186
:10601800772100017F6F000E0001816F030E806FF2
:1060280074EC6FF0B40E00017E25F66EF70E0001D9
:106038007F21F76EF86A000EF8220900F5CF84F088
:106048000900F5CF85F00A00F5CF86F05AEC4AF042
:1060580084C096F085C097F086C098F096C084F00A
:1060680097C085F098C086F0000E0001816F030E7E
:10607800806F000E0001736F0A0E726F0001995154
:106088000001706F716B70BF710764EC5DF070C0D8
:106098007EF071C07FF074EC6FF0B40E00017E25C5
:1060A800F66EF70E00017F21F76EF86A000EF822EF
:1060B8000900F5CF87F00900F5CF88F00A00F5CF81
:1060C80089F05AEC4AF084C093F085C094F086C0F9
:1060D80095F0120000019951800A750FD8A063D07D
:1060E800000E0001796F0A0E786F000199510001C6
:1060F800766F776B76BF77073FEC59F0090E000192
:10610800762500017E6F000E0001772100017F6F68
:10611800000E0001816F030E806F74EC6FF0B40EF7
:1061280000017E25F66EF70E00017F21F76EF86AF2
:10613800000EF8220900F5CF84F00900F5CF85F0AC
:106148000A00F5CF86F0000E0001816F030E806F04
:10615800000E0001736F0A0E726F00019951000161
:10616800706F716B70BF710764EC5DF070C07EF08A
:1061780071C07FF074EC6FF0B40E00017E25F66EEE
:10618800F70E00017F21F76EF86A000EF822090069
:10619800F5CF87F00900F5CF88F00A00F5CF89F030
:1061A8005AEC4AF090D700019951030DB40EF3242C
:1061B800F66EF70EF420F76EF86A000EF822090062
:1061C800F5CF93F00900F5CF94F00A00F5CF95F0DC
:1061D80012000A0E0001EA6F010E0001E96F000EBD
:1061E80000018C6F0F0E00018C6501D01FD00001DB
:1061F8008C51010DF35000017825D96EF45000013F
:106208007921DA6EDF5000017A6F00018C51010D9F
:10621800F35000017625D96EF45000017721DA6E2B
:1062280000017A51DF1A00018C2BDCD7000E000127
:106238008C6F0F0E00018C6501D02BD000018C51A2
:10624800010DF35000017625D96EF4500001772135
:10625800DA6EDF5000017A6F00017A51010D650E88
:10626800F324F66EF20EF420F76EF86A000EF822A8
:1062780000018C51010DF35000017625D96EF450C0
:1062880000017721DA6E0800F5CFDFFF00018C2BC3
:10629800D0D776C070F077C071F05BEC47F00001A2
:1062A800EA05D8B4C5D1000E00018C6F0F0E0001AD
:1062B8008C6501D0BDD100018C5100017A6F7B6BD8
:1062C800010E00017A27000E7B2300017A5100019C
:1062D8007625D96E00017B5100017721DA6EDF50F7
:1062E80000017C6F00018C5100017625D96E0001F8
:1062F800000E00017721DA6EDF5000017C190001E1
:106308008A6F00018C5100017A6F7B6B030E0001CC
:106318007A27000E7B2300017A5100017625D96E79
:1063280000017B5100017721DA6EDF5000017C6F9C
:1063380000018C5100017D6F7E6B020E00017D27EC
:10634800000E7E2300017D5100017625D96E0001E3
:106358007E5100017721DA6EDF5000017C190001BF
:106368008B6F00018A5100018B190001886F0001B1
:106378008C5100017A6F7B6B010E00017A27000EA9
:106388007B2300017A5100017625D96E00017B51EB
:1063980000017721DA6EDF5000017C6F00018C511B
:1063A80000017D6F7E6B020E00017D27000E7E23AB
:1063B80000017D5100017625D96E00017E51000152
:1063C8007721DA6EDF5000017C190001896F7F0E9A
:1063D80000018A6512D01B0E8AC07AF000017B6B1F
:1063E800D89000017A377B3700017A190001826F53
:1063F80000017B510001836F09D0D89000018A35D4
:106408000001826F0001836B0001833782C08AF02C
:106418007F0E0001896512D01B0E89C07AF0000139
:106428007B6BD89000017A377B3700017A1900011D
:10643800846F00017B510001856F09D0D89000015D
:1064480089350001846F0001856B0001853784C0A0
:1064580089F07F0E00018B6512D01B0E8BC07AF07D
:1064680000017B6BD89000017A377B3700017A19DD
:106478000001866F00017B510001876F09D0D89019
:1064880000018B350001866F0001876B000187379B
:1064980086C08BF000018C5100017625D96E000171
:1064A800000E00017721DA6E00018C51000176257B
:1064B800E16E0001000E00017721E26EE750000155
:1064C800881900018A19DF6E00018C5100017A6F6A
:1064D8007B6B010E00017A27000E7B2300017A51A5
:1064E80000017625D96E00017B5100017721DA6E13
:1064F80000018C5100017C6F7D6B010E00017C272F
:10650800000E7D2300017C5100017625E16E00011B
:106518007D5100017721E26EE750000188190001E2
:106528008919DF6E00018C5100017A6F7B6B020EB6
:1065380000017A27000E7B2300017A51000176259D
:10654800D96E00017B5100017721DA6E00018C5170
:1065580000017C6F7D6B020E00017C27000E7D23FD
:1065680000017C5100017625E16E00017D5100019A
:106578007721E26EE7500001881900018B19DF6E60
:1065880000018C5100017A6F7B6B030E00017A27A2
:10659800000E7B2300017A5100017625D96E000197
:1065A8007B5100017721DA6E00018C5100017C6F6C
:1065B8007D6B020E00017C27000E7D2300017C51BB
:1065C80000017625E16E00017D5100017721E26E20
:1065D800E75000017E6F00018C5100017F6F806BD6
:1065E800010E00017F27000E802300017F5100016A
:1065F8007625E16E0001805100017721E26EE750B7
:106608000001816F00018C5100017625E16E0001C7
:10661800000E00017721E26EE750000181190001A8
:106628007E1900018819DF6E040E00018C273ED602
:1066380078C070F079C071F02FEC37F0000E0001CF
:106648008C6F0F0E00018C6501D01FD000018C519A
:10665800010DF35000017825D96EF450000179211D
:10666800DA6EDF5000017A6F00018C51010DF35092
:1066780000017625D96EF45000017721DA6E000109
:106688007A51DF1A00018C2BDCD70001EA070001E0
:10669800EA51D8B41200CAD5000E0101386FC80EED
:1066A800376F000E0001756FC00E746FD4EC6BF07D
:1066B80074C021F175C022F14AD0000E0001756F37
:1066C8000C0E746FF7EC52F074C027F175C028F106
:1066D80076C029F177C02AF127C100F128C101F15C
:1066E80029C102F12AC103F137C174F038C175F02C
:1066F800010E0001766F070E0001776F000E000192
:10670800796F640E786FF4EC64F074C004F175C0AE
:1067180005F178EC35F000C12BF101C12CF102C173
:106728002DF103C12EF1000E0001D66F0C0ED56FAE
:106738002BC1D7F02CC1D8F02DC1D9F02EC1DAF079
:1067480083EC5FF0640E01013727000E3823640ED6
:10675800010137250101116F000E010138210101E6
:10676800126F010111510101215D01011251010155
:106778002259D8B0A2D7000E0001756F0C0E746FA5
:10678800F7EC52F074C027F175C028F176C029F1F2
:1067980077C02AF127C100F128C101F129C102F10E
:1067A8002AC103F137C174F038C175F0010E000138
:1067B800766F070E0001776F37C111F138C112F1FA
:1067C8000101111F121F114B122B0101215101014F
:1067D80011250001786F01012251010112210001E8
:1067E800796FF4EC64F074C004F175C005F178ECCD
:1067F80035F000C12BF101C12CF102C12DF103C10B
:106808002EF1000E0001D66F0C0ED56F2BC1D7F0FC
:106818002CC1D8F02DC1D9F02EC1DAF083EC5FF08D
:10682800000E0001756F0C0E746FF7EC52F074C017
:1068380027F175C028F176C029F177C02AF127C160
:1068480000F128C101F129C102F12AC103F10FC1E8
:1068580004F110C105F178EC35F000C12BF101C14C
:106868002CF102C12DF103C12EF1000E0001D66FEB
:106878000C0ED56F2BC1D7F02CC1D8F02DC1D9F093
:106888002EC1DAF083EC5FF0000E0001C76FC00E76
:10689800C66F000E0001C96FC80EC86F8FEC6FF08D
:1068A800000E0001756FC00E746FD4EC6BF0000120
:1068B80074510101116F000175510101126F01013D
:1068C800136B0101146B380E010111250101236FAF
:1068D800FF0E010112210101246FFF0E0101132196
:1068E8000101256FFF0E010114210101266F000E21
:1068F8000001756F750E746FF7EC52F074C02FF1CC
:1069080075C030F176C031F177C032F1000E000168
:10691800756F0C0E746FF7EC52F074C033F175C0DC
:1069280034F176C035F177C036F1000E01011D6FE4
:10693800000E1E6F000E1F6F000E206F01013351F5
:1069480001012F1925E1010134510101301920E11C
:1069580001013551010131191BE1010136510101D4
:106968003219D8A415D0FF0E0101232501011D6F8E
:10697800FF0E0101242101011E6F070E01012521CF
:1069880001011F6F000E010126210101206F120075
:1069980001012F510101335D0101305101013459C9
:1069A80001013151010135590101325101013659B5
:1069B800D8B057D02FC111F130C112F131C113F144
:1069C80032C114F10101111F121F131F141F112BC3
:1069D800000E122313231423010133510101112541
:1069E8000101156F01013451010112210101166FD6
:1069F80001013551010113210101176F01013651C0
:106A0800010114210101186F01012351010115250C
:106A18000101196F010124510101162101011A6FA9
:106A2800010125510101172101011B6F01012651A7
:106A38000101182101011C6FFF0E01011925010137
:106A48001D6FFF0E01011A2101011E6F070E0101C2
:106A58001B2101011F6F000E01011C210101206F84
:106A680012002FC111F130C112F131C113F132C13D
:106A780014F10101111F121F131F141F112B000EF7
:106A8800122313231423010133510101112501019C
:106A9800156F01013451010112210101166F010125
:106AA8003551010113210101176F0101365101010F
:106AB80014210101186F010123510101152501015C
:106AC8001D6F010124510101162101011E6F0101F1
:106AD80025510101172101011F6F010126510101F3
:106AE80018210101206F1200AB0E2BEC72F0010E81
:106AF8000001746F010E3BEC71F0000E0001756F20
:106B0800750E746FF7EC52F074C00BF175C00CF190
:106B180076C00DF177C00EF1010103510AE10101C0
:106B28000029FF0E01010159070E01010259D8A0E1
:106B380009D0000E0101006F000E016F000E026FF8
:106B4800000E036F010100510009D8A45DD00101B6
:106B5800005101010B5D0101015101010C590101B5
:106B6800025101010D590101035101010E59D8A02B
:106B780041D0000E010100250001DB6F010E01016B
:106B880001210001DC6F000E010102210001DD6F0F
:106B9800000E010103210001DE6F0001DB5101013C
:106BA8000B5D0001DC5101010C590001DD510101AF
:106BB8000D590001DE5101010E59D8B01BD0000E4D
:106BC8000001D66F750ED56F000E0101002500017A
:106BD800D76F010E010101210001D86F000E0101DC
:106BE80002210001D96F000E010103210001DA6FB3
:106BF80083EC5FF000C179F001C17AF002C17BF04B
:106C080003C17CF07EEC58F001010051000801013D
:106C1800066F03D1060E2BEC72F0929A899A00C186
:106C280007F101C108F102C109F103C10AF1A20E7D
:106C3800DCEC6AF001010951DCEC6AF00101085151
:106C4800DCEC6AF001010751DCEC6AF004C1F6FFE4
:106C580005C1F7FF000EF86E0F0EF76403D00800A9
:106C6800F55005D0F6CFE9FFF7CFEAFFEF502CEC4F
:106C780065F016D00101060717D004C1F6FF05C15B
:106C8800F7FF000EF86E0F0EF76403D00800F550FA
:106C980005D0F6CFE9FFF7CFEAFFEF502CEC65F00F
:106CA8000101044B052BE6D7010E01010027000E58
:106CB800012302230323010106510101D8B414D092
:106CC80004C1F6FF05C1F7FF000EF86E0F0EF7645A
:106CD80003D00800F55005D0F6CFE9FFF7CFEAFF5B
:106CE800EF500009D8A4C9D7898A000E0001716F36
:106CF8000F0E706FE7EC6EF00FD0DD0E0001756FB0
:106D0800FF0E0001766FBBEC64F0000E0001716F9E
:106D1800050E706FE7EC6EF0050EFCEC6BF00001F1
:106D280073B1EBD7010106510101D8A476D0010156
:106D380003510AE101010029FF0E01010159070E63
:106D480001010259D8A009D0000E0101006F000E00
:106D5800016F000E026F000E036F01010051010167
:106D68000B5D0101015101010C59010102510101A1
:106D78000D590101035101010E59D8A044D0000E4C
:106D8800010100250001DB6F010E01010121000155
:106D9800DC6F000E010102210001DD6F000E010110
:106DA80003210001DE6F0001DB5101010B5D0001D1
:106DB800DC5101010C590001DD5101010D5900019F
:106DC800DE5101010E59D8B01ED0000E0001D66F59
:106DD800750ED56F000E010100250001D76F010E59
:106DE800010101210001D86F000E010102210001FB
:106DF800D96F000E010103210001DA6F83EC5FF007
:106E0800010E0101D36F00C179F001C17AF002C10E
:106E18007BF003C17CF07EEC58F004C1F6FF05C19D
:106E2800F7FF000EF86E0F0EF76403D00800F55058
:106E380005D0F6CFE9FFF7CFEAFFEF500009D8A455
:106E4800E9D6040000C100F101C101F102C102F15B
:106E580003C103F11200000120EE0DF07051D92694
:106E68007151DA22DF500001726F00017251010D79
:106E7800650EF324F66EF20EF420F76EF86A000E33
:106E8800F8220800F5CF73F070C0D9FF71C0DAFF9F
:106E980000017351DF1A000120EE0EF07051D9265F
:106EA8007151DA22DF500001726F00017251010D39
:106EB800650EF324F66EF20EF420F76EF86A000EF3
:106EC800F8220800F5CF73F0000120EE01F07051B0
:106ED800D9267151DA2200017351DF1A000120EE20
:106EE8000FF07051D9267151DA22DF500001726F0C
:106EF80000017251010D650EF324F66EF20EF420B6
:106F0800F76EF86A000EF8220800F5CF73F000015A
:106F180020EE02F07051D9267151DA220001735126
:106F2800DF1A000120EE0CF07051D9267151DA22D7
:106F3800DF500001726F00017251010D650EF324DC
:106F4800F66EF20EF420F76EF86A000EF8220800CA
:106F5800F5CF73F0000120EE03F07051D92671517E
:106F6800DA2200017351DF1A70C0D9FF71C0DAFF4D
:106F78000001E951DF1A7F0E0001E96512D01B0EEE
:106F8800E9C072F00001736BD89000017237733753
:106F9800000172190001746F000173510001756FCF
:106FA80009D0D8900001E9350001746F0001756BB4
:106FB8000001753774C0E9F070C0D9FF71C0DAFFFD
:106FC800DF500001726F000120EE04F07051D926E5
:106FD8007151DA2200017251DF1A000120EE01F02E
:106FE8007051D9267151DA22DF500001726F000109
:106FF80020EE05F07051D9267151DA220001725144
:10700800DF1A000120EE02F07051D9267151DA2200
:10701800DF500001726F000120EE06F07051D92692
:107028007151DA2200017251DF1A000120EE03F0DB
:107038007051D9267151DA22DF500001726F0001B8
:1070480020EE07F07051D9267151DA2200017251F1
:10705800DF1A000120EE04F07051D9267151DA22AE
:10706800DF500001726F000120EE08F07051D92640
:107078007151DA2200017251DF1A000120EE05F089
:107088007051D9267151DA22DF500001726F000168
:1070980020EE09F07051D9267151DA22000172519F
:1070A800DF1A000120EE06F07051D9267151DA225C
:1070B800DF500001726F000120EE0AF07051D926EE
:1070C8007151DA2200017251DF1A000120EE07F037
:1070D8007051D9267151DA22DF500001726F000118
:1070E80020EE0BF07051D9267151DA22000172514D
:1070F800DF1A000120EE08F07051D9267151DA220A
:10710800DF500001726F000120EE0CF07051D9269B
:107118007151DA2200017251DF1A000120EE09F0E4
:107128007051D9267151DA22DF500001726F0001C7
:1071380020EE0DF07051D9267151DA2200017251FA
:10714800DF1A000120EE0AF07051D9267151DA22B7
:10715800DF500001726F000120EE0EF07051D92649
:107168007151DA2200017251DF1A000120EE0BF092
:107178007051D9267151DA22DF500001726F000177
:1071880020EE0FF07051D9267151DA2200017251A8
:10719800DF1A120001011CBF03D0010120AF02D089
:1071A800000E1200000E0001716F0A0E706FE7ECFE
:1071B8006EF049EC72F005EC68F07B0E0001716F1F
:1071C800F80E0001726F000171517211D8A4000EFF
:1071D800736FF5EC68F0710E0001716FFB0E000122
:1071E800726F000171517211D8A4000E736FF5EC23
:1071F80068F0010120BFEBD00101205101011F11EE
:1072080001011E1104E101011D05D8A0E0D01A0EEC
:107218000001716FFB0E0001726F00017151721154
:10722800D8A4000E736FF5EC68F0270E0001C66F46
:10723800020E0001C76F800E0001C86FFC0E00012E
:10724800C96FC90E01011D250001CA6F000E010199
:107258001E210001CB6F000E01011F210001CC6F20
:10726800000E010120210001CD6F1FEC12F0270E46
:107278000001716F020E0001726F000171517211ED
:10728800D8A4200E736FF5EC68F0E80E0001716F5A
:10729800FB0E0001726F000171517211D8A4000E2B
:1072A800736FF5EC68F0AD0E0001716FFA0E000116
:1072B800726F000171517211D8A4000E736FF5EC52
:1072C80068F0010121510101D8A44DD019C1B1F0D4
:1072D8001AC1B2F01BC1B3F01CC1B4F01DC1B5F0A6
:1072E8001EC1B6F01FC1B7F020C1B8F0010E0001F1
:1072F800B96FC6EC27F00001B11F0001B21F0001F1
:10730800B31F0001B41F0001B12B000E0001B2230E
:107318000001B3230001B42301011D510001B1256F
:107328000101226F01011E510001B2210101236FE9
:1073380001011F510001B3210101246F01012051F6
:107348000001B4210101256F010122510101192712
:107358000101235101011A230101245101011B23B9
:107368000101255123D019C1B1F01AC1B2F01BC1D6
:10737800B3F01CC1B4F01DC1B5F01EC1B6F01FC1F9
:10738800B7F020C1B8F0010E0001B96FC6EC27F0C4
:1073980001011D510101192701011E5101011A2383
:1073A80001011F5101011B230101205101011C236F
:1073B800B70E0001716FFB0E0001726F0001715171
:1073C8007211D8A4000E736FF5EC68F02FD0270E59
:1073D8000001C66F020E0001C76FE00E0001C86F02
:1073E800FC0E0001C96F000E0001CB6F0A0ECA6FB8
:1073F8001FEC12F0270E0001716F020E0001726F70
:10740800000171517211D8A4200E736FF5EC68F069
:10741800CB0E0001716FFE0E0001726F00017151F9
:107428007211D8A4000E736FF5EC68F0000E00011D
:10743800716F010E706FE7EC6EF00D0E7CEC72F060
:107448000A0E7CEC72F00D0E7CEC72F00A0E7CECED
:1074580072F049EC72F005EC68F0640E00018D6F73
:10746800000E8E6F000E8F6F000E906F110E0001D0
:10747800916FFF0E0001926F000191519211D8A4F3
:10748800000E936FB7EC45F00009D8B411D0000E88
:107498000001D66F080ED56F19C1D7F01AC1D8F000
:1074A8001BC1D9F01CC1DAF083EC5FF0020E1200A8
:1074B80080A402D0030E1200040E12007EEC69F0C4
:1074C8000101666F54EC6EF0CDC067F1CEC068F173
:1074D800CFC069F1D0C06AF1000E0001756F640E6B
:1074E800746FF7EC52F074C05EF175C05FF176C04E
:1074F80060F177C061F1000E0001756F680E746F5E
:10750800F7EC52F074C062F175C063F176C064F1B3
:1075180077C065F1270E0001C66F020E0001C76F24
:10752800C80E0001C86FFC0E0001C96F67C1CAF020
:1075380068C1CBF069C1CCF06AC1CDF05EC1CEF0B4
:107548005FC1CFF060C1D0F061C1D1F062C1D2F0AB
:1075580063C1D3F064C1D4F065C1D5F066C1D6F07B
:107568000001D76B1FEC12F0270E0001756F020E99
:107578000001766FBBEC64F0030E01016619D8A414
:1075880002D0030E1200040E01016619D8A402D01D
:10759800040E1200CA0E0101685D9A0E01016959B4
:1075A8003B0E01016A59D8B031D09BEC65F0FC0E56
:1075B80000017E5D080E00017F59D8B002D0000E90
:1075C8001200B30E0001756FFF0E0001766FBBEC61
:1075D80064F00A0E01015D6F0AD001015D07F40E27
:1075E8000001756FFD0E0001766FBBEC64F03FEC97
:1075F80067F00009D8A405D001015D510101D8A4A4
:10760800ECD7010E8AEC72F0010E1200020E010195
:107618006619D8A44AD09BEC65F0FC0E00017E5D8B
:10762800080E00017F59D8B002D0000E12000101E7
:1076380067510101625D010168510101635901014E
:1076480069510101645901016A5101016559D8A0C4
:1076580005D06CEC72F00009D8A427D06D0E00019B
:10766800756FFF0E0001766FBBEC64F05DEC63F0A4
:107678006CEC72F0020AD8A416D0000E0001736FE9
:10768800010E726F98EC72F0E806D8A40CD0000EC8
:107698000001BE6F010EBD6F020E0001BF6FB7EC97
:1076A8006DF0000E1200010E12000101B8AD3ED0BF
:1076B8009BEC65F0FC0E00017E5D080E00017F5911
:1076C800D8B002D0000E12003C0E01016225010163
:1076D800596F000E0101632101015A6F000E01016B
:1076E800642101015B6F000E0101652101015C6FDE
:1076F800010167510101595D0101685101015A59A0
:107708000101695101015B5901016A5101015C598B
:10771800D8B00CD00101B89D660E0001756FFF0E40
:107728000001766FBBEC64F0010E12000101675195
:1077380001015E5D0101685101015F590101695153
:107748000101605901016A5101016159D8B016D08F
:107758009BEC65F0FC0E00017E5D080E00017F5970
:10776800D8B002D0000E1200800E0001756FFF0E17
:107778000001766FBBEC64F0010E12000101D30525
:10778800D8A416D09BEC65F0FC0E00017E5D080EB7
:1077980000017F59D8B002D0000E12005F0E000120
:1077A800756FFF0E0001766FBBEC64F0010E1200DE
:1077B800D90E0001756FFF0E0001766FBBEC64F007
:1077C800000E1200B3C09BF0B4C09CF0B5C09DF091
:1077D800B6C09EF048EC2BF0100E00019B6F170E00
:1077E80000019C6F020E00019D6FD20E2DEC61F01E
:1077F800010E00019B6F02C270F00001716B000E58
:107808000001736F0A0E726F64EC5DF070C0B7F020
:1078180071C0B8F00F0E0001B71702C276F0000170
:10782800776B000E0001796F0A0E786F3FEC59F004
:1078380000017639F00BF00B0001B71100019C6FC5
:10784800020E00019D6FD20E2DEC61F0020E0001B8
:107858009B6F01C270F00001716B000E0001736F25
:107868000A0E726F64EC5DF070C0B7F071C0B8F0CA
:107878000F0E0001B71701C276F00001776B000EFA
:107888000001796F0A0E786F3FEC59F000017639E4
:10789800F00BF00B0001B71100019C6F020E000104
:1078A8009D6FD20E2DEC61F0030E00019B6F00C29C
:1078B80070F00001716B000E0001736F0A0E726F99
:1078C80064EC5DF070C0B7F071C0B8F00F0E000145
:1078D800B71700C276F00001776B000E0001796FD0
:1078E8000A0E786F3FEC59F000017639F00BF00B77
:1078F8000001B71100019C6F020E00019D6FD20EAE
:107908002DEC61F0040E00019B6F0BC292F00CC2CB
:1079180093F00DC294F00EC295F00A0E0001966F16
:10792800000E976F000E986F000E996F05EC5EF0D1
:1079380092C0B7F093C0B8F094C0B9F095C0BAF04F
:107948000F0E0001B7170BC285F00CC286F00DC2EE
:1079580087F00EC288F00A0E0001896F000E8A6F48
:10796800000E8B6F000E8C6F9EEC59F0000185396C
:10797800F00BF00B0001B71100019C6F020E000123
:107988009D6FD20E2DEC61F0050E00019B6F07C2B2
:1079980092F008C293F009C294F00AC295F00A0E58
:1079A8000001966F000E976F000E986F000E996F8A
:1079B80005EC5EF092C0B7F093C0B8F094C0B9F08F
:1079C80095C0BAF00F0E0001B71707C285F008C2BC
:1079D80086F009C287F00AC288F00A0E0001896F92
:1079E800000E8A6F000E8B6F000E8C6F9EEC59F0A4
:1079F80000018539F00BF00B0001B71100019C6FF5
:107A0800020E00019D6FD20E2DEC61F0D00E020126
:107A1800035F070E045B000E055B000E065B060E97
:107A280000019B6F03C292F004C293F005C294F068
:107A380006C295F00A0E0001966F000E976F000EB1
:107A4800986F000E996F05EC5EF092C0B7F093C086
:107A5800B8F094C0B9F095C0BAF00F0E0001B7178E
:107A680003C285F004C286F005C287F006C288F01A
:107A78000A0E0001896F000E8A6F000E8B6F000ED0
:107A88008C6F9EEC59F000018539F00BF00B00016A
:107A9800B71100019C6F020E00019D6FD20E2DECF4
:107AA80061F0120000019C6F6D0E00019C65C3D04F
:107AB800000E0001816F030E806F000E0001796FC8
:107AC8000A0E786F000E0001736F640E726F9CC00F
:107AD80070F00001716B64EC5DF070C076F071C0FD
:107AE80077F03FEC59F0090E0001762500017E6F12
:107AF800000E0001772100017F6F74EC6FF08D0E8E
:107B080000017E25F66EF70E00017F21F76EF86AF8
:107B1800000EF8220900F5CF87F00900F5CF88F0AC
:107B28000A00F5CF89F0000E0001796F640E786FB6
:107B38009CC076F00001776B3FEC59F0120E000103
:107B4800762500017E6F000E0001772100017F6F0E
:107B5800000E0001816F030E806F74EC6FF08D0EC4
:107B680000017E25F66EF70E00017F21F76EF86A98
:107B7800000EF8220900F5CF84F00900F5CF85F052
:107B88000A00F5CF86F05AEC4AF084C099F085C017
:107B98009AF086C09BF0000E0001816F030E806F83
:107BA800000E0001736F0A0E726F9CC070F0000126
:107BB800716B64EC5DF070C07EF071C07FF074ECA6
:107BC8006FF08D0E00017E25F66EF70E00017F2105
:107BD800F76EF86A000EF8220900F5CF87F0090061
:107BE800F5CF88F00A00F5CF89F099C084F09AC0E3
:107BF80085F09BC086F05AEC4AF084C096F085C0A8
:107C080097F086C098F096C084F097C085F098C029
:107C180086F0000E0001876F000E0001886F3F0E8E
:107C28000001896F5AEC4AF084C093F085C094F043
:107C380086C095F012000A0E00019C6574D0000EF3
:107C48000001816F030E806F000E0001736F0A0E32
:107C5800726F9CC070F00001716B64EC5DF070C0D5
:107C68007EF071C07FF074EC6FF08D0E00017E2500
:107C7800F66EF70E00017F21F76EF86A000EF82203
:107C88000900F5CF87F00900F5CF88F00A00F5CF95
:107C980089F0000E0001796F0A0E786F9CC076F0AB
:107CA8000001776B3FEC59F0090E000176250001C1
:107CB8007E6F000E0001772100017F6F000E00012A
:107CC800816F030E806F74EC6FF08D0E00017E25BE
:107CD800F66EF70E00017F21F76EF86A000EF822A3
:107CE8000900F5CF84F00900F5CF85F00A00F5CF3B
:107CF80086F05AEC4AF084C099F085C09AF086C0A4
:107D08009BF099C084F09AC085F09BC086F0000E65
:107D18000001876F000E0001886F3F0E0001896F18
:107D28005AEC4AF081D700019C51030D8D0EF324C3
:107D3800F66EF70EF420F76EF86A000EF8220900C6
:107D4800F5CF84F00900F5CF85F00A00F5CF86F06D
:107D5800000E0001876F000E0001886F3F0E0001C2
:107D6800896F5AEC4AF084C093F085C094F086C0BD
:107D780095F01200000E0001736F500E726F98ECB0
:107D880072F00101B819D8B409D0000E0001BE6F15
:107D9800500EBD6FB8C1BFF0B7EC6DF0000E00011A
:107DA800736F510E726F98EC72F00101B919D8B463
:107DB80009D0000E0001BE6F510EBD6FB9C1BFF0F2
:107DC800B7EC6DF0000E0001756F520E746FD4ECB5
:107DD8006BF00101C2510001741906E10101C351A0
:107DE80000017519D8B40BD0000E0001C76F520EF0
:107DF800C66FC2C1C8F0C3C1C9F08FEC6FF0000EE6
:107E08000001756F540E746FD4EC6BF00101C4510E
:107E18000001741906E10101C55100017519D8B4B2
:107E28000BD0000E0001C76F540EC66FC4C1C8F056
:107E3800C5C1C9F08FEC6FF0000E0001756F560ECA
:107E4800746FD4EC6BF00101C6510001741906E19E
:107E58000101C75100017519D8B40BD0000E0001FB
:107E6800C76F560EC66FC6C1C8F0C7C1C9F08FEC40
:107E78006FF0000E0001756F580E746FD4EC6BF044
:107E88000101C8510001741906E10101C95100013D
:107E98007519D8B40BD0000E0001C76F580EC66F05
:107EA800C8C1C8F0C9C1C9F08FEC6FF0000E00015D
:107EB800756F5A0E746FD4EC6BF00101C05100015C
:107EC800741906E10101C15100017519D8B40BD02C
:107ED800000E0001C76F5A0EC66FC0C1C8F0C1C1FD
:107EE800C9F08FEC6FF0000E0001756F5C0E746FB7
:107EF800D4EC6BF00101BA510001741906E10101DB
:107F0800BB5100017519D8B40BD0000E0001C76F22
:107F18005C0EC66FBAC1C8F0BBC1C9F08FEC6FF078
:107F2800000E0001756F5E0E746FD4EC6BF00101EA
:107F3800BC510001741906E10101BD510001751918
:107F4800D8B40BD0000E0001C76F5E0EC66FBCC15F
:107F5800C8F0BDC1C9F08FEC6FF0000E0001756F5D
:107F6800600E746FD4EC6BF00101BE5100017419FE
:107F780006E10101BF5100017519D8B40BD0000EFC
:107F88000001C76F600EC66FBEC1C8F0BFC1C9F09F
:107F98008FEC6FF0000E0001756F620E746FD4ECF9
:107FA8006BF074C079F075C07AF0ACEC70F0010138
:107FB800CA51000179190BE10101CB5100017A196D
:107FC80006E10101CC5100017B19D8B41200000E62
:107FD8000001C76F620EC66FCAC1AEF0CBC1AFF069
:107FE800CCC1B0F0AFEC4BF0AEC0C8F0AFC0C9F038
:107FF8008FEC6FF01200A4C0A8F00001A96BAA6B67
:108008000001A3350001A83701E3A9810001A851A7
:108018000001AD6FA7C0A8F00001A96BAA6B000111
:10802800A6350001A83701E3A9810001A851000184
:10803800AC6F0001AD510001D8B411D00001AC51B2
:108048000001AD5DD8B012D00001AD5100080001AB
:10805800AC250001A86F180E0001A86507D0A5C0BF
:10806800A2F0A6C0A3F0A7C0A4F012000001AC5172
:108078000001D8B411D00001AD510001AC5DD8B0F9
:1080880012D00001AC5100080001AD250001A86F15
:10809800180E0001A86507D0A2C0A2F0A3C0A3F0E3
:1080A800A4C0A4F01200060E0001AB6F0001A4AF3B
:1080B80002D00001AB8F0001A7AF02D00001AB8D49
:1080C8000001A38FFF0E0001A217FF0E0001A317E6
:1080D800000E0001A4170001A68FFF0E0001A517CE
:1080E800FF0E0001A617000E0001A7170001AC51F2
:1080F8000001AD5DD8B025D00001D890A537A637CE
:10810800A7370001AC070001AD510001AC19D8B484
:1081180011D00001AB07ABC0A8F0070E0001A817EB
:10812800D8B408D0E9D70001D890A433A333A23338
:108138000001AD2B0001AC510001AD19D8B42BD012
:10814800F2D70001AD510001AC5DD8B024D00001D8
:10815800D890A237A337A4370001AD070001AD516D
:108168000001AC19D8B411D00001AB07ABC0A8F01E
:10817800070E0001A817D8B408D0E9D70001D89095
:10818800A733A633A5330001AC2B0001AC51000185
:10819800AD19D8A4F3D70001ABAF12D0FF0E000180
:1081A800A21BFF0E0001A31BFF0E0001A41B010E62
:1081B8000001A227000E0001A323000E0001A42342
:1081C8000001ABAD12D0FF0E0001A51BFF0E000190
:1081D800A61BFF0E0001A71B010E0001A527000E1C
:1081E8000001A623000E0001A723000E0001AB6FBB
:1081F8000001A2510001A5270001A3510001A623F7
:108208000001A4510001A7230001A7AF15D0FF0E5C
:108218000001A51BFF0E0001A61BFF0E0001A71BF6
:10822800010E0001A527000E0001A623000E000183
:10823800A723010E0001AB6FA5C070F0A6C071F0B6
:10824800A7C072F0ADC073F0ABC074F094EC4EF000
:1082580070C0A2F071C0A3F072C0A4F01200010EA9
:108268000001756F000E0001766F020E0001776F36
:10827800D20EFCEC59F00001C06F020E0001756FC0
:10828800000E0001766F020E0001776FD20EFCEC33
:1082980059F00001C16F030E0001756F000E000157
:1082A800766F020E0001776FD20EFCEC59F00001D8
:1082B800C26F040E0001756F000E0001766F020E8A
:1082C8000001776FD20EFCEC59F00001C36F050E68
:1082D8000001756F000E0001766F020E0001776FC6
:1082E800D20EFCEC59F00001C46F060E0001756F48
:1082F800000E0001766F020E0001776FD20EFCECC3
:1083080059F00001C56FC0C0BEF00F0E0001BE17C6
:108318000001C0390F0B070B0A0DF3500001BE25F1
:108328000201026FC1C0BEF00F0E0001BE170001AE
:10833800C1390F0B070B0A0DF3500001BE250201CE
:10834800016FC2C0BEF00F0E0001BE170001C23996
:108358000F0B030B0A0DF3500001BE250201006F3D
:10836800C3C0BEF00001BE3B0F0EBE17030E0001D6
:10837800BE170001BE510A0DC3C0BFF00F0E0001A9
:10838800BF170001BF51F326000EF422F3CF0BF202
:10839800F4CF0CF20201000E0CBFFF0E0D6F0E6F32
:1083A800C4C0BEF00001BE3B0F0EBE17010E000197
:1083B800BE170001BE510A0DC4C0BFF00F0E000168
:1083C800BF170001BF51F326000EF422F3CF07F2C6
:1083D800F4CF08F20201000E08BFFF0E096F0A6F02
:1083E800C5C0BEF00001BE3B0F0EBE170F0E000148
:1083F800BE170001BE510A0DC5C0BFF00F0E000127
:10840800BF170001BF51F326000EF422F3CF03F289
:10841800F4CF04F20201000E04BFFF0E056F066FD1
:108428001F0E02010327000E04230523062303C29F
:10843800A6F004C2A7F007C2A8F008C2A9F00BC2B0
:10844800AAF00CC2ABF000C2ACF00001AD6B01C2E7
:10845800AEF00001AF6B02C2B0F00001B16BA6EC48
:1084680060F0A6C0BAF0A7C0BBF0A8C0BCF0A9C015
:10847800BDF01200A3C2CDF0A4C2CEF0A5C2CFF0C9
:10848800A6C2D0F0DAC1CBF0DBC1CCF0000E0001FF
:10849800A36FA30E0001706F000E0001716F980E9C
:1084A8000001726FF90E0001736F67EC68F0A30E9C
:1084B8000001706F000E0001716F1B0E0001726FDA
:1084C800FE0E0001736F67EC68F0E4EC6CF0000ED0
:1084D8000001716F010E706FE7EC6EF005EC68F04B
:1084E800A30E0001716F000E0001726F000171513F
:1084F8007211D8A4200E736FF5EC68F0640E0001B9
:108508008D6F000E8E6F000E8F6F000E906FEE0E47
:108518000001916FFF0E0001926F000191519211BD
:10852800D8A4000E936FB7EC45F00009D8A406D084
:10853800000E00019E6F000E9D6F1200000E0001DC
:10854800D26F000ED16F0FD0000E0001D125D96E69
:10855800050E0001D221DA6E250EDE18D8B40DD032
:108568000001D14BD22B0001E2510001D15D000185
:10857800E3510001D259D8A0E7D70001E251000128
:10858800D15D0001E3510001D259D8B057D0FD0E9A
:1085980000019F6FFF0E0001A06FD1C0A1F0D2C0F3
:1085A800A2F000019F510001A1270001A051000184
:1085B800A223000E0001A125D96E050E0001A221FB
:1085C800DA6EDF500001CD6FFE0E00019F6FFF0EC7
:1085D8000001A06FD1C0A1F0D2C0A2F000019F514C
:1085E8000001A1270001A0510001A223000E0001F3
:1085F800A125D96E050E0001A221DA6EDF50000117
:10860800CE6FFF0E00019F6FFF0E0001A06FD1C05B
:10861800A1F0D2C0A2F000019F510001A1270001E2
:10862800A0510001A223000E0001A125D96E050E5C
:108638000001A221DA6EDF500001CF6FCD0E0001DC
:10864800846F000E0001856F06EC52F084C09DF027
:1086580085C09EF01200000196BF03D0000192AFC2
:108668000AD0000E00018F6F000E906F000E916F00
:10867800000E926F1200000192BF1CD000019251AF
:1086880005E1080E0001915DD8A014D0010E00018B
:108698008F2500018F6F000E000190210001906F5F
:1086A800F80E000191210001916FFF0E0001922147
:1086B8000001926FAB0E2BEC72F0000E0001AE6F52
:1086C800000E0001AA6F000EAB6F000EAC6F000E1B
:1086D800AD6F000E0001B06F929A899A030EDCEC20
:1086E8006AF000019151DCEC6AF000019051DCEC79
:1086F8006AF000018F51DCEC6AF0000EDCEC6AF0E5
:108708000001B06F000E0001E76F5ED00A0E000195
:10871800B019D8A408D093C0AAF094C0ABF095C003
:10872800ACF096C0ADF0000197510001D8B40AD062
:1087380098C0D9FF99C0DAFFB0C0DFFF0001984B9D
:10874800992B34D00001AE51010D9A0EF324D96E45
:10875800000EF420DA6EB0C0DFFF0001AE2B100E61
:108768000001AE19D8A422D0000E0001AE6F9A0EF7
:1087780000018D6F000E00018E6F5CEC71F0000E31
:108788000001AF6F0F0E0001AF6501D00FD00001DF
:10879800AF51010D9A0EF324D96E000EF420DA6E53
:1087A800DF507CEC72F00001AF2BECD7000EDCEC54
:1087B8006AF00001B06FFF0E00019327FF0E9423AB
:1087C800FF0E9523FF0E9623000196BF0FD00001E0
:1087D8009651000195110001941104E100019305DF
:1087E800D8A004D00001E751D8B490D7898A98C09E
:1087F800D9FF99C0DAFF000EDF6EAAC08FF0ABC0B8
:1088080090F0ACC091F0ADC092F01200050E0001DE
:10881800EE19D8B4CFD074EC72F00001C66F6CECCE
:1088280072F00001C56F0001E4510001E511D8A400
:1088380006D09BEC65F07EC0E4F07FC0E5F0000157
:10884800C505D8A485D0B8C1C4F0030E0001C4176B
:10885800D8B43FD0FC0E0001E45D080E0001E559D4
:10886800D8B013D00A0E0001826F010E0001836F89
:108878000E0EECEC0AF00A0E0001826F010E0001E8
:10888800836F0C0EECEC0AF095D00001C6A50AD057
:108898000A0E0001826F010E0001836F060EECECD8
:1088A8000AF088D00001C6A30AD00A0E0001826F20
:1088B800010E0001836F0A0EECEC0AF07BD00A0E61
:1088C8000001826F010E0001836F0E0EECEC0AF0BE
:1088D80071D0FC0E0001E45D080E0001E559D8B026
:1088E80013D00A0E0001826F010E0001836F0D0E76
:1088F800ECEC0AF00A0E0001826F010E0001836F92
:108908000C0EECEC0AF056D00001C6A50AD00A0EEF
:108918000001826F010E0001836F050EECEC0AF076
:1089280049D00001C6A30AD00A0E0001826F010EC9
:108938000001836F090EECEC0AF03CD00A0E00012E
:10894800826F010E0001836F0D0EECEC0AF032D03D
:10895800020E0001C519D8A424D0000E0001736FBF
:10896800010E726F98EC72F00009D8A423D00001B0
:10897800C6A520D0000E0001BE6F010EBD6F010E0E
:108988000001BF6FB7EC6DF0070E3CEC6FF00A0EFC
:108998000001826F010E0001836F010EECEC0AF0FA
:1089A80009D00A0E0001826F010E0001836F050EC7
:1089B800ECEC0AF0010E8AEC72F01200CAC0BAF1AF
:1089C800CBC0BBF10001CA510101BC5D0001CB5114
:1089D8000101BD59D8A007D00101BC2908E1010156
:1089E800BD29D8A404D0CAC0BCF1CBC0BDF10101D7
:1089F800BE510001CA5D0101BF510001CB59D8A089
:108A080007D00101BC2908E10101BD29D8A404D07F
:108A1800CAC0BEF1CBC0BFF10001CA510101C25D9D
:108A28000001CB510101C359D8A00AD00101C4519A
:108A38000001CA5D0101C5510001CB59D8B07CD0F5
:108A48000001CA510101C25D0001CB510101C359A6
:108A5800D8B002D00101B8850101C4510001CA5D36
:108A68000101C5510001CB59D8B002D00101B88726
:108A78000001CA510101C65D0001CB510101C7596E
:108A8800D8A00AD00101C8510001CA5D0101C9512D
:108A98000001CB59D8B022D00101B8B904D00101E6
:108AA800B8890101B88D0101B89B0001CA510101C3
:108AB800C65D0001CB510101C759D8B002D00101F0
:108AC800B8810101C8510001CA5D0101C951000105
:108AD800CB59D8B045D00101B88342D0000E00016F
:108AE800736F140E726F98EC72F00001CC6F000176
:108AF800CC510101B95DD8A01CD00101B8B904D08E
:108B08000101B8890101B88D0101B89B0001CA5162
:108B18000101C25D0001CB510101C359D8B002D097
:108B28000101B8810101C4510001CA5D0101C551AB
:108B3800CED70101B92B14D00101B8BB04D0010173
:108B4800B88B0101B88D0101B8990101B8910101F3
:108B5800B8930101B8950101B897000E0101B96FEA
:108B6800BEEC3EF01200000E0001996F000E9A6FE5
:108B7800000E9B6F000E9C6FCFEC72F000019151BC
:108B88000001921100019311D8B413D05ED07AEC91
:108B980071F0010E00019927000E9A239B239C2354
:108BA800060E0001946F300EE82EFED7942FFCD7E6
:108BB80000D00001E751D8A418D000018D51000160
:108BC800995D00018E5100019A5900018F510001F1
:108BD8009B5900019C51800A0001946F000190513B
:108BE800800A00019459D8A0D2D7FE0E00018D2525
:108BF8000001946FFF0E00018E210001956FFF0E9A
:108C080000018F210001966FFF0E000190210001E5
:108C1800976F000199510001945D00019A5100017C
:108C2800955900019B510001965900019751800AFE
:108C38000001986F00019C51800A00019859D8B032
:108C480002D0000E1200010E12008DC079F08EC005
:108C58007AF08FC07BF090C07CF0D00E00017D6F61
:108C6800070E7E6F000E7F6F000E806F98EC63F02A
:108C780079C08DF07AC08EF07BC08FF07CC090F008
:108C88002DD00D0EE82EFED700F00001E751D8B424
:108C98001ED0000E0001E76F340E0001946FF20E33
:108CA800E82EFED7942FFCD791C087F092C088F0A9
:108CB80093C089F0000E00018A6F050E00018B6FCA
:108CC80016EC6EF00009D8B402D0010E1200010EA5
:108CD80000019927000E9A239B239C2300018D51A4
:108CE8000001995D00018E5100019A5900018F51D0
:108CF80000019B5900019C51800A0001946F0001FA
:108D08009051800A00019459D8A0BBD7000E1200D8
:108D180072C076F00001776B786B00017135000145
:108D2800763701E377810001765100017E6F0001FB
:108D38007E51D8A40AD0000E0001706F000E716F2A
:108D4800000E726F000E736F120075C076F000018E
:108D5800776B786B000174350001763701E3778112
:108D68000001765100017D6F00017D51D8A40AD021
:108D7800000E0001706F000E716F000E726F000E12
:108D8800736F12000001718FFF0E00017017FF0E44
:108D980000017117000E000172170001748FFF0E99
:108DA80000017317FF0E00017417000E00017517FC
:108DB800000E0001796F000E7A6F000E7B6F000EB7
:108DC8007C6F7F0E00017E5F00017D51980F0001CE
:108DD8007E5F180E00017D6F0001D89079377A37D1
:108DE8007B377C37000173510001705D00017451BD
:108DF800000171590001755100017259D8A00ED0B7
:108E0800000173510001705F000174510001715B32
:108E1800000175510001725B000179810001D89051
:108E280070377137723700017D2FD6D700017EAFBA
:108E38001AD000017E51800A970FD8B00AD0000ED0
:108E48000001706F000E716F000E726F000E736F6D
:108E580012000001D8907C337B337A3379330001D8
:108E68007E3FF7D71BD0170E00017E6512D0000E8B
:108E78000001706F000E716F000E726F000E736F3D
:108E880012000001D89079377A377B377C37000198
:108E98007E0700017E510001D8A4F3D779C070F095
:108EA8007AC071F07BC072F07CC073F012000001D0
:108EB80020EE01F07051D9267151DA22DF500001FD
:108EC800726F000120EE05F07051D9267151DA2237
:108ED800000110EE01F07051E1267151E222DFCF5E
:108EE800E7FF000120EE09F07051D9267151DA220E
:108EF800000110EE05F07051E1267151E222DFCF3A
:108F0800E7FF000120EE0DF07051D9267151DA22E9
:108F1800000110EE09F07051E1267151E222DFCF15
:108F2800E7FF000120EE0DF07051D9267151DA22C9
:108F380072C0DFFF000120EE02F07051D926715196
:108F4800DA22DF500001726F000120EE0AF0705142
:108F5800D9267151DA22000110EE02F07051E12693
:108F68007151E222DFCFE7FF000120EE0AF07051D5
:108F7800D9267151DA2272C0DFFF000120EE0EF00F
:108F88007051D9267151DA22DF500001726F000149
:108F980020EE06F07051D9267151DA22000110EE48
:108FA8000EF07051E1267151E222DFCFE7FF000198
:108FB80020EE06F07051D9267151DA2272C0DFFF17
:108FC800000120EE03F07051D9267151DA22DF50EA
:108FD8000001726F000120EE0FF07051D926715117
:108FE800DA22000110EE03F07051E1267151E222FD
:108FF800DFCFE7FF000120EE0BF07051D926715149
:10900800DA22000110EE0FF07051E1267151E222D0
:10901800DFCFE7FF000120EE07F07051D92671512C
:10902800DA22000110EE0BF07051E1267151E222B4
:10903800DFCFE7FF000120EE07F07051D92671510C
:10904800DA2272C0DFFF12000001723573350001A9
:109058007B6F00017B51D8A40AD0000E0001706F0D
:10906800000E716F000E726F000E736F1200000118
:109078007535763500017A6F00017A51D8A40AD087
:10908800000E0001706F000E716F000E726F000EFF
:10909800736F12000001728FFF0E00017017FF0E30
:1090A8007117FF0E7217000E73170001758FFF0EF0
:1090B80000017317FF0E7417FF0E7517000E761751
:1090C800000E0001766F000E776F000E786F000EAD
:1090D800796F7F0E00017B5F00017A51A00F0001BC
:1090E8007B5F200E00017A6F0001D89076377737C2
:1090F80078377937000173510001705D00017451B0
:109108000001715900017551000172590001765131
:1091180000017359D8A012D0000173510001705F8B
:10912800000174510001715B000175510001725B0F
:10913800000176510001735B000176810001D8902F
:10914800703771377237733700017A2FCDD7000126
:109158007BAF1AD000017B51800A9F0FD8B00AD08C
:10916800000E0001706F000E716F000E726F000E1E
:10917800736F12000001D8907933783377337633E0
:1091880000017B3FF7D71BD01F0E00017B6512D073
:10919800000E0001706F000E716F000E726F000EEE
:1091A800736F12000001D8907637773778377937A0
:1091B80000017B0700017B510001D8A4F3D776C0DA
:1091C80070F077C071F078C072F079C073F0120057
:1091D800000E0001BE6F010EBD6F000E0001BF6FD3
:1091E800B7EC6DF0000E0001BE6FAE0EBD6F000E45
:1091F8000001BF6FB7EC6DF0000E0001BE6FAF0E3F
:10920800BD6F000E0001BF6FB7EC6DF0000E0001DE
:10921800C76F020EC66F020E0001C96FD00EC86F6D
:109228008FEC6FF0000E0001D66F0C0ED56F010E9B
:109238000001D76F000ED86F000ED96F000EDA6FDD
:1092480083EC5FF0000E0001D66F750ED56F000E2F
:109258000001D76F000ED86F000ED96F000EDA6FBD
:1092680083EC5FF0000E0001C76FC00EC66F000EE2
:109278000001C96FC80EC86F8FEC6FF0000E0001B7
:10928800D66F680ED56F000E0001D76F000ED86F2D
:10929800000ED96F000EDA6F83EC5FF0000E00014C
:1092A800BE6F700EBD6F000E0001BF6FB7EC6DF0A2
:1092B800000E0001D66F640ED56F54EC6EF0CDC071
:1092C800D7F0CEC0D8F0CFC0D9F0D0C0DAF083EC58
:1092D8005FF0000E0001BE6F100EBD6FB40E0001EE
:1092E800BF6FB7EC6DF0000E0001D66F080ED56F9A
:1092F800000E0001D76F000ED86F000ED96F000E58
:10930800DA6F83EC5FF0000E0001BE6F710EBD6F67
:109318000A0E0001BF6FB7EC6DF0000E0001BE6FC2
:10932800720EBD6F030E0001BF6FB7EC6DF0000E3B
:109338000001BE6F730EBD6F050E0001BF6FB7EC65
:109348006DF0B1EC5AF01200050E0001EE19D8B418
:10935800A9D0ADEC72F0566EA6EC72F0556E000115
:10936800E4510001E511D8A406D071EC67F00FC0F4
:10937800E4F010C0E5F05504D8A46CD0B8C154F09E
:10938800030E5416D8B433D0FC0E0001E45D080E69
:109398000001E559D8B00FD00A0E136E010E146EF5
:1093A8000E0E6FEC1EF00A0E136E010E146E0C0EEC
:1093B8006FEC1EF077D056A408D00A0E136E010E7B
:1093C800146E060E6FEC1EF06DD056A208D00A0E71
:1093D800136E010E146E0A0E6FEC1EF063D00A0EA7
:1093E800136E010E146E0E0E6FEC1EF05BD0FC0EA9
:1093F8000001E45D080E0001E559D8B00FD00A0E4F
:10940800136E010E146E0D0E6FEC1EF00A0E136E25
:10941800010E146E0C0E6FEC1EF044D056A408D04A
:109428000A0E136E010E146E050E6FEC1EF03AD084
:1094380056A208D00A0E136E010E146E090E6FECB8
:109448001EF030D00A0E136E010E146E0D0E6FEC66
:109458001EF028D0020E5518D8A41DD0000E046E98
:10946800010E036EB4EC72F00009D8B456A41AD0F9
:10947800000E076E010E066E010E086E72EC6EF09D
:10948800070EEBEC70F00A0E136E010E146E010E4F
:109498006FEC1EF007D00A0E136E010E146E050E47
:1094A8006FEC1EF0010EC1EC72F0120086C08AF05B
:1094B80000018B6B8C6B0001853500018A3701E355
:1094C8008B8100018A5100018D6F00018D51D8A454
:1094D8000AD0000E0001846F000E0001856F000E97
:1094E8000001866F120089C08AF000018B6B8C6BBB
:1094F8000001883500018A3701E38B8100018A5118
:109508000001926F00019251D8A40AD0000E000108
:10951800846F000E0001856F000E0001866F120037
:10952800000192517B0F00018D2786C092F0000147
:1095380089510001921B800E000192170001858F4E
:109548000001888FFF0E00018717FF0E00018817A2
:10955800000E00018917000E00018E6F000E000139
:109568008F6F000E0001906F070E0001916F0001D0
:1095780084A10CD00001875100018E270001885179
:1095880000018F2300018951000190230001D89028
:109598008633853384330001D890873788378937F5
:1095A8000001912FE4D7090E0001916F000184A1F9
:1095B8000CD00001875100018E270001885100015D
:1095C8008F2300018951000190230001D890863330
:1095D800853384330001D89090338F338E33000164
:1095E800912FE4D78EC070F08FC071F090C072F0E8
:1095F8008DC073F092C074F094EC4EF070C084F09B
:1096080071C085F072C086F0120095C099F0000113
:109618009A6B9B6B000194350001993701E39A819D
:10962800000199510001A06F0001A051D8A40AD0EF
:10963800000E0001936F000E0001946F000E0001F0
:10964800956F120098C099F000019A6B9B6B00010E
:1096580097350001993701E39A810001995100017A
:10966800A16F0001A151D8A40AD0000E0001936F88
:10967800000E0001946F000E0001956F1200000E9D
:1096880000019D6F000E00019E6F000E00019F6F8C
:109698000001A151890F0001A05F95C0A1F0000150
:1096A80098510001A11B800E0001A1170001948FA1
:1096B800FF0E00019317FF0E00019417000E000122
:1096C80095170001978FFF0E00019617FF0E0001F6
:1096D8009717000E00019817180E00019C6F0001E3
:1096E800D8909D379E379F37000196510001935DB2
:1096F80000019751000194590001985100019559B2
:10970800D8A00ED0000196510001935F0001975137
:109718000001945B000198510001955B00019D8157
:109728000001D89093379437953700019C2FD7D7ED
:109738009DC070F09EC071F09FC072F0A0C073F021
:10974800A1C074F094EC4EF070C093F071C094F026
:1097580072C095F01200B0C0B2F00001B36BB46BE8
:109768000001AF350001B23701E3B3810001B25106
:109778000001BC6F0001BC51D8A40AD0000E000142
:10978800AE6F000EAF6F000EB06F000EB16F12001B
:10979800170E0001B26FAEC0B3F0AFC0B4F0B0C0E6
:1097A800B5F00001B2290001B66F05D00001D890CC
:1097B800B533B433B3330001B62FF8D70001B35132
:1097C8000001B76F0001AF8FFF0E0001AE17FF0E4B
:1097D8000001AF17000E0001B0170001AE510001E3
:1097E800B86F0001AF510001B96F0001B05100011D
:1097F800BA6F0001BB6B8E0E0001BC5F0001BCAFED
:109808001AD00001BC51800A8F0FD8B00AD0000EC0
:109818000001AE6F000EAF6F000EB06F000EB16F9B
:1098280012000001D890BB33BA33B933B833000102
:10983800BC3FF7D71BD0170E0001BC6512D0000E35
:109848000001AE6F000EAF6F000EB06F000EB16F6B
:1098580012000001D890B837B937BA37BB370001C2
:10986800BC070001BC510001D8A4F3D70001B751CF
:109878000001D8B409D00001BB1FBA1FB91FB86DC9
:10988800000EB923BA23BB23B8C0AEF0B9C0AFF0FD
:10989800BAC0B0F0BBC0B1F01200000E0101006FF9
:1098A800000E0001706F010E0001716F660E00015D
:1098B800726FF90E0001736F67EC68F0000E00011B
:1098C800706F010E0001716FF20E0001726FFF0ED2
:1098D8000001736F67EC68F0000E0001706F010EF5
:1098E8000001716F9DC072F09EC073F067EC68F064
:1098F800000E0001706F010E0001716FF00E000183
:10990800726FFF0E0001736F67EC68F0000E0001C4
:10991800706F010E0001716F9FC072F0A0C073F0EC
:1099280067EC68F0000E0001706F010E0001716FA6
:10993800F00E0001726FFF0E0001736F67EC68F0A4
:10994800000E0001706F010E0001716FA1C072F06E
:10995800A2C073F067EC68F0000E0001706F010E92
:109968000001716F1B0E0001726FFE0E0001736F14
:1099780067EC68F005EC68F0000E0001716F010EED
:109988000001726F000171517211D8A4200E736F1B
:10999800F5EC68F0C80E00018D6F000E8E6F000E9A
:1099A8008F6F000E906FC00E0001916FF90E0001CD
:1099B800926F000191519211D8A4000E936FB7ECE9
:1099C80045F0120089C08BF08AC08CF0000E0001AF
:1099D8008CBFFF0E8D6F8E6F85C079F086C07AF0D0
:1099E8000001000E7ABFFF0E7B6F7C6F100E000126
:1099F8007D6F0E0E7E6F000E7F6F000E806F98ECED
:109A080063F079C08FF07AC090F07BC091F07CC091
:109A180092F087C079F088C07AF00001000E7ABF12
:109A2800FF0E7B6F7C6F3C0E00017D6F000E7E6F1A
:109A3800000E7F6F000E806F98EC63F00001795183
:109A480000018F250001936F00017A5100019021D8
:109A58000001946F00017B51000191210001956F75
:109A680000017C51000192210001966F00018B5189
:109A7800000193250001976F00018C51000194218A
:109A88000001986F00018D51000195210001996F27
:109A980000018E510001962100019A6F97C079F05C
:109AA80098C07AF099C07BF09AC07CF0730EF66E7D
:109AB800F80EF76E000EF86E0900F5CF7DF009007C
:109AC800F5CF7EF00900F5CF7FF00A00F5CF80F0E2
:109AD80098EC63F079C085F07AC086F07BC087F097
:109AE8007CC088F0120005EC68F049EC72F052EC8A
:109AF80072F0CD0E0001716FFF0E0001726F000150
:109B080071517211D8A4000E736FF5EC68F02C0E29
:109B180000018D6F010E8E6F000E8F6F000E906F1B
:109B2800F80E0001916FFF0E0001926F0001915134
:109B38009211D8A4000E936FB7EC45F0F80E00010F
:109B4800716FFF0E0001726F000171517211D8A47C
:109B5800000E736FF5EC68F0000E0001E36F000E65
:109B6800E26F320E00018D6F000E8E6F000E8F6F48
:109B7800000E906FBD0E0001916FF90E0001926FFB
:109B8800000191519211D8A4000E936FB7EC45F0E3
:109B98000009D8B410D01B0E0001716FFE0E000131
:109BA800726F000171517211D8A4000E736FF5EC39
:109BB80068F0010E1200AB0E0001876FFA0E00016B
:109BC800886F000187518811D8A4000E896F000E94
:109BD80000018A6F050E00018B6F16EC6EF000090C
:109BE800D8B40FD01B0E0001716FFE0E0001726F0A
:109BF800000171517211D8A4000E736FF5EC68F072
:109C0800D8D7000E1200000E0001796F000177AF5F
:109C18000CD00001771F761F751F746D000E752319
:109C280076237723010E0001796F000173AF0CD002
:109C38000001731F721F711F706D000E7123722354
:109C48007323010E0001791B000E00017A6F000ECC
:109C58007B6F000E7C6F000E7D6F00017451000158
:109C680075110001761100017711D8B442D0010EA8
:109C78000001786F08D00001D890743775377637AF
:109C880077370001782B000177AFF5D70001D8901E
:109C98007A377B377C377D37000174510001705D5E
:109CA8000001755100017159000176510001725986
:109CB8000001775100017359D8A012D000017451E6
:109CC8000001705F000175510001715B0001765160
:109CD8000001725B000177510001735B00017A811A
:109CE8000001D89077337633753374330001782FB9
:109CF800CDD7000179510001D8B409D000017D1FEA
:109D08007C1F7B1F7A6D000E7B237C237D237AC00A
:109D180070F07BC071F07CC072F07DC073F01200EF
:109D2800000173510001D8B408D00001705100013E
:109D3800711100017211D8A411D0000E0001706FCA
:109D4800000E0001716F000E0001726F1200000119
:109D5800732B0001D890723371337033000E0001F9
:109D680070150001756F000E000171150001766F06
:109D7800FE0E000172150001776F00017551000198
:109D8800761100017711D8B411D0E1D70001732BF7
:109D9800010E00017027000E00017123000E000162
:109DA80072230001D890723371337033000E0001B2
:109DB80070150001756F000E000171150001766FB6
:109DC800FF0E000172150001776F00017551000147
:109DD800761100017711D8B408D0D8D700017307DD
:109DE8000001D890703771377237000171BF04D005
:109DF800020E00017361F2D7000173B102D00001B5
:109E0800719F0001D89073330001735100017213E0
:109E1800000174510001D8B402D00001728F70C0E3
:109E280070F071C071F072C072F0120000017B6FA7
:109E38000001775197EC68F077C070F000017B5112
:109E4800D2EC65F0000177510CEC67F00009D8A45A
:109E580064D077C070F000017551D2EC65F0000154
:109E680077510CEC67F00009D8A44DD00001775168
:109E7800C6EC68F076C070F00001716BE7EC6EF02C
:109E880077C070F000017B29D2EC65F000017751B2
:109E98000CEC67F00009D8A42CD000017751ECEC49
:109EA8005EF00001786F000178510001796F7A6BDC
:109EB800000179517A6F796B77C070F0000E64EC0D
:109EC8005BF000017751ECEC5EF00001786F000167
:109ED80078510001791377C070F0010E64EC5BF0E3
:109EE800000177519FEC5EF079C075F07AC076F08A
:109EF8001200000177519FEC5EF0000E0001766FB2
:109F0800000E756F1200000177519FEC5EF0000E95
:109F18000001766F000E756F1200000177519FECFB
:109F28005EF0000E0001766F000E756F1200000ED5
:109F38000001736F500E726F98EC72F00101B86FE8
:109F4800000E0001736F510E726F98EC72F00101F0
:109F5800B96F000E0001756F520E746FD4EC6BF080
:109F680074C0C2F175C0C3F1000E0001756F540EC4
:109F7800746FD4EC6BF074C0C4F175C0C5F1000EF9
:109F88000001756F560E746FD4EC6BF074C0C6F197
:109F980075C0C7F1000E0001756F580E746FD4ECD0
:109FA8006BF074C0C8F175C0C9F1000E0001756F7F
:109FB8005A0E746FD4EC6BF074C0C0F175C0C1F167
:109FC800000E0001756F5C0E746FD4EC6BF074C0FA
:109FD800BAF175C0BBF1000E0001756F5E0E746FAB
:109FE800D4EC6BF074C0BCF175C0BDF1000E00017B
:109FF800756F600E746FD4EC6BF074C0BEF175C0F1
:10A00800BFF1000E0001756F620E746FD4EC6BF037
:10A0180074C079F075C07AF0ACEC70F079C0CAF110
:10A028007AC0CBF17BC0CCF11200A20E0001A46F64
:10A03800FF0E0001A015D8B412D09FC070F0A0C0C8
:10A0480071F0000E0001736F3C0E726FE6EC62F067
:10A0580070C09FF071C0A0F0A30E0001A46F0001B2
:10A06800A005D8A004D0000E0001A06F9F691A0EA9
:10A078000001756F000E0001766F020E0001776F08
:10A08800D20EFCEC59F00001A26FA36B00019F51A6
:10A098000001A2190AE10001A0510001A319D8A4E6
:10A0A80004D00001A105D8A422D0180E00019B6F8E
:10A0B800000E00019C6F020E00019D6FD20E2DEC68
:10A0C80061F01A0E00019B6F9FC09CF0020E000108
:10A0D8009D6FD20E2DEC61F0190E00019B6F9FC091
:10A0E8009CF0020E00019D6FD20E2DEC61F0180E4F
:10A0F8000001756F000E0001766F020E0001776F88
:10A10800D20EFCEC59F00001A419D8B41200180EB4
:10A1180000019B6FA4C09CF0020E00019D6FD20E3F
:10A128002DEC61F01200000E0001A16FA10E0001DC
:10A13800706F000E0001716F0C0E0001726FF90E46
:10A148000001736F67EC68F0A10E0001706F000EDC
:10A158000001716FF20E0001726FFF0E0001736F44
:10A1680067EC68F0A10E0001706F000E0001716FBE
:10A178009DC072F09EC073F067EC68F0A10E0001FC
:10A18800706F000E0001716FF00E0001726FFF0E0C
:10A198000001736F67EC68F0A10E0001706F000E8C
:10A1A8000001716F9FC072F0A0C073F067EC68F097
:10A1B800A10E0001706F000E0001716F1B0E0001EF
:10A1C800726FFE0E0001736F67EC68F005EC68F0C3
:10A1D800A10E0001716F000E0001726F0001715134
:10A1E8007211D8A4200E736FF5EC68F0E80E000128
:10A1F8008D6F030E8E6F000E8F6F000E906FC00E66
:10A208000001916FF90E0001926F000191519211B6
:10A21800D8A4000E936FB7EC45F0120000017651F8
:10A2280000017711D8A40AD0000E0001746F000E47
:10A23800756F000E766F000E776F1200000E00012A
:10A248007E6F000E00017A6F000E7B6F000E7C6F30
:10A25800000E7D6F000E00017F6F00017651000136
:10A268007711D8B44BD0000E00017E6F040E0001A8
:10A278007E6501D043D074C072F075C073F098EC5D
:10A2880072F000017F6F0001744B752B24D00A0E09
:10A2980000017F19D8A407D076C07AF077C07BF088
:10A2A80000017C6B7D6B78C0D9FF79C0DAFF7FC075
:10A2B800DFFF0001784B792B74C072F075C073F022
:10A2C80098EC72F000017F6F0001744B752B000150
:10A2D8007607D8A0770700017F29D8B406D00001F7
:10A2E800765100017711D8A4D2D778C0D9FF79C0A8
:10A2F800DAFF000EDF6E00017E2BB8D7898A7AC09C
:10A3080074F07BC075F07CC076F07DC077F01200E9
:10A31800000E0001706F000E0001716F430E000106
:10A32800726FBDC073F0BEC074F0BFC075F071EC41
:10A3380055F00001D8B009D0000E0001BD6F000E25
:10A348000001BE6F430E0001BF6FBDC070F0BEC0FC
:10A3580071F0BFC072F0000E0001736F380E00017B
:10A36800746FC20E0001756F71EC55F00001D8B022
:10A3780009D0000E0001BD6F380E0001BE6FC20E7D
:10A388000001BF6FB80E0001966F2F0E0001976F86
:10A39800430E0001986F000E0001876F800E0001C8
:10A3A800886F470E0001896F660E0001A56F3B0E8E
:10A3B8000001A66F420E0001A76FBDC0A2F0BEC08B
:10A3C800A3F0BFC0A4F0FFEC3FF0A2C084F0A3C08C
:10A3D80085F0A4C086F05AEC4AF084C093F085C09A
:10A3E80094F086C095F009EC4BF093C0AEF094C0A1
:10A3F800AFF095C0B0F0AFEC4BF0AEC0BDF0AFC061
:10A40800BEF0120003D00001844B852B84C0D9FF15
:10A4180085C0DAFF200EDE18D8B4F5D784C0D9FF7E
:10A4280085C0DAFF090EDE18D8B4EDD7000E00019A
:10A438008A6F000E896F000E0001886F84C0D9FFF3
:10A4480085C0DAFF2D0EDE18D8A403D00001882BB2
:10A458002ED084C0D9FF85C0DAFF2B0EDE18D8A411
:10A4680029D025D089C07EF08AC07FF0000E000177
:10A47800816F0A0E806F74EC6FF084C0D9FF85C0BD
:10A48800DAFFDF500001866F876B00017E51000103
:10A49800862700017F5100018723D00E0001862501
:10A4A8000001896FFF0E0001872100018A6F0001FA
:10A4B800844B852B84C0D9FF85C0DAFFDF50C1ECFF
:10A4C80070F0D8B0CFD7000188510001D8B40ED0B1
:10A4D80089C086F08AC087F00001861F871F864BD7
:10A4E800872B86C084F087C085F0120089C084F06D
:10A4F8008AC085F012000001C56F000E00019D6F33
:10A508009D0E0001706F000E0001716F5D0E00015D
:10A51800726FF90E0001736F67EC68F005EC68F074
:10A52800CFEC72F02DD09D0E0001706F000E00016F
:10A53800716FA40E0001726FFF0E0001736F67EC5C
:10A5480068F029D09D0E0001706F000E0001716F38
:10A55800740E0001726FFF0E0001736F67EC68F0F4
:10A568001AD09D0E0001706F000E0001716F330E3E
:10A578000001726FFF0E0001736F67EC68F00BD07B
:10A588000001C551010AD8B4CED7030AD8B4DAD726
:10A59800010AD8B4E6D705EC68F09D0E0001716F8A
:10A5A800000E0001726F000171517211D8A4200EC3
:10A5B800736FF5EC68F0D00E00018D6F070E8E6F8B
:10A5C800000E8F6F000E906FBD0E0001916FF90E97
:10A5D8000001926F000191519211D8A4000E936F5F
:10A5E800B7EC45F01200000E0001796F000E7A6F8B
:10A5F800000E7B6F000E7C6F74C072F075C073F034
:10A6080098EC72F00001786F000178510001796FC1
:10A618007A6B7B6B7C6B7BC07CF07AC07BF079C0FB
:10A628007AF00001796B010E000174250001726F48
:10A63800000E000175210001736F98EC72F00001A3
:10A64800786F00017851000179137BC07CF07AC0E3
:10A658007BF079C07AF00001796B020E0001742555
:10A668000001726F000E000175210001736F98ECF4
:10A6780072F00001786F00017851000179137BC0F6
:10A688007CF07AC07BF079C07AF00001796B030E18
:10A69800000174250001726F000E00017521000190
:10A6A800736F98EC72F00001786F00017851000127
:10A6B800791379C074F07AC075F07BC076F07CC0ED
:10A6C80077F01200000E00019E6F040E9D6F22ECC1
:10A6D80063F00009D8A40ED05BEC6BF0000E00010B
:10A6E8009E6F050E9D6F22EC63F00009D8A402D07E
:10A6F800000E1200010E3CEC54F0020E7FEC52F0FA
:10A708000009D8A402D0000E1200E60E00019D6FC9
:10A71800FD0E00019E6FE30E00019F6FFF0E00010A
:10A72800A06F97EC50F00009D8A402D0000E1200D8
:10A73800B80E00019D6FF90E00019E6FFAEC56F0FD
:10A748000009D8A402D0000E1200000E00019D6F6F
:10A75800F90E00019E6F5BEC57F00009D8A402D0F7
:10A76800000E1200A80E00019D6FF90E00019E6FE9
:10A77800BCEC57F00009D8A402D0000E1200E30E7A
:10A7880000019D6FF80E00019E6F99EC56F00009CC
:10A79800D8A402D0000E1200010E12000001C86FEA
:10A7A800D6EC72F00001C96FDFEC72F0D9EC72F0F0
:10A7B8000001CA6F0001CA05D8B40FD0090E000104
:10A7C800CA19D8B40AD00001C8510001D8A405D0CC
:10A7D800DCEC72F00009D8A43CD0020E0001CC6F6A
:10A7E800580ECB6F040012D0340E0001C76FF20E62
:10A7F800E82EFED7C72FFCD70001CB510001CC11A2
:10A80800D8B404D00001CB07D8A0CC07DCEC72F098
:10A818000009D8A406D00001CB510001CC11D8A45E
:10A82800E3D70001CB510001CC11D8A405D0020E0A
:10A838000001EF6F030E15D00001EF51D8A403D02B
:10A84800010E0001EF6F020E0101CF6F0AEC44F018
:10A858000AD0080E0001CA19D8A402D0010E01D0EE
:10A86800000E0101CF6F0001C9518AEC72F012008D
:10A878000001C56F000E00019D6F9D0E0001706FF5
:10A88800000E0001716FAE0E0001726FF90E00012B
:10A89800736F67EC68F09D0E0001706F000E000189
:10A8A800716FF20E0001726FFF0E0001736F67EC9B
:10A8B80068F00001C5510001D8B40FD09D0E000109
:10A8C800706F000E0001716FC90E0001726FFF0EEC
:10A8D8000001736F67EC68F00ED09D0E0001706F79
:10A8E800000E0001716FA90E0001726FFF0E0001CA
:10A8F800736F67EC68F09D0E0001716F000E000128
:10A90800726F000171517211D8A4200E736FF5ECAB
:10A9180068F0640E00018D6F000E8E6F000E8F6F51
:10A92800000E906FC00E0001916FF90E0001926F3A
:10A93800000191519211D8A4000E936FB7EC45F025
:10A948001200000E0001C66F000EC56FEC0E00016C
:10A95800716FFE0E0001726F000171517211D8A45F
:10A96800000E736FF5EC68F005EC68F0000E00015E
:10A97800716FC80E706FE7EC6EF038D0000E0001F2
:10A98800716F640E706FE7EC6EF0040080B22BD02C
:10A99800000E0001716F640E706FE7EC6EF077ECDB
:10A9A8004DF0D5EC55F00009D8B413D0A90E00012C
:10A9B800756FFD0E0001766FBBEC64F0070E0001A9
:10A9C800716FD00E706FE7EC6EF05BEC6BF0010E00
:10A9D80012003A0E0001756FFD0E0001766FBBEC98
:10A9E80064F0000E12000001C54BC62B0001C6BF63
:10A9F80008D00001C65109E1640E0001C55DD8B058
:10AA080004D00101CF51D8B4B9D7000E1200000EFE
:10AA18000A6E08AE0AD0081E071E061E056C000E38
:10AA2800062207220822010E0A6E04AE0AD0041E6E
:10AA3800031E021E016C000E022203220422010ED4
:10AA48000A1A000E0B6E000E0C6E000E0D6E000E34
:10AA58000E6E0550061007100810D8B42AD0010E43
:10AA6800096E06D0D8900536063607360836092A04
:10AA780008AEF8D7D8900B360C360D360E36055082
:10AA8800015C065002580750035808500458D8A0D3
:10AA980009D00550015E0650025A0750035A085063
:10AAA800045A0B80D8900832073206320532092E34
:10AAB800E1D70A50D8B408D00E1E0D1E0C1E0B6C20
:10AAC800000E0C220D220E220BC001F00CC002F069
:10AAD8000DC003F00EC004F01200000172AF1DD0CB
:10AAE80070C076F071C077F072C078F00001761F00
:10AAF800771F781F762B000E77237823000E00012E
:10AB080076250001706F000E000177210001716F3A
:10AB1800800E000178210001726F000175AF1DD011
:10AB280073C076F074C077F075C078F00001761FB6
:10AB3800771F781F762B000E77237823000E0001ED
:10AB480076250001736F000E000177210001746FF4
:10AB5800800E000178210001756F000E0001701B46
:10AB6800000E0001711B800E0001721B000E000117
:10AB7800731B000E0001741B800E0001751B000181
:10AB880073510001705D0001745100017159000199
:10AB9800755100017259D8B002D0D8901200D880EF
:10ABA8001200E4EC6CF0000E00019D6F9D0E000198
:10ABB800706F000E0001716F900E0001726FF90E38
:10ABC8000001736F67EC68F09D0E0001706F000E56
:10ABD8000001716F1B0E0001726FFE0E0001736F92
:10ABE80067EC68F005EC68F09D0E0001716F000ECF
:10ABF8000001726F000171517211D8A4200E736F99
:10AC0800F5EC68F0C80E00018D6F000E8E6F000E17
:10AC18008F6F000E906FC00E0001916FF90E00014A
:10AC2800926F000191519211D8A4000E936FB7EC66
:10AC380045F0F30E0001876FF80E0001886F0001E0
:10AC480087518811D8A4000E896F000E00018A6F01
:10AC5800050E00018B6F16EC6EF00009D8B402D017
:10AC6800000E1200010E1200000E00017D6F000E92
:10AC78007C6F000E00017A6F000E796F000E0001E4
:10AC88007B6F3DD000017B51010DF350000175250C
:10AC9800D96EF45000017621DA6EDF500001786F2A
:10ACA8000001785100017C250001706F000E000141
:10ACB8007D210001716F000E0001736F0F0E726F1E
:10ACC800A3EC67F070C07CF071C07DF000017B2BB5
:10ACD8000001795100017C250001706F00017A5153
:10ACE80000017D210001716F000E0001736F0F0ECE
:10ACF800726FA3EC67F070C079F071C07AF0000150
:10AD08007B51010DF35000017525D96EF4500001F7
:10AD18007621DA6E00017751DE18D8A4B3D7000186
:10AD28007939F00B00017C111200000E00019F6FB1
:10AD38009F0E0001706F000E0001716F3F0E000141
:10AD4800726FF90E0001736F67EC68F09F0E0001D7
:10AD5800706F000E0001716FF20E0001726FFF0E2E
:10AD68000001736F67EC68F09F0E0001706F000EB2
:10AD78000001716F9DC072F09EC073F067EC68F0BF
:10AD88009F0E0001706F000E0001716F1B0E000115
:10AD9800726FFE0E0001736F67EC68F005EC68F0E7
:10ADA8009F0E0001716F000E0001726F000171515A
:10ADB8007211D8A4200E736FF5EC68F0E80E00014C
:10ADC8008D6F030E8E6F000E8F6F000E906FC00E8A
:10ADD8000001916FF90E0001926F000191519211DB
:10ADE800D8A4000E936FB7EC45F01200000E0001D6
:10ADF8009F6F9F0E0001706F000E0001716F350E7E
:10AE08000001726FF90E0001736F67EC68F09F0E16
:10AE18000001706F000E0001716FF20E0001726F79
:10AE2800FF0E0001736F67EC68F09F0E0001706FF2
:10AE3800000E0001716F9DC072F09EC073F067EC48
:10AE480068F09F0E0001706F000E0001716F1B0EFD
:10AE58000001726FFE0E0001736F67EC68F005EC7D
:10AE680068F09F0E0001716F000E0001726F000103
:10AE780071517211D8A4200E736FF5EC68F0E80ECA
:10AE880000018D6F030E8E6F000E8F6F000E906F96
:10AE9800C00E0001916FF90E0001926F00019151EF
:10AEA8009211D8A4000E936FB7EC45F01200000E73
:10AEB80000019F6F9F0E0001706F000E0001716FFF
:10AEC8002B0E0001726FF90E0001736F67EC68F0CA
:10AED8009F0E0001706F000E0001716FF20E0001ED
:10AEE800726FFF0E0001736F67EC68F09F0E000130
:10AEF800706F000E0001716F9DC072F09EC073F0FC
:10AF080067EC68F09F0E0001706F000E0001716F12
:10AF18001B0E0001726FFE0E0001736F67EC68F084
:10AF280005EC68F09F0E0001716F000E0001726F52
:10AF3800000171517211D8A4200E736FF5EC68F0FE
:10AF4800E80E00018D6F030E8E6F000E8F6F000EDE
:10AF5800906FC00E0001916FF90E0001926F000111
:10AF680091519211D8A4000E936FB7EC45F01200DE
:10AF7800000E00019F6F9F0E0001706F000E000110
:10AF8800716F170E0001726FF90E0001736F67EC95
:10AF980068F09F0E0001706F000E0001716FF20ED5
:10AFA8000001726FFF0E0001736F67EC68F09F0E6F
:10AFB8000001706F000E0001716F9DC072F09EC09D
:10AFC80073F067EC68F09F0E0001706F000E0001CF
:10AFD800716F1B0E0001726FFE0E0001736F67EC3C
:10AFE80068F005EC68F09F0E0001716F000E00011B
:10AFF800726F000171517211D8A4200E736FF5ECB5
:10B0080068F0E80E00018D6F030E8E6F000E8F6FD3
:10B01800000E906FC00E0001916FF90E0001926F43
:10B02800000191519211D8A4000E936FB7EC45F02E
:10B038001200000E00019F6F9F0E0001706F000E3E
:10B048000001716F490E0001726FF90E0001736FF4
:10B0580067EC68F09F0E0001706F000E0001716FC1
:10B06800F20E0001726FFF0E0001736F67EC68F05B
:10B078009F0E0001706F000E0001716F9DC072F08D
:10B088009EC073F067EC68F09F0E0001706F000EB1
:10B098000001716F1B0E0001726FFE0E0001736FCD
:10B0A80067EC68F005EC68F09F0E0001716F000E08
:10B0B8000001726F000171517211D8A4200E736FD4
:10B0C800F5EC68F0D00E00018D6F070E8E6F000E44
:10B0D8008F6F000E906FC00E0001916FF90E000186
:10B0E800926F000191519211D8A4000E936FB7ECA2
:10B0F80045F01200AB0E2BEC72F0010E0001746FDC
:10B10800010E3BEC71F0060E2BEC72F0929A899AC4
:10B11800810EDCEC6AF000017B51DCEC6AF0000186
:10B128007A51DCEC6AF0000EDCEC6AF0898A680E71
:10B1380000017D6FE40EE82EFED77D2FFCD700D0EE
:10B14800680E00017D6FE40EE82EFED77D2FFCD738
:10B1580000D0680E00017D6FE40EE82EFED77D2F2B
:10B16800FCD700D00FD0730E0001756FFD0E0001E3
:10B17800766FBBEC64F0000E0001716F050E706F06
:10B18800E7EC6EF0050EFCEC6BF0000173B1EBD749
:10B19800680E00017D6FE40EE82EFED77D2FFCD7E8
:10B1A80000D0680E00017D6FE40EE82EFED77D2FDB
:10B1B800FCD700D01200270E0001DE6F020E00013E
:10B1C800DF6F73EC6DF0430E0001C66F010E0001D6
:10B1D800C76F240E0001C86FFD0E0001C96F000E75
:10B1E8000001736F710E726F98EC72F001013F6F7E
:10B1F80001013F510001CA6FCB6B000E0001736F54
:10B20800720E726F98EC72F00101406F01014051AB
:10B218000001CC6FCD6B000E0001736F730E726F5F
:10B2280098EC72F00101416F010141510001CE6FAC
:10B23800CF6B64EC72F00101426F010142510001D1
:10B24800D06FD16B1FEC12F0270E0001706F020E49
:10B258000001716F430E0001726F010E0001736FE0
:10B2680067EC68F0270E0101396F020E01013A6F91
:10B27800AAEC62F01200000E00017B6F000179AFAA
:10B2880008D00001786D791FD8B0792B010E000124
:10B298007B6F000177AF08D00001766D771FD8B0BB
:10B2A800772B010E00017B1B000E00017D6F000E45
:10B2B8007C6F0001785100017911D8B42CD0010EAF
:10B2C80000017A6F06D00001D890783779370001ED
:10B2D8007A2B000179AFF7D70001D8907C377D37FA
:10B2E800000178510001765D00017951000177591C
:10B2F800D8A00AD0000178510001765F0001795189
:10B308000001775B00017C810001D89079337833A4
:10B3180000017A2FE1D700017B510001D8B405D094
:10B3280000017C6D7D1FD8B07D2B7CC076F07DC080
:10B3380077F01200000E00018D6F000E8E6F000E68
:10B348008F6F000E906F0001895100018A11000172
:10B358008B1100018C11D8B442D0010E0001916FFD
:10B3680008D00001D89089378A378B378C3700018D
:10B37800912B00018CAFF5D70001D8908D378E370F
:10B388008F379037000189510001855D00018A518E
:10B398000001865900018B510001875900018C5129
:10B3A80000018859D8A012D0000189510001855F99
:10B3B80000018A510001865B00018B510001875B07
:10B3C80000018C510001885B00018D810001D8903B
:10B3D8008C338B338A3389330001912FCDD78DC0BD
:10B3E80085F08EC086F08FC087F090C088F012007C
:10B3F8000001796F0001775197EC68F077C070F021
:10B4080000017951D2EC65F0000177510CEC67F03E
:10B418000009D8A442D077C070F000017551D2EC71
:10B4280065F0000177510CEC67F00009D8A42FD023
:10B4380000017751C6EC68F076C070F00001716BBE
:10B44800E7EC6EF077C070F000017929D2EC65F076
:10B45800000177510CEC67F00009D8A412D0000164
:10B468007751ECEC5EF00001786F77C070F0010E58
:10B4780064EC5BF0000177519FEC5EF000017851BD
:10B488001200000177519FEC5EF0000E12000001DF
:10B4980077519FEC5EF0000E1200000177519FEC8F
:10B4A8005EF0000E12000001E4510001E511D8A47D
:10B4B80006D09BEC65F07EC0E4F07FC0E5F0270E77
:10B4C8000001DE6F020E0001DF6F73EC6DF0410EBC
:10B4D8000001C66F010E0001C76FD80E0001C86FCA
:10B4E800FD0E0001C96FE4C079F0E5C07AF0ACEC5C
:10B4F80070F079C093F07AC094F07BC095F0000E9C
:10B508000001966F7A0E0001976F440E0001986F44
:10B5180009EC4BF093C0CAF094C0CBF095C0CCF0C6
:10B528001FEC12F0270E0001706F020E0001716F00
:10B53800410E0001726F010E0001736F67EC68F035
:10B54800270E0101396F020E01013A6FAAEC62F071
:10B55800E4C03FF1E5C040F11200000E0101B86FF0
:10B56800000E0101B96F000E0001BD6FC80E000189
:10B57800BE6F410E0001BF6F8CEC51F0BDC0C2F12F
:10B58800BEC0C3F1000E0001BD6F000E0001BE6F0A
:10B59800000E0001BF6F8CEC51F0BDC0C4F1BEC0FD
:10B5A800C5F1000E0001BD6FF00E0001BE6F410E27
:10B5B8000001BF6F8CEC51F0BDC0C6F1BEC0C7F131
:10B5C800000E0001BD6FA00E0001BE6FC00E00018D
:10B5D800BF6F8CEC51F0BDC0C8F1BEC0C9F101010C
:10B5E800C069C1690101BA69BB690101BC69BD696A
:10B5F8000101BE69BF69FF0E0101CA6F7F0E01011B
:10B60800CB6F470E0101CC6FBEEC3EF0120047D065
:10B6180078C0D9FF79C0DAFFDF50D8B413D078C02A
:10B62800D9FF79C0DAFFDF5000017F6F7AC0F6FFDB
:10B638007BC0F7FF7CC0F8FF0800F55000017F19B8
:10B64800D8B423D07AC0F6FF7BC0F7FF7CC0F8FFE0
:10B658000800F55000017F6F806B00017F1F801F7D
:10B668007F4B802B78C0D9FF79C0DAFFDF5000010B
:10B67800816F0001815100017F250001786F000E64
:10B68800000180210001796F12000001784B792BAD
:10B698000001010E7A27000E7B23000E7C23000197
:10B6A8007D07D8A07E0700017D29B2E100017E292F
:10B6B800D8A4AED7000E0001796F000E786F120083
:10B6C8000001726F00017005D8A427D0C7A404D068
:10B6D8000001716B712B02D00001716BC5501F0BFB
:10B6E800000171110009D8A4F1D7000172B102D08C
:10B6F800C59A01D0C58AC598C588C7A404D00001D9
:10B70800716B712B02D00001716BC5501F0B0001CA
:10B7180071110009D8B41200F0D7020E0001701997
:10B72800D8A41200C7A404D00001716B712B02D0F9
:10B738000001716BC5501F0B000171110009D8A4DD
:10B74800F1D7000172B102D06B9A01D06B8A6B9865
:10B758006B886DA404D00001716B712B02D00001BD
:10B76800716B6B501F0B000171110009D8B41200E6
:10B77800F0D7586EE2EC72F0596EEBEC72F0E5EC33
:10B7880072F05A6E5A04D8B40CD0090E5A18D8B4AC
:10B7980008D05850D8A405D0E8EC72F00009D8A415
:10B7A80033D0020E5C6E580E5B6E04000ED0340E61
:10B7B800576EF20EE82EFED7572EFCD75B505C1062
:10B7C800D8B403D05B06D8A05C06E8EC72F0000998
:10B7D800D8A404D05B505C10D8A4E9D75B505C10A7
:10B7E800D8A405D0020E0001EF6F030E14D000019B
:10B7F800EF51D8A403D0010E0001EF6F020E010132
:10B80800CF6FA8EC49F009D0080E5A18D8A402D076
:10B81800010E01D0000E0101CF6F5950C1EC72F03A
:10B828001200000E0001D66F750ED56F000E0001D4
:10B83800756F0C0E746FF7EC52F074C0D7F075C0CA
:10B84800D8F076C0D9F077C0DAF083EC5FF0000E5C
:10B858000001D66F0C0ED56F000E0001756F0C0E2F
:10B86800746FF7EC52F0010E000174250001D76FD8
:10B87800000E000175210001D86F000E000176212D
:10B888000001D96F000E000177210001DA6F83EC07
:10B898005FF0000E0001D66F080ED56F000E000194
:10B8A800D76F000ED86F000ED96F000EDA6F83ECD9
:10B8B8005FF0000E0001C76FC00EC66F000E0001DA
:10B8C800C96FC80EC86F8FEC6FF012000101D40564
:10B8D800D8B412008BBA25D057EC5AF0800E01016B
:10B8E8003F5D0C0E01014059D8B01BD0928892865A
:10B8F800928092829284000E896E948C8B9C948E96
:10B908008B9E000E0001716F140E706FE7EC6EF0E5
:10B91800949A8B8A000E0001716F640E706FE7ECC9
:10B928006EF093968196000E0001716FFA0E706F9B
:10B93800E7EC6EF0080E0001756FFF0E0001766FE0
:10B94800BBEC64F0010E0101D46F9286929892903C
:10B9580092829284000E0001716F0A0E706FE7ECFC
:10B968006EF080988980A6EC71F049EC72F005ECD5
:10B9780068F0120005EE00F013EE02F0EE6AE550F2
:10B98800E150FCE1E250FAE104EE00F011EE00F0C3
:10B99800EE6AE550E150FCE1E250FAE103EE32F0E4
:10B9A800290EEE6AE806FDE102EE00F08B0EEE6A63
:10B9B800E806FDE101EEB8F01E0EEE6AE806FDE1CC
:10B9C80000EEE0F0100EEE6AE806FDE15E6A5D6AE0
:10B9D800B00EF66ED30EF76E000EF86E02EE8BF018
:10B9E80010EE58F00900F5CFEEFFE550E150FAE10E
:10B9F8008C0EF66EE50EF76E000EF86E01EED6F0C0
:10BA080010EE09F00900F5CFEEFFE550E150FAE13C
:10BA18005F905F920001D7EF00F03ED082C078F0CF
:10BA280083C079F084C07AF085C07BF086C07CF052
:10BA380084C070F085C071F086C072F064EC65F067
:10BA480070C07DF071C07EF00BEC5BF000017851A6
:10BA580000017911D8A405D082C082F083C083F098
:10BA68001200010E000182250001706F000E000116
:10BA780083210001716F84C0F6FF85C0F7FF86C07F
:10BA8800F8FF0800F5500001726F736B35EC6EF02B
:10BA980070C082F071C083F00001825100018311EF
:10BAA800D8B407D082C0D9FF83C0DAFFDF50D8A44A
:10BAB800B5D7000E0001826F000E0001836F1200DF
:10BAC800000E0001756F000171AF08D00001706DA4
:10BAD800711FD8B0712B010E0001756F000173AF93
:10BAE80005D00001726D731FD8B0732B000172511D
:10BAF80000017311D8B426D0010E0001746F06D06E
:10BB08000001D890723773370001742B000173AFAE
:10BB1800F7D7000172510001705D000173510001F7
:10BB28007159D8A008D0000172510001705F00015E
:10BB380073510001715B0001D890733372330001B7
:10BB4800742FE7D7000175510001D8B405D0000162
:10BB5800706D711FD8B0712B70C070F071C071F02A
:10BB680012000001AE510001AF11D8A40AD0000E96
:10BB78000001AE6F7A0E0001AF6F430E0001B06F87
:10BB88001200000E0001966F800E0001976F470E9D
:10BB98000001986FB80E0001876F2F0E0001886FA3
:10BBA800430E0001896FAEC079F0AFC07AF0ACECFB
:10BBB80070F079C084F07AC085F07BC086F05AECCA
:10BBC8004AF084C093F085C094F086C095F009ECE3
:10BBD8004BF093C0A2F094C0A3F095C0A4F0660EF9
:10BBE8000001A56F3B0E0001A66FC20E0001A76FF2
:10BBF800FFEC3FF0A2C0AEF0A3C0AFF0A4C0B0F01D
:10BC080012000001965100019711000198110001DE
:10BC18009911D8B43AD0010E00019A6F08D00001EA
:10BC2800D890963797379837993700019A2B0001A3
:10BC380099AFF5D7000196510001925D0001975127
:10BC4800000193590001985100019459000199513C
:10BC580000019559D8A010D0000196510001925FBB
:10BC6800000197510001935B000198510001945B1A
:10BC7800000199510001955B0001D89099339833E0
:10BC88009733963300019A2FD5D792C092F093C07C
:10BC980093F094C094F095C095F01200030E000143
:10BCA80076150001786F000E000177150001796F95
:10BCB8000001785100017911D8A402D0020E1200B7
:10BCC8000001764B772B030E000176150001786F83
:10BCD800000E000177150001796F0001785100010D
:10BCE8007911D8B402D0000E120076C070F077C077
:10BCF80071F0000E0001736F640E726F64EC5DF0FA
:10BD08000001705100017111D8B402D0010E120067
:10BD180076C070F077C071F0010E0001736F900E5D
:10BD2800726F64EC5DF00001705100017111D8A4CC
:10BD3800DAD7010E12000001716F00017105D8A455
:10BD480021D0C7A404D00001706B702B02D0000171
:10BD5800706BC5501F0B000170110009D8A4F1D7F2
:10BD6800C594C584C7A404D00001706B702B02D0A1
:10BD78000001706BC5501F0B000170110009D8B489
:10BD88001200F0D7020E00017119D8A412006DA498
:10BD980004D00001706B702B02D00001706B6B50E7
:10BDA8001F0B000170110009D8A4F1D76B946B84A4
:10BDB8006DA404D00001706B702B02D00001706B71
:10BDC8006B501F0B000170110009D8B41200F0D796
:10BDD8000001726F000E0001716FC7A404D000014A
:10BDE800706B702B02D00001706BC5501F0B0001E7
:10BDF80070110009D8A4F1D700017205D8A402D0A7
:10BE0800C58605D0020E00017219D8B46B860001F0
:10BE18007205D8B40FD0020E00017219D8A40FD041
:10BE2800000E6DB0010E0001716F09D0000172059E
:10BE3800D8A4F1D7000EC7B0010E0001716F000140
:10BE480071510001D8B4F2D700017205D8A403D00B
:10BE5800C9CF71F006D0020E00017219D8B46FCFA5
:10BE680071F0000171511200000E0001716F000E97
:10BE7800706FB1EC6AF0000E0001716F000E706F08
:10BE880086EC6AF08B928B948A98939E939C9398F5
:10BE98008A9E8A9C83EC72F078C070F079C071F049
:10BEA800B1EC6AF076C070F077C071F086EC6AF099
:10BEB800000174B102D08A9801D08A887AC07BF0D8
:10BEC800010E00017B1700017B3B7B477B478A50B3
:10BED80000017B19BF0B7B198A6E7AC07BF00001C9
:10BEE800D8907B33010E00017B1700017B337B3335
:10BEF8008A5000017B197F0B7B198A6E1200030E92
:10BF08000001D5250001BD6F000E0001D6210001FA
:10BF1800BE6FD7C0BFF0B7EC6DF0D8C0D7F0D9C0AE
:10BF2800D8F0DAC0D9F00001DA6B020E0001D5258D
:10BF38000001BD6F000E0001D6210001BE6FD7C001
:10BF4800BFF0B7EC6DF0D8C0D7F0D9C0D8F0DAC0E0
:10BF5800D9F00001DA6B010E0001D5250001BD6F93
:10BF6800000E0001D6210001BE6FD7C0BFF0B7ECAC
:10BF78006DF0D8C0D7F0D9C0D8F0DAC0D9F0000138
:10BF8800DA6BD5C0BDF0D6C0BEF0D7C0BFF0B7ECF5
:10BF98006DF012000A6E085098EC6CF008C001F0C1
:10BFA8000A5023EC69F0085031EC6BF00009D8A472
:10BFB80036D008C001F0065023EC69F0085031EC87
:10BFC8006BF00009D8A426D00850BEEC6CF007C06E
:10BFD80001F0026A96EC70F008C001F00A2823EC20
:10BFE80069F0085031EC6BF00009D8A40ED0085065
:10BFF8000EEC64F0096E08C001F0010E18EC60F058
:10C0080008506CEC62F00950120008506CEC62F0B9
:10C01800000E120008506CEC62F0000E120008507E
:10C028006CEC62F0000E1200036E0104D8A420D05C
:10C03800C7A403D0026A022A01D0026AC5501F0BA6
:10C0480002100009D8A4F4D703B002D0C59A01D0D1
:10C05800C58AC598C588C7A403D0026A022A01D038
:10C06800026AC5501F0B02100009D8B41200F3D79A
:10C07800020E0118D8A41200C7A403D0026A022A2B
:10C0880001D0026AC5501F0B02100009D8A4F4D7CA
:10C0980003B002D06B9A01D06B8A6B986B886DA441
:10C0A80003D0026A022A01D0026A6B501F0B0210E9
:10C0B8000009D8B41200F3D76BEC71F074C058F1D2
:10C0C80075C059F1010159BF08D00101595139E131
:10C0D800650E0101585DD8B01200010159BF120068
:10C0E800270E0001DE6F020E0001DF6F73EC6DF0AA
:10C0F8003F0E0001C66F010E0001C76F890E0001D7
:10C10800C86FFE0E0001C96F58C1CAF059C1CBF003
:10C118001FEC12F0270E0001706F020E0001716F04
:10C128003F0E0001726F010E0001736F67EC68F03B
:10C13800270E0101396F020E01013A6FAAEC62F075
:10C1480012001200A6C085F0A7C086F0A8C087F02C
:10C15800A9C088F0AAC089F0ABC08AF042EC24F0EC
:10C1680085C0B2F086C0B3F087C0B4F088C0B5F01F
:10C17800ACC085F0ADC086F0AEC087F0AFC088F027
:10C18800B0C089F0B1C08AF0E6EC4CF000018551EE
:10C198000001B2250001B66F000186510001B321EC
:10C1A8000001B76F000187510001B4210001B86F89
:10C1B800000188510001B5210001B96FB6C0A6F091
:10C1C800B7C0A7F0B8C0A8F0B9C0A9F01200320EE5
:10C1D8000001C56F1FD0C1C0BDF0C2C0BEF0C3C052
:10C1E800F6FFC4C0F7FF000EF86E0F0EF76403D019
:10C1F8000800F55005D0F6CFE9FFF7CFEAFFEF507A
:10C208000001BF6FB7EC6DF00001C34BC42B0001F8
:10C21800C14BC22BC3C0F6FFC4C0F7FF000EF86EB7
:10C228000F0EF76403D00800F55005D0F6CFE9FFEC
:10C23800F7CFEAFFEF500009D8B406D00001C507D0
:10C248000001C529D8A4C7D7C1C0C1F0C2C0C2F077
:10C25800120000019E6F00019D5197EC68F09DC08F
:10C2680070F000019E51D2EC65F000019D510CEC7C
:10C2780067F00009D8A429D09DC070F000019B5137
:10C28800D2EC65F000019D510CEC67F00009D8A4D0
:10C2980017D09DC070F000019C51D2EC65F00001F0
:10C2A8009D510CEC67F00009D8A405D000019D5100
:10C2B8009FEC5EF0120000019D519FEC5EF01200B1
:10C2C80000019D519FEC5EF0120000019D519FEC12
:10C2D8005EF01200000E026E000E016E2DEC6DF085
:10C2E800000E026E000E016E09EC6DF08B928B94BD
:10C2F8008A98939E939C93988A9E8A9C9FEC72F04E
:10C3080009C001F00AC002F02DEC6DF007C001F081
:10C3180008C002F009EC6DF005B002D08A9801D08F
:10C328008A880BC00CF0010E0C160C3A0C460C4611
:10C338008A500C18BF0B0C188A6E0BC00CF0D890E2
:10C348000C32010E0C160C320C328A500C187F0B72
:10C358000C188A6E1200000E0101196F010EACEC68
:10C368006BF07CC01AF17DC01BF101011A5101016B
:10C378001B11D8B41BD0010E0101196FDEC0C6F025
:10C38800DFC0C7F0B50E0001C86FFE0E0001C96F0F
:10C398001AC1AEF01BC1AFF0B5EC5DF0AEC0CAF08B
:10C3A800AFC0CBF0B0C0CCF01FEC12F0DEC070F024
:10C3B800DFC071F0360E0001726FFD0E0001736F61
:10C3C80067EC68F01AC1CAF01BC1CBF0E2EC44F08C
:10C3D8000101195112000001716F00017105D8A403
:10C3E8001AD0948694880A0EC86E280EC66E000E5F
:10C3F800C56E400EC76EC7A404D00001706B702BC9
:10C4080002D00001706BC5501F0B000170110009AC
:10C41800D8B41200F0D7020E00017119D8A4120086
:10C42800938293840A0E6E6E280E6C6E000E6B6EED
:10C43800400E6D6EC7A404D00001706B702B02D043
:10C448000001706B6B501F0B000170110009D8B40C
:10C458001200F0D78E0E0001806F08D00001D8902E
:10C468007B337A33793378330001802B000E000157
:10C47800781500017C6F000E0001791500017D6FB1
:10C48800000E00017A1500017E6FFF0E00017B157A
:10C4980000017F6F00017C5100017D1100017E11B8
:10C4A80000017F11D8A4DAD778C070F079C071F094
:10C4B8007AC072F080C073F0000E0001746F94ECC3
:10C4C8004EF070C078F071C079F072C07AF0120046
:10C4D800026E0204D8A41BD0C7A403D0016A012AA3
:10C4E80001D0016AC5501F0B01100009D8A4F4D768
:10C4F800C594C584C7A403D0016A012A01D0016A82
:10C50800C5501F0B01100009D8B41200F3D7020E52
:10C518000218D8A412006DA403D0016A012A01D020
:10C52800016A6B501F0B01100009D8A4F4D76B9453
:10C538006B846DA403D0016A012A01D0016A6B5093
:10C548001F0B01100009D8B41200F3D7000E000128
:10C55800756FC00E746FD4EC6BF074C03DF175C08C
:10C568003EF1280E01013D2501013B6F000E01013E
:10C578003E2101013C6F0C0E01013B5D030E0101E0
:10C588003C59D8B016D0000E0001C76FC00EC66F58
:10C598003DC1C1F03EC1C2F039C1C3F03AC1C4F0D7
:10C5A800EBEC60F0C1C0C8F0C2C0C9F08FEC6FF00E
:10C5B8001200F3EC71F039C10FF13AC110F150ECEF
:10C5C80033F01200000E0001766F000E756F000147
:10C5D800725100017311D8B42CD0010E0001746F90
:10C5E80006D00001D890723773370001742B000110
:10C5F80073AFF7D70001D8907537763700017251BD
:10C608000001705D0001735100017159D8A00AD072
:10C61800000172510001705F000173510001715BEC
:10C62800000175810001D890733372330001742FB3
:10C63800E1D775C070F076C071F01200000E0001ED
:10C64800A16F000EA06F05EC68F007EC6BF0000915
:10C65800D8B406D02CD049EC72F00001A04BA12B25
:10C6680077EC4DF00009D8A410D000019D510001CD
:10C67800A05D0001A151800A00019F6F00019E5139
:10C68800800A00019F59D8A0E6D700019D510001FA
:10C69800A05D0001A151800A00019F6F00019E5119
:10C6A800800A00019F59D8A002D0000E1200010E86
:10C6B8001200270E0001DE6F020E0001DF6F73EC1F
:10C6C8006DF0400E0001C66F010E0001C76F9F0E8E
:10C6D8000001C86FFE0E0001C96F000E0001736FE4
:10C6E800010E726F98EC72F001013F6F01013F512A
:10C6F8000001CA6FCB6B1FEC12F0270E0001706FA0
:10C70800020E0001716F400E0001726F010E0001F0
:10C71800736F67EC68F0270E0101396F020E010193
:10C728003A6FAAEC62F01200000E0001816F000E51
:10C73800826F000E836F000E846F000179A110D004
:10C7480000017D510001812700017E5100018223F3
:10C7580000017F51000183230001805100018423DF
:10C768000001D8907D377E377F3780370001D89019
:10C778007C337B337A3379330001795100017A11A4
:10C7880000017B1100017C11D8A4D7D781C079F0B2
:10C7980082C07AF083C07BF084C07CF012001C0E4B
:10C7A80000019B6F000E00019C6F020E00019D6F3F
:10C7B800D20E2DEC61F0100E00019B6F170E0001D8
:10C7C8009C6F020E00019D6FD20E2DEC61F0110ED0
:10C7D80000019B6F380E00019C6F020E00019D6FD7
:10C7E800D20E2DEC61F0100E0001756F000E0001E5
:10C7F800766F020E0001776FD20EFCEC59F0000143
:10C808009F6F170E00019F17D8B402D0010E1200B7
:10C81800000E1200036E000E026EC7A403D0016A58
:10C82800012A01D0016AC5501F0B01100009D8A4C4
:10C83800F4D70304D8A402D0C58604D0020E031886
:10C84800D8B46B860304D8B40CD0020E0318D8A44D
:10C858000CD0000E6DB0010E026E07D00304D8A4F0
:10C86800F4D7000EC7B0010E026E0250D8B4F6D746
:10C878000304D8A403D0C9CF02F005D0020E0318D0
:10C88800D8B46FCF02F002501200F50E0101396FD3
:10C89800FC0E01013A6FAAEC62F0270E0001DE6F70
:10C8A800020E0001DF6F73EC6DF0410E0001C66FE0
:10C8B800010E0001C76F940E0001C86FFE0E000143
:10C8C800C96F3FC1CAF040C1CBF01FEC12F0270E70
:10C8D8000001706F020E0001716F410E0001726F4E
:10C8E800010E0001736F67EC68F0270E0101396FC4
:10C8F800020E01013A6FAAEC62F01200000E00016C
:10C908009D6F9D0E0001706F000E0001716FBB0ED0
:10C918000001726FF80E0001736F67EC68F005ECA8
:10C9280068F09D0E0001716F000E0001726F00012A
:10C9380071517211D8A4200E736FF5EC68F0E80EEF
:10C9480000018D6F030E8E6F000E8F6F000E906FBB
:10C95800C00E0001916FF90E0001926F0001915114
:10C968009211D8A4000E936FB7EC45F01200FFECBB
:10C9780071F0000E0001716F010E706FE7EC6EF040
:10C9880052EC72F016D075C0F6FF76C0F7FF000EB5
:10C99800F86E0F0EF76403D00800F55005D0F6CFF7
:10C9A800E9FFF7CFEAFFEF5091EC72F00001754B09
:10C9B800762B75C0F6FF76C0F7FF000EF86E0F0EE7
:10C9C800F76403D00800F55005D0F6CFE9FFF7CF9C
:10C9D800EAFFEF500009D8A4D6D789EC71F012000D
:10C9E800000E00017B6F000E7A6F17D000017A519C
:10C9F80000017625D96E00017B5100017721DA6E9E
:10CA080074C072F075C073F098EC72F0DF6E0001BC
:10CA1800744B752B00017A4B7B2B00017851000178
:10CA28007A5D0001795100017B59D8A0DFD7000158
:10CA38007A5100017625D96E00017B5100017721DA
:10CA4800DA6E000EDF6E76C074F077C075F01200F3
:10CA58000001726F929E00017251550B0001706FB8
:10CA680000017251AA0B0001716F000E0001736F73
:10CA7800030E0001736501D01FD0000170AD02D014
:10CA88008B8001D08B90000171AF02D0808E01D0D5
:10CA9800809E00F0898C00F00001D8907037D89003
:10CAA80070370001D8907137D890713700F0899CA1
:10CAB80000F00001732BDCD700D000D0928E12005A
:10CAC80070C075F071C076F072C077F007D00001C1
:10CAD800010E7527000E7623000E772375C0F6FF2A
:10CAE80076C0F7FF77C0F8FFF8BA03D00800F55012
:10CAF80005D0F6CFE9FFF7CFEAFFEF500009D8A439
:10CB0800E6D770C073F071C074F00001731F741F12
:10CB1800734B742B00017551000173250001706F70
:10CB280000017651000174210001716F1200900E0E
:10CB38000F01426FBB0EC06E000EC16E7C0EC26E3E
:10CB4800C2801A0EE82EFED700D0C282C2B2FED72B
:10CB5800C4CF80F00001816B00018051816F806B30
:10CB6800C35000018013000E0001706F000E716F3A
:10CB7800100E726F000E736F80C074F081C075F074
:10CB88000001766B776B07EC4EF070C080F071C0D7
:10CB980081F080C07EF081C07FF012000001746FC8
:10CBA80000017005D8A416D0C9CF72F074C0C9FFAF
:10CBB800C7B0FED7C7A404D00001716B712B02D097
:10CBC8000001716BC5501F0B000171110009D8B429
:10CBD8001200F0D7020E00017019D8A412006FCF0E
:10CBE80073F074C06FFF6DB0FED76DA404D0000160
:10CBF800716B712B02D00001716B6B501F0B000120
:10CC080071110009D8B41200F0D7270E0001DE6FA9
:10CC1800020E0001DF6F73EC6DF03F0E0001C66F6E
:10CC2800010E0001C76F990E0001C86FFD0E0001CB
:10CC3800C96FB8C1CAF00001CB6BB9C1CCF0000113
:10CC4800CD6B1FEC12F0270E0001706F020E000171
:10CC5800716F3F0E0001726F010E0001736F67EC78
:10CC680068F0270E0101396F020E01013A6FAAEC34
:10CC780062F01200096E085098EC6CF008C001F0E0
:10CC8800095023EC69F0085031EC6BF00009D8A486
:10CC980022D008C001F0065023EC69F0085031ECAE
:10CCA8006BF00009D8A413D008C001F0075023EC9A
:10CCB80069F0085031EC6BF00009D8A404D0085092
:10CCC8006CEC62F0120008506CEC62F01200085034
:10CCD8006CEC62F0120008506CEC62F01200000E6E
:10CCE8000001D66F680ED56F54EC6EF0CDC0D7F04A
:10CCF800CEC0D8F0CFC0D9F0D0C0DAF083EC5FF066
:10CD0800000E0001D66F640ED56F54EC6EF0000172
:10CD1800DB510001CD250001D76F0001DC51000176
:10CD2800CE210001D86F0001DD510001CF210001A3
:10CD3800D96F0001DE510001D0210001DA6F83ECC8
:10CD48005FF012000101586F270E0001DE6F020E1E
:10CD58000001DF6F73EC6DF03F0E0001C66F010E2E
:10CD68000001C76FAA0E0001C86FFE0E0001C96F4F
:10CD780058C1CAF00001CB6B1FEC12F0270E00015E
:10CD8800706F020E0001716F3F0E0001726F010E8D
:10CD98000001736F67EC68F0270E0101396F020E0E
:10CDA80001013A6FAAEC62F0120005EC68F0D70EA8
:10CDB80000019D6F020E00019E6FDF0E00019F6F44
:10CDC800020E0001A06FB70E0001A16F020E000154
:10CDD800A26F51EC4CF00009D8A402D0000E12004A
:10CDE800A70E00019D6F020E00019E6F1DEC58F00A
:10CDF8000009D8A402D0000E120082EC64F00009E9
:10CE0800D8A402D0000E12005BEC6BF0010E1200E9
:10CE18000001716F00017105D8A413D0C7A404D014
:10CE28000001706B702B02D00001706BC5501F0B96
:10CE3800000170110009D8A4F1D7C5AC18D0010EB3
:10CE48001200020E00017119D8A413D06DA404D0E9
:10CE58000001706B702B02D00001706B6B501F0BC0
:10CE6800000170110009D8A4F1D76BBCE8D7000EF7
:10CE78001200000E1200010E5D6E54EC6EF0CDC073
:10CE8800D5F0CEC0D6F0CFC0D7F0D0C0D8F0C4EC23
:10CE98006FF0D3EC63F00001D96FD5C0CDF0D6C0E8
:10CEA800CEF0D7C0CFF0D8C0D0F06AEC70F0640EE6
:10CEB8000001756FFD0E0001766FBBEC64F036EC77
:10CEC80068F0020E5D18D8A403D0000ED2EC53F01F
:10CED800000E5D6E0001D9511200900E0F01426FD5
:10CEE800BB0EC06E000EC16E7C0EC26EC2801A0EE2
:10CEF800E82EFED700D0C282C2B2FED7C4CF11F04E
:10CF0800126A1150126E116AC3501112000E016E8E
:10CF1800000E026E100E036E000E046E11C005F0B6
:10CF280012C006F0076A086A0BEC55F001C011F050
:10CF380002C012F011C00FF012C010F01200000170
:10CF4800725100017311D8B426D0010E0001746F1C
:10CF580006D00001D890723773370001742B000196
:10CF680073AFF7D7000172510001705D0001735172
:10CF780000017159D8A008D0000172510001705FFA
:10CF8800000173510001715B0001D8907333723353
:10CF98000001742FE7D770C070F071C071F01200F3
:10CFA8000101196FE7EC71F0270E0001C66F020E40
:10CFB8000001C76F440E0001C86FFE0E0001C96F63
:10CFC80019C1CAF00001CB6B1FEC12F0270E00014B
:10CFD800756F020E0001766FBBEC64F019C1EBF0BF
:10CFE800010E0001826F010E0001836F0001EB51F9
:10CFF800ECEC0AF0DEC070F0DFC071F0B3EC71F059
:10D008001200000E0001716F000E706F000171BFF9
:10D0180007D00001715118E100017029D8B014D06F
:10D02800000E00017025D96E050E00017121DA6E1F
:10D03800000EDF6E0001704B712B000171BFF0D73D
:10D048000001715101E1E8D7000EE8CF00F5000EAC
:10D058000001E36F000EE26F000E0001E16F000EA9
:10D06800E06F12001F0E00019B6F9D0E00019C6F68
:10D07800020E00019D6FD20E2DEC61F0200E000112
:10D088009B6FA90E00019C6F020E00019D6FD20ECE
:10D098002DEC61F01F0E00019B6F9D0E00019C6F2F
:10D0A800020E00019D6FD20E2DEC61F0270E0001DB
:10D0B8009B6F000E00019C6F020E00019D6FD20E47
:10D0C8002DEC61F0120070C074F071C075F003D0DF
:10D0D8000001744B752B74C0D9FF75C0DAFFDF509F
:10D0E800D8B407D0F5D70001744B752B0001724BEB
:10D0F800732B72C0F6FF73C0F7FF000EF86E74C092
:10D10800D9FF75C0DAFF0F0EF76403D00800F55099
:10D1180005D0F6CFE9FFF7CFEAFFEF50DF6EDF501B
:10D12800D8B41200E0D70001716F00017105D8A4CE
:10D1380012D0C590C580C7A404D00001706B702BB5
:10D1480002D00001706BC5501F0B0001701100095F
:10D15800D8B41200F0D7020E00017119D8A4120039
:10D168006B906B806DA404D00001706B702B02D0A3
:10D178000001706B6B501F0B000170110009D8B4CF
:10D188001200F0D70001716F00017105D8A412D008
:10D19800C592C582C7A404D00001706B702B02D061
:10D1A8000001706BC5501F0B000170110009D8B445
:10D1B8001200F0D7020E00017119D8A412006B9268
:10D1C8006B826DA404D00001706B702B02D000013B
:10D1D800706B6B501F0B000170110009D8B412005E
:10D1E800F0D719D071C0F6FF72C0F7FF73C0F8FF0F
:10D1F800F8BA03D00800F55005D0F6CFE9FFF7CF0D
:10D20800EAFFEF507CEC72F00001010E7127000E6E
:10D218007223000E732371C0F6FF72C0F7FF73C04C
:10D22800F8FFF8BA03D00800F55005D0F6CFE9FFAB
:10D23800F7CFEAFFEF500009D8B41200D3D7056E34
:10D248000104D8A413D0C9CF03F005C0C9FFC7B0E3
:10D25800FED7C7A403D0026A022A01D0026AC550C9
:10D268001F0B02100009D8B41200F3D7020E0118E0
:10D27800D8A412006FCF04F005C06FFF6DB0FED7C1
:10D288006DA403D0026A022A01D0026A6B501F0BF8
:10D2980002100009D8B41200F3D7710E0001DE6F36
:10D2A800010E0001DF6F73EC6DF03F0E0001DE6FC1
:10D2B800010E0001DF6FAFEC61F00101A36FEFEC2D
:10D2C80072F0710E0001706F010E0001716F3F0E58
:10D2D8000001726F010E0001736F67EC68F0710E48
:10D2E8000101396F010E01013A6FAAEC62F00101E8
:10D2F800A35112000101CF51D8B427D00101CF05A5
:10D30800D8A405D0000E0101CF6F010E1200020E45
:10D318000101CF19D8A405D0000E0101CF6F020E6C
:10D328001200030E0101CF19D8A405D0000E010187
:10D33800CF6F030E1200040E0101CF19D8A405D037
:10D34800000E0101CF6F040E1200000E1200170E1E
:10D3580000019B6F840E00019C6F020E00019D6FFF
:10D36800D20E2DEC61F0170E0001756F000E000152
:10D37800766F020E0001776FD20EFCEC59F00001B7
:10D388009F6F00019FAF0ED01C0E00019B6F040E13
:10D3980000019C6F020E00019D6FD20E2DEC61F012
:10D3A800010E1200000E120070AD70BDC6EE406591
:10D3B80008C09304C1DC90582020202020202000A1
:10D3C800202020004A4A5053217842535A39395E66
:10D3D8006F7468006735622B796165615F63787582
:10D3E800475E730070AD70BDC6EE406508C093041B
:10D3F800C1DC90585750413250534B0041455300BF
:10D408007EEC69F00001756F030E00017519D8A450
:10D4180002D0050E120074EC72F00001746F000166
:10D4280074A705D06CEC72F0FF0AD8A402D0020EE3
:10D438001200020E00017519D8A405D0020E0101D0
:10D44800CF6F030E12006CEC72F00009D8A402D062
:10D45800080E1200030E12000001C16F000E000139
:10D46800736F700E726F98EC72F00001C1110001B9
:10D47800C26F000E0001BE6F700EBD6FC2C0BFF05C
:10D48800B7EC6DF0000E0001736F6F0E726F98ECC1
:10D4980072F00001C1110001C26F000E0001BE6FE1
:10D4A8006F0EBD6FC2C0BFF0B7EC6DF01200010E79
:10D4B8000001DE6F070E0001DF6F73EC6DF0010EE7
:10D4C8000001706F070E0001716F3FC172F040C11B
:10D4D80073F067EC68F0010E0001706F070E000131
:10D4E800716F370E0001726FFD0E0001736F67ECEC
:10D4F80068F0010E0101396F070E01013A6FAAECBD
:10D5080062F012000001705100017111D8B41FD0EF
:10D518000001FF0E7017030E7117000E666E70C0C3
:10D5280072F071C073F00001D89073337233000148
:10D53800D8907333723300017251FC0B676E00018F
:10D548007039F00B300B66120C0E66121200000ECA
:10D55800666E000E676E8292120000017051000123
:10D568007111D8B41FD00001FF0E7017030E711788
:10D57800000EBD6E70C072F071C073F00001D890DB
:10D58800733372330001D8907333723300017251D0
:10D59800FC0BBE6E00017039F00B300BBD120C0E87
:10D5A800BD121200000EBD6E000EBE6E82941200F7
:10D5B8000001706F000E0001716F000E0001726FA4
:10D5C800070E0001726501D019D0000170AF02D0BA
:10D5D8008B8001D08B9000F0898C00F00001D890EE
:10D5E800713780AE02D00001718100F0899C00F093
:10D5F8000001D89070370001722BE2D700D000D01C
:10D60800000171511200E4EC6CF005EC68F0B30E07
:10D618000001716FF90E0001726F000171517211F2
:10D62800D8A4000E736FF5EC68F0140E00018D6F2E
:10D63800000E8E6F000E8F6F000E906FC00E0001EF
:10D64800916FF90E0001926F000191519211D8A4C7
:10D65800000E936FB7EC45F01200026E0204D8A4D6
:10D6680010D0C7A403D0016A012A01D0016AC550AD
:10D678001F0B01100009D8A4F4D7C5AC14D0010EB3
:10D688001200020E0218D8A410D06DA403D0016AAB
:10D69800012A01D0016A6B501F0B01100009D8A4A0
:10D6A800F4D76BBCECD7000E1200000E1200899064
:10D6B800340E0001756FF20EE82EFED7752FFCD7D9
:10D6C800340E0001756FF20EE82EFED7752FFCD7C9
:10D6D800898005EC68F0640E0001766F09D0000EB1
:10D6E8000001716F320E706FE7EC6EF00001760783
:10D6F80080A21200000176510001D8B41200EFD7C1
:10D70800A6EC71F049EC72F005EC68F09A0E000195
:10D71800716FFF0E0001726F000171517211D8A470
:10D72800000E736FF5EC68F0000E0001716F640E67
:10D73800706FE7EC6EF0000E896E92889286928088
:10D748009282928493968186000E0101D46F120012
:10D7580000017E6F00017E05D8A411D0F30E0001F0
:10D76800756F060E0001766F010E0001776F800E4F
:10D778001AEC4FF075C07CF076C07DF01200E00E18
:10D788000001756F000E0001766F010E0001776FC2
:10D79800800E1AEC4FF075C07CF076C07DF0120058
:10D7A80074C072F075C073F098EC72F00001766F77
:10D7B800000176510001776F786B00017751786F1F
:10D7C800776B010E000174250001726F000E0001D5
:10D7D80075210001736F98EC72F00001766F0001FB
:10D7E80076510001771377C074F078C075F0120095
:10D7F8000001766F929A899A00017651DCEC6AF002
:10D80800000EDCEC6AF00001756F00017551000133
:10D81800776F786B00017751786F776B000EDCECCF
:10D828006AF00001756F0001755100017713000E51
:10D83800DCEC6AF0898A77C073F078C074F0120063
:10D84800000E0001716F000E706F000171BF08D0EB
:10D85800000171511BE1100E0001705DD8B012007B
:10D868008B0E00017025D96E020E00017121DA6E4F
:10D87800C70E00017025E16E020E00017121E26EF3
:10D88800DFCFE7FF0001704B712BDFD71200000ECE
:10D898000001776F929A899A000E00017313000EA7
:10D8A8007413000E7513030E761300017651DCEC29
:10D8B8006AF000017551DCEC6AF000017451DCEC8F
:10D8C8006AF000017351DCEC6AF0000EDCEC6AF0DF
:10D8D8000001776F898A0001775112000001B15168
:10D8E8000001B2110001B311D8B409D0000E000133
:10D8F800B11B000E0001B21B800E0001B31BAEC0AD
:10D90800A2F0AFC0A3F0B0C0A4F0B1C0A5F0B2C0FF
:10D91800A6F0B3C0A7F0FFEC3FF0A2C0AEF0A3C0E2
:10D92800AFF0A4C0B0F01200026E0204D8A40FD069
:10D93800C590C580C7A403D0016A012A01D0016A35
:10D94800C5501F0B01100009D8B41200F3D7020EFE
:10D958000218D8A412006B906B806DA403D0016AE2
:10D96800012A01D0016A6B501F0B01100009D8B4BD
:10D978001200F3D7026E0204D8A40FD0C592C58254
:10D98800C7A403D0016A012A01D0016AC5501F0B40
:10D9980001100009D8B41200F3D7020E0218D8A457
:10D9A80012006B926B826DA403D0016A012A01D028
:10D9B800016A6B501F0B01100009D8B41200F3D78D
:10D9C8001B0E0001716FFE0E0001726F0001715194
:10D9D8007211D8A4000E736FF5EC68F0640E0001A4
:10D9E8008D6F000E8E6F000E8F6F000E906F000E01
:10D9F8000001916F000E0001926F000E0001936FFD
:10DA0800B7EC45F005EC68F0120001500210D8B4EC
:10DA18001AD0FF0E0116030E0216000E666E01C024
:10DA280003F002C004F0D89004320332D8900432D4
:10DA380003320350FC0B676E0138F00B300B661293
:10DA48000C0E66121200000E666E000E676E829251
:10DA5800120001500210D8B41AD0FF0E0116030E9E
:10DA68000216000EBD6E01C003F002C004F0D8908B
:10DA780004320332D890043203320350FC0BBE6EDA
:10DA88000138F00B300BBD120C0EBD121200000E47
:10DA9800BD6E000EBE6E82941200000E00017B6FF8
:10DAA800000179AF08D00001786D791FD8B0792BC3
:10DAB800010E00017B6F78C070F079C071F0000131
:10DAC800726B8E0E0001736F7BC074F094EC4EF095
:10DAD80070C078F071C079F072C07AF01200010E4F
:10DAE8005D6EDEC0C6F0DFC0C7F02B0E0001C86F48
:10DAF800FF0E0001C96F33EC41F0BAC0CAF0BBC0D9
:10DB0800CBF0BCC0CCF0BDC0CDF01FEC12F0020EC3
:10DB18005D18D8A403D0000ED2EC53F0000E5D6E51
:10DB28001200A68400017351AA6E72C0A9FF74C0C6
:10DB3800A8FFA69EA69CF29E550EA76EAA0EA76EDB
:10DB4800A682F28EA6B2FED7A69472C070F073C0F9
:10DB580071F035EC72F000017419D8A402D0010EEE
:10DB68001200000E1200BDC072F0BEC073F098EC37
:10DB780072F00001BF19D8B4120009D01A0E0001C2
:10DB8800C06FF80EE82EFED7C02FFCD700D0BDC05E
:10DB980072F0BEC073F0BFC074F095EC6DF0000970
:10DBA800D8A41200EBD7A6840450AA6E03C0A9FF1C
:10DBB80005C0A8FFA69EA69CF29E550EA76EAA0EAB
:10DBC800A76EA682F28EA6B2FED7A69403C001F075
:10DBD80004C002F05BEC72F00518D8A402D0010E64
:10DBE8001200000E1200000E0001BE6F710EBD6F14
:10DBF8000A0E0001BF6FB7EC6DF0000E0001BE6F9A
:10DC0800720EBD6F030E0001BF6FB7EC6DF0000E12
:10DC18000001BE6F730EBD6F050E0001BF6FB7EC3C
:10DC28006DF012001A0E00018C6FF80EE82EFED768
:10DC38008C2FFCD700D08AC082F08BC083F087C0BD
:10DC480084F088C085F089C086F011EC5DF0000191
:10DC5800825100018311D8B402D0010E1200000EC7
:10DC6800120070C0D9FF71C0DAFF00017251DE18CE
:10DC7800D8A405D070C070F071C071F0120070C0E7
:10DC8800D9FF71C0DAFF0001704B712BDF50D8A4A7
:10DC9800E8D7000E0001706F000E0001716F1200CE
:10DCA800010E5D6E33EC41F0BAC0D1F0BBC0D2F0CA
:10DCB800BCC0D3F0BDC0D4F0020E5D18D8A403D008
:10DCC800000ED2EC53F0000E5D6ED1C0CDF0D2C084
:10DCD800CEF0D3C0CFF0D4C0D0F0120006C003F00D
:10DCE80007C004F0B4EC72F00818D8B4120008D0D9
:10DCF8001A0E096EF80EE82EFED7092EFCD700D0B2
:10DD080006C003F007C004F008C005F0D7EC6DF0BA
:10DD18000009D8A41200ECD76AEC5CF049EC72F068
:10DD280007EC6BF00009D8A4120080B2FED7000EF1
:10DD380000019E6F0A0E9D6F22EC63F00D0E7CECC5
:10DD480072F0000E0001716F010E706FE7EC6EF05B
:10DD58001200000E0001DC6F000EDB6F0001DCBF5B
:10DD680008D00001DC5110E10A0E0001DB5DD8B0DB
:10DD78000BD066EC53F00009D8B402D0010E1200A3
:10DD88000001DB4BDC2BEAD7000E120000019F6F6D
:10DD9800120E00019B6F00019F51E00900019C6F6A
:10DDA800020E00019D6FD20E2DEC61F0170E0001DE
:10DDB8009B6F000E00019C6F020E00019D6FD20E3A
:10DDC8002DEC61F01200000E0001746F000E736FED
:10DDD8000CD00B0E0001726F620EE82EFED7722F68
:10DDE800FCD700D00001734B742B00017051000167
:10DDF800735D0001715100017459D8B01200E9D760
:10DE08000001C26F0001C251FF0A0001C16F000E7C
:10DE18000001736FAE0E726F98EC72F00001C115BD
:10DE28000001C36F000E0001BE6FAE0EBD6FC3C010
:10DE3800BFF0B7EC6DF012000001C26F0001C251D3
:10DE4800FF0A0001C16F000E0001736F700E726F40
:10DE580098EC72F00001C1150001C36F000E0001BB
:10DE6800BE6F700EBD6FC3C0BFF0B7EC6DF012008F
:10DE78000001C26F0001C251FF0A0001C16F000E0C
:10DE88000001736FAF0E726F98EC72F00001C1154C
:10DE98000001C36F000E0001BE6FAF0EBD6FC3C09F
:10DEA800BFF0B7EC6DF01200120E0001756F000E96
:10DEB8000001766F020E0001776FD20EFCEC59F06C
:10DEC800E00AD8B41200120E00019B6FE00E0001A8
:10DED8009C6F020E00019D6FD20E2DEC61F01200B6
:10DEE80000017E5100018003F3CF82F0F4CF83F06C
:10DEF80000017E5100018103F350000183270001D6
:10DF08007F5100018003F3500001832782C07EF017
:10DF180083C07FF01200010E0001C6250001BD6F0D
:10DF2800000E0001C7210001BE6FC8C0BFF0B7ECEA
:10DF38006DF00001C951C86FC96BC6C0BDF0C7C03C
:10DF4800BEF0C8C0BFF0B7EC6DF012009380D80ED9
:10DF5800F26E000EF16E000EF06E200E9D6E000E39
:10DF6800A06E200EA36E000ED06E000E9E6E000EE8
:10DF7800A16E000EA46E000E7B6E000E7E6E120067
:10DF8800C60E0001756FFD0E0001766FBBEC64F0E4
:10DF9800000E0001716F0A0E706FE7EC6EF0CDECA9
:10DFA80071F0000E0001716F0A0E706FE7EC6EF0F1
:10DFB8001200000170510001711100017211D8B4F2
:10DFC80009D0000E0001701B000E0001711B800EAD
:10DFD8000001721B70C070F071C071F072C072F0F5
:10DFE80012000001CD6F010E5D6E0001CD51CAEC2B
:10DFF8006EF0ABEC69F00001CE6F020E5D18D8A48C
:10E0080003D0000ED2EC53F0000E5D6E0001CE512D
:10E018001200000E0001736F000E726F07D00D0E14
:10E02800E82EFED700F00001724B732B00017051EF
:10E038000001725D0001715100017359D8B01200DE
:10E04800EED70001C16F000E0001736FAE0E726F44
:10E0580098EC72F00001C1110001C26F000E0001BE
:10E06800BE6FAE0EBD6FC2C0BFF0B7EC6DF0120050
:10E078000001C16F000E0001736FAF0E726F98EC54
:10E0880072F00001C1110001C26F000E0001BE6FE5
:10E09800AF0EBD6FC2C0BFF0B7EC6DF01200926852
:10E0A80093689468000E896E000E626E000E616EB1
:10E0B800000E8A6E000E8B6E000E0F01386F000E78
:10E0C8000F01396F000E0F013A6F1200010E5D6EDD
:10E0D800CDC0B3F0CEC0B4F0CFC0B5F0D0C0B6F06C
:10E0E800E6EC3BF0020E5D18D8A403D0000ED2EC8B
:10E0F80053F0000E5D6E1200120E066E000E076ED3
:10E10800020E086ED20ECEEC5FF0E00AD8B4120010
:10E11800120E066EE00E076E020E086ED20E3EEC70
:10E1280066F01200000E056E000E046E0AD00B0E8B
:10E13800036E620EE82EFED7032EFCD700D0044AE9
:10E14800052A0150045C02500558D8B01200EFD7D8
:10E1580079C070F07AC071F00001726B8E0E000108
:10E16800736F000E0001746F94EC4EF070C079F07C
:10E1780071C07AF072C07BF012000001726F000E5D
:10E188000001716F3A0E0001726107D02F0E000175
:10E19800726503D0010E0001716F71C070F000014B
:10E1A800703112003F0E0001756F000E0001766F8E
:10E1B800020E0001776FD20EFCEC59F000017A6F65
:10E1C80000017AA902D0010E1200000E12000B6E97
:10E1D8000B50FF0A0A6E000E046EAF0E036EB4EC0D
:10E1E80072F00A140C6E000E076EAF0E066E0CC0AD
:10E1F80008F072EC6EF012000A6E120E066E0A50EB
:10E20800E009076E020E086ED20E3EEC66F0170E9D
:10E21800066E000E076E020E086ED20E3EEC66F019
:10E228001200010E5D6ECDC09FF0CEC0A0F0CFC031
:10E23800A1F019EC50F0020E5D18D8A403D0000E1E
:10E24800D2EC53F0000E5D6E1200000E046E000E4C
:10E25800036E06D00D0EE82EFED700F0034A042AFE
:10E268000150035C02500458D8B01200F3D70001E3
:10E27800756F060E2BEC72F0929A899A000175510F
:10E28800DCEC6AF000017451DCEC6AF0898A120057
:10E298003F0E066E000E076E020E086ED20ECEEC12
:10E2A8005FF00B6E0BA802D0010E1200000E1200D8
:10E2B80024EC6CF08DC076F08EC077F0C70E0001AC
:10E2C800786F020E0001796FEDEC30F01200000E4D
:10E2D8000001736F740E726F98EC72F00001766F24
:10E2E800000176510001746F756B12000001E7514F
:10E2F800D8B41200000E0001716F500E706FE7EC79
:10E308006EF0000E0001E76F1200000E726E000E34
:10E31800716E000E706E000E756E000E766E939C18
:10E32800939E8A9C8A9E1200120E0001756F000E41
:10E338000001766F020E0001776FD20EFCEC59F0E7
:10E348001F0B12008B9E948E240EAC6E900EAB6E3B
:10E35800080EB86E220EAF6E000EB06E120070C0BE
:10E36800EDF070C0ECF0310ECD6E3C0ECF6EB00EFD
:10E37800CE6E210E9D6E1200270E0001DE6F020E7A
:10E388000001DF6FAFEC61F001011C6F01011C514E
:10E3980012001F0E00019B6F3C0E00019C6F020EC5
:10E3A80000019D6FD20E2DEC61F012000F0E0001DE
:10E3B800756F000E0001766F020E0001776FD20EA6
:10E3C800FCEC59F012008B928B948A98000ECD6E5B
:10E3D800000ECF6E000ECE6E200E9D6E1200BBECAE
:10E3E80072F0939A8A9A000E0001716F140E706F82
:10E3F800E7EC6EF01200938E240E726E900E716E22
:10E40800080E706E220E756E000E766E12007EC0BB
:10E4180079F07FC07AF080C07BF081C07CF07EEC20
:10E4280058F01200120E066E000E076E020E086EED
:10E43800D20ECEEC5FF01F0B1200000E0001BE6F73
:10E44800740EBD6FC1C0BFF0B7EC6DF012000001D3
:10E45800736F929A899A00017351DCEC6AF0898A89
:10E46800120000017151AA6E70C0A9FFA69EA69C59
:10E47800A680A85012000F0E066E000E076E020E40
:10E48800086ED20ECEEC5FF01200000EAE6EABCF6F
:10E4980070F0000EAB6E900EAB6E1200000E746E34
:10E4A80071CF70F0000E716E900E716E12000250F6
:10E4B800AA6E01C0A9FFA69EA69CA680A85012001D
:10E4C800000E0001736F700E726F98EC72F01200FC
:10E4D800000E0001736FAE0E726F98EC72F01200AE
:10E4E800000E0001736FAF0E726F98EC72F012009D
:10E4F8000001706F70C0ADFFACB21200FDD7829200
:10E50800829494929494BB68BA8412000001A06F1C
:10E518000001A051CAEC6EF012000001706F70C0CB
:10E5280073FF72B21200FDD772C070F073C071F041
:10E5380035EC72F012008292829494929494BB68A3
:10E54800BA841200000E046EAE0E036EB4EC72F0C4
:10E558001200000E046EAF0E036EB4EC72F01200DF
:10E5680003C001F004C002F05BEC72F0120094905A
:10E57800928E929C899C8B9012000B6E0B5000EC33
:0DE5880071F01200C80025002500030A0AEA
:10E59600010EEFEC61F01200000E0001E76F1200B1
:10E5A600939A8A8A120098EC71F01200DAEC71F0F4
:10E5B6001200D6EC70F0120058EC6FF0120016EC58
:10E5C60072F012003FEC72F012004CEC71F0120087
:0AE5D60080EC70F012001200120039
:10F2640000637C777BF26B6FC53001672BFED7ABF5
:10F2740076CA82C97DFA5947F0ADD4A2AF9CA47274
:10F28400C0B7FD9326363FF7CC34A5E5F171D831EC
:10F294001504C723C31896059A071280E2EB27B218
:10F2A4007509832C1A1B6E5AA0523BD6B329E32F3F
:10F2B4008453D100ED20FCB15B6ACBBE394A4C5873
:10F2C400CFD0EFAAFB434D338545F9027F503C9FD5
:10F2D400A851A3408F929D38F5BCB6DA2110FFF3F4
:10F2E400D2CD0C13EC5F974417C4A77E3D645D191F
:10F2F4007360814FDC222A908846EEB814DE5E0BE0
:10F30400DBE0323A0A4906245CC2D3AC629195E44C
:10F3140079E7C8376D8DD54EA96C56F4EA657AAE97
:10F3240008BA78252E1CA6B4C6E8DD741F4BBD8B25
:10F334008A703EB5664803F60E613557B986C11D1D
:10F344009EE1F8981169D98E949B1E87E9CE5528C1
:10F35400DF8CA1890DBFE6426841992D0FB054BBE3
:10F364001652096AD53036A538BF40A39E81F3D71B
:10F37400FB7CE339829B2FFF87348E4344C4DEE950
:10F38400CB547B9432A6C2233DEE4C950B42FAC378
:10F394004E082EA16628D924B2765BA2496D8BD182
:10F3A4002572F8F66486689816D4A45CCC5D65B6BC
:10F3B400926C704850FDEDB9DA5E154657A78D9DE5
:10F3C4008490D8AB008CBCD30AF7E45805B8B34595
:10F3D40006D02C1E8FCA3F0F02C1AFBD0301138A92
:10F3E4006B3A9111414F67DCEA97F2CFCEF0B4E665
:10F3F4007396AC7422E7AD3585E2F937E81C75DF06
:10F404006E47F11A711D29C5896FB7620EAA18BE1D
:10F414001BFC563E4BC6D279209ADBC0FE78CD5AEF
:10F42400F41FDDA8338807C731B11210592780ECC7
:10F434005F60517FA919B54A0D2DE57A9F93C99C48
:10F44400EFA0E03B4DAE2AF5B0C8EBBB3C8353992B
:10F4540061172B047EBA77D626E169146355210C13
:10F464007D00020406080A0C0E10121416181A1C49
:10F474001E20222426282A2C2E30323436383A3CB8
:10F484003E40424446484A4C4E50525456585A5CA8
:10F494005E60626466686A6C6E70727476787A7C98
:10F4A4007E80828486888A8C8E90929496989A9C88
:10F4B4009EA0A2A4A6A8AAACAEB0B2B4B6B8BABC78
:10F4C400BEC0C2C4C6C8CACCCED0D2D4D6D8DADC68
:10F4D400DEE0E2E4E6E8EAECEEF0F2F4F6F8FAFC58
:10F4E400FE1B191F1D131117150B090F0D0301071F
:10F4F400053B393F3D333137352B292F2D23212728
:10F50400255B595F5D535157554B494F4D43414717
:10F51400457B797F7D737177756B696F6D63616707
:10F52400659B999F9D939197958B898F8D838187F7
:10F5340085BBB9BFBDB3B1B7B5ABA9AFADA3A1A7E7
:10F54400A5DBD9DFDDD3D1D7D5CBC9CFCDC3C1C7D7
:10F55400C5FBF9FFFDF3F1F7F5EBE9EFEDE3E1E7C7
:10F56400E50004080C1014181C2024282C3034380E
:10F574003C4044484C5054585C6064686C707478E7
:10F584007C8084888C9094989CA0A4A8ACB0B4B8D7
:10F59400BCC0C4C8CCD0D4D8DCE0E4E8ECF0F4F8C7
:10F5A400FC1B1F13170B0F03073B3F33372B2F2372
:10F5B400275B5F53574B4F43477B7F73776B6F6377
:10F5C400679B9F93978B8F8387BBBFB3B7ABAFA367
:10F5D400A7DBDFD3D7CBCFC3C7FBFFF3F7EBEFE357
:10F5E400E736323E3A26222E2A16121E1A06020E3A
:10F5F4000A76727E7A66626E6A56525E5A46424E47
:10F604004AB6B2BEBAA6A2AEAA96929E9A86828E36
:10F614008AF6F2FEFAE6E2EEEAD6D2DEDAC6C2CE26
:10F62400CA2D2925213D3935310D0905011D19152D
:10F63400116D6965617D7975714D4945415D595516
:10F6440051ADA9A5A1BDB9B5B18D8985819D999506
:10F6540091EDE9E5E1FDF9F5F1CDC9C5C1DDD9D5F6
:10F66400D10008101820283038404850586068707D
:10F674007880889098A0A8B0B8C0C8D0D8E0E8F046
:10F68400F81B130B033B332B235B534B437B736BF1
:10F69400639B938B83BBB3ABA3DBD3CBC3FBF3EBF6
:10F6A400E3363E262E161E060E767E666E565E46A1
:10F6B4004EB6BEA6AE969E868EF6FEE6EED6DEC6A6
:10F6C400CE2D253D350D051D156D657D754D455DAD
:10F6D40055ADA5BDB58D859D95EDE5FDF5CDC5DD96
:10F6E400D56C647C744C445C542C243C340C041C55
:10F6F40014ECE4FCF4CCC4DCD4ACA4BCB48C849C86
:10F7040094777F676F575F474F373F272F171F0740
:10F714000FF7FFE7EFD7DFC7CFB7BFA7AF979F8735
:10F724008F5A524A427A726A621A120A023A322A88
:10F7340022DAD2CAC2FAF2EAE29A928A82BAB2AA65
:10F74400A24149515961697179010911192129317C
:10F7540039C1C9D1D9E1E9F1F981899199A1A9B155
:10F76400B9010000000A00000064000000E8030082
:10F774000010270000A086010040420F00809698E8
:10F784000000E1F50500CA9A3B00803FCDCC3DD78F
:10F79400233C12833AB7D138C62737388635C0D6CA
:10F7A40033CC2B32708930E7DB2EE53C1E42A20DB0
:10F7B40000803F00204100C842007A44401C46506B
:10F7C400C34724744997184BBCBE4C6B6E4E03154B
:10F7D4005079AD60F3497100001F003B005A007876
:10F7E400009700B500D400F300110130014E016D03
:10F7F4000100001F003C005B0079009800B600D5B2
:10F8040000F400120131014F016E0141542B5741A4
:10F814004B45590041542B575343414E0041542BFF
:10F8240057414C4B005750413250534B0041542BDD
:10F83400574150006E6F726D616C005348415245E0
:10F84400440057504150534B0041542B5A0D00442F
:10F854004F574E004E4F4E45004F50454E00544BAF
:10F86400495000414553002B2B2B00102700000169
:10F8740000000057455000504F5354202F642F76FA
:10F88400332F736176652F3139392F45626C5343B9
:10F8940049724C455563395049754D4C68536276ED
:10F8A40071533277696B68776935732048545450C3
:10F8B4002F312E310D0A0041542B4E4554503D74C6
:10F8C40063702C636C69656E742C38302C6E6577AC
:10F8D4006170692E65757072792E636F6D0D0048C5
:10F8E400465F4C50425F3130305F544553540044BE
:10F8F4006973636F6E6E6563746564002F642F763D
:10F90400322F64656275670041542B485454505536
:10F91400524C0041542B48545450434E0041542BF4
:10F924004854545044540041542B48545450504863
:10F934000041542B4854545054500041542B4854C3
:10F94400545055410041542B57535353494400528A
:10F954004553504F4E53453A0041542B574D4F4455
:10F96400450041542B57534B45590041542B575391
:10F974004D41430041542B4D534C500041542B50A6
:10F98400494E470041542B574946490041542B578F
:10F99400534C4B0041542B57534C51007374616EBC
:10F9A40064627900636C6F73650041542B450041B8
:10F9B400542B0D00504F5354006F6B006F6B005568
:10F9C4005000414141414141414141414141414155
:10F9D4004141414141414141414141414141414113
:10F9E4004141414141414141414141414141414103
:10F9F40041414141414141414141414141414141F3
:10FA040041414141414141414141414141414141E2
:10FA140041414141414141414141414141414141D2
:10FA240041414141414141414141414141414141C2
:10FA340041414141414141414141414141414141B2
:10FA440041414141414141414141414141414141A2
:10FA54004141414141414141414141414141414192
:10FA64004141414141414141414141414141414182
:10FA74004141414141414141414141414141414172
:10FA84004141414141414141414141414141414162
:10FA94004141414141414141414141414141414152
:10FAA400414141414141414100436F6E74656E746F
:10FAB4002D446973706F736974696F6E3A20666F51
:10FAC400726D2D646174613B206E616D653D2244ED
:10FAD400415441223B2066696C656E616D653D222F
:10FAE400646174612E62696E220D0A436F6E7465DF
:10FAF4006E742D547970653A206170706C6963611D
:10FB040074696F6E2F6F637465742D73747265619D
:10FB14006D0D0A0D0A00436F6E74656E742D547971
:10FB240070653A206D756C7469706172742F666FBC
:10FB3400726D2D646174613B20626F756E646172D5
:10FB4400793D2D2D2D2D2D2D2D2D2D2D2D2D2D2D85
:10FB54002D2D2D2D2D2D2D2D2D2D2D2D2D2D2D4BB3
:10FB6400524F4C4C45424F4C4C450D0A00436F6E6E
:10FB74006E656374696F6E3A20636C6F73650D0A0A
:10FB8400557365722D4167656E743A2048465F4C23
:10FB940050425F3130305F544553540D0A486F73FF
:10FBA400743A206170692E65757072792E636F6D79
:10FBB4000D0A000D0A2D2D2D2D2D2D2D2D2D2D2D24
:10FBC4002D2D2D2D2D2D2D2D2D2D2D2D2D2D2D2D61
:10FBD4002D2D2D2D4B524F4C4C45424F4C4C452D09
:10FBE4002D0D0A002D2D2D2D2D2D2D2D2D2D2D2DB1
:10FBF4002D2D2D2D2D2D2D2D2D2D2D2D2D2D2D2D31
:10FC04002D2D2D4B524F4C4C45424F4C4C450D0A1B
:10FC14000050726F626C656D73207769746820732D
:10FC2400656E64696E6720646174610A00433A25F5
:10FC3400322E31662025322E31662025322E316651
:10FC44002025322E31660A004D693A25642F256439
:10FC54002C4D613A25642F25642C4F3A25642F25B9
:10FC6400640A004E4D3A256420464D3A2564204EE0
:10FC7400533A25642046533A25640A00436F6E7450
:10FC8400656E742D4C656E6774683A20256C750D2D
:10FC94000A0D0A00525443204F4646206E6F7420CA
:10FCA400656666656374697665210A0050726570DD
:10FCB4006572696E6720746F2073656E64206D6F62
:10FCC40072650A004E3A256C7520533A256C7520EE
:10FCD4004C3A256C752025642D3E2000436F6E74CC
:10FCE400656E742D4C656E6774683A2025640D0A40
:10FCF4000D0A00537461746520504F5745524F4E9E
:10FD040020726561636865640A00526561636865B1
:10FD14006420746573742070726F6772616D0D0076
:10FD24007B2235223A5B25642C25642C25642C2502
:10FD3400645D7D7D0A004C696E6B2073746174751B
:10FD440073206661696C7572650A007B22393922F9
:10FD54003A7B2258223A5B39392E39395D7D7D0050
:10FD640053657474696E672053555045524341502E
:10FD74000A00525443206F6666206D6F64652062EA
:10FD840061640A004461746120737563636573730D
:10FD94003A202564007B2237223A5B25642C2564B3
:10FDA4005D7D7D0A004C696E6B207374617475739C
:10FDB400206F6B0A004441544153454E4420455240
:10FDC400524F520A0067657474696E67206C696EDD
:10FDD4006B210A007B2230223A25312E33667D7D49
:10FDE4000A006170692E65757072792E636F6D00FB
:10FDF40052544320696E6974206261640A00536539
:10FE04006E64696E67206D6F72650A0053545245C3
:10FE14004E203A25643A200D0053656E736F727359
:10FE2400204641494C00436F6E6E657420657272C2
:10FE34006F72004441544153454E44204F4B0A00D5
:10FE4400736574426C696E6B2025640A0045727296
:10FE54006F72733A2025640A0053454E444552524A
:10FE64004F520A005049432056312E302E30005351
:10FE7400656E736F7273204F4B00466C617368201C
:10FE84004641494C007B2232223A25647D7D0A009A
:10FE94007B2233223A25647D7D0A007B2234223A78
:10FEA40025647D7D0A007B2236223A25647D7D0A05
:10FEB400007B2231223A25322E32660043533A2007
:10FEC40025642025640A003031323334353637381E
:10FED400390053656E64206572726F7200474F5427
:10FEE400204C494E4B210A0041542B534D544C4B4A
:10FEF4000D00466C617368204F4B005254432046FA
:10FF040041494C0057696669206F6E0A0052455397
:10FF1400504F4E5345004E4F204C494E4B0A004320
:10FF24004552524F520A007B22256C75223A003DFD
:10FF340041505354410D004E4F4C494E4B0A005210
:10FF44005443204F4B004C463A25640A003230306B
:10FF5400204F4B0041542B56455200464C415348C8
:10FF64000A00416C61726D0A000A557365720A00D9
:10FF74003D5354410D0041505354410054696D6543
:10FF84000A00454E440A004F4B460D00444F4B0DAA
:10FF9400004445520D000D0D0D0A004243210A0094
:10FFA4003D41500D006F66660D004E414E240052D7
:10FFB40054430A00746573740045430D00454C0DA9
:10FFC4000045530D006F6E0D002B2B2B0053490A77
:10FFD40000534C0A004E6F0A00460A00570A0038C4
:10FFE40030004150006F6B007C0025002C003D0068
:0BFFF40042004F00610063007300003A
:020000040020DA
:08000000FFFFFFFFFFFFFFFF00
:020000040030CA
:0E000000FF081A3FFF3581FF0FC00FE00F40D1
:00000001FF
